:020000040000fa
:080000000002040000000000f2
:020000040000fa
:100400002fff20000eb722000e0188000000000020
:100410000c000700802f24000100200011000700bd
:10042000000020000000e000020032000000020096
:10043000000000009c3e0200000000000040da00c6
:100440000000fe004440a900000020000000e00081
:100450000300320000002000a00188004440a800f2
:100460000000060091018800800078000000eb0089
:1004700015003700e280400032a0b4009101ba00bc
:10048000e280400032a0b4009102ba00e280400055
:1004900032a0b4000002eb00472bde00f507b200eb
:1004a000602ce10004003a000059eb008301e900f0
:1004b000fdff3e00040037006128e100010032002a
:1004c0000082eb00040007001101ba000200e00006
:1004d000e8ff3a00000006003159ba008301e90044
:1004e0000c0032002159ba008301e90008003200f3
:1004f0000400e00003003a00e280400032a0b400b3
:10050000f5ff370011d9ba008301e900faff3a007c
:100510008100e800e180400032a0b4000000060045
:100520000040da000000fe0003f0a200889fbe0039
:100530008a9fbe008c1f78004101070048013300ec
:100540006450e1004f0032006420e10052003200ac
:1005500003826c0007003b000905d0000306d000b1
:10056000820f54000c065d000200390002003200c8
:1005700089017800030678008582550004003d005b
:100580000003fd008103fd008502ea008b85420027
:10059000840f720002003b0060001000e080180031
:1005a0006011b8000005eb007a28e1000a0039006c
:1005b00006007800c75ddd00f707b2008780750090
:1005c0002d003700828171000a017800610560000a
:1005d0008180d1000080d3008502e900f9ff3b0053
:1005e000060440008784480002003b0060041400b9
:1005f000e0841c000988a300070032008a81710092
:1006000082817100610164008904d1000884d300f3
:100610008b05e800170037000978a30013003a00a3
:100620000b00e000130034008b05e90008044400cf
:1006300089844c000a4474000978a3000d003a0034
:100640000b00e000070034008b05e90008044400bb
:1006500089844c0001003a000b0020000978a300b7
:10066000f7ff32000001eb000200370082817100c9
:100670000a017800b70007000cf0a70001f0a00005
:10068000000137006420e10002003a00838f6c0013
:10069000000133000801be000200be00f90037006f
:1006a000889fbe008a9fbe008c1f7800e400070070
:1006b000eb00330003866c006450e1002e00320032
:1006c0006420e100330032006150e1002f0032006d
:1006d0006120e1003100320085855500eb07b00054
:1006e0000900200008042000050037000804440029
:1006f00089844c000a0031000603430087834b00c5
:100700000001530081815b00f8ff33000203be004b
:100710000800a0000804440089844c00f6ff39005a
:10072000c639dd0083017300010032001300200090
:100730008904d1000884d3000998a3000500320081
:100740000800a7000300a0008904d1000884d3009a
:100750008b05e8008904d1000884d3000001eb0078
:100760000281d2007b00070001f0a1000cf0a7007d
:1007700001f0a000c30037006420e100c500320092
:100780000801be000200be00f7ff37006120e10053
:10079000c00032006000b800f3ff37000000200006
:1007a00001f82700f0ff370014002000f0003700a8
:1007b000f4ff2f00ee0037000001be008b000700a1
:1007c0000470a70003f0a1006509b1001600320013
:1007d0000d0035006828e10006003500f0ff2f000d
:1007e000f1ff27000300e00013003b000100280098
:1007f0000000050000004000818048008502e900fb
:10080000fcff3a0008003700f88f420002003c006d
:100810008000eb00000005008100d1000080d300c3
:100820008502e800fcff3a000300e00002003b0004
:1008300060001000e0801800000006000001be000b
:100840006a0007000470a70003f0a10003f8a300ea
:1008500013003a006509b1001000320009003500ac
:100860006928e100020035000100280000000500b1
:1008700000004000818048008502e900fcff3a004a
:1008800000000600f88f4200050035008100d1000d
:100890000080d3008502e800fcff3a00000006005b
:1008a0008000eb0000000500889fbe008a9fbe000c
:1008b000010578000100e0000400350008003c005c
:1008c0000000e0002000320005003700600010004a
:1008d000e080180002003b0001f02c001a003700f5
:1008e0000004be006011b8006b0920000982cf002f
:1008f000020039000882cf000441b0006942520072
:100900000e00320008003b0082817100610164002a
:100910008904d1000884d3008b05e8000442e80074
:10092000f9ff3a00050037000804440089844c00b0
:100930008b05e9000442e900fbff3a0005000700cf
:100940000af0a70001f0a0004f05be004f04be0052
:100950000000060081002000618055000b003d0072
:100960000b00200061fe2f000100e1001d0034009b
:1009700082817100610164008904d1000884d30080
:100980000000e800faff3a007100200061006400f6
:10099000030070000200600009003200610444009e
:1009a000e0844c000988a500050032008b05e800b2
:1009b0006808e10002003a008904d1000884d300ed
:1009c000f20f20000258e10005003d00c75ddd0088
:1009d000f907b20089807500080078000000060061
:1009e0000bf827008b00780000000500c70ade0026
:1009f000f107b200f50fb20008003200e1cf42006b
:100a0000020032000170a00024000500810f700078
:100a1000010032000408050044000500810f700049
:100a200002003a00140005008502e90000004000c1
:100a300081c04800fcff3b000170a00024000500bd
:100a40000004be00e9ff07000003be000405be006d
:100a50000200be00e5ff0700844f7500000006009d
:100a60000200be006450e100050036006420e10091
:100a7000020036000968a30001003a000800be0029
:100a80000160a0004f0678004f05be004f04be0075
:100a900000000600f0ff2f00f1ff2700f9ff3700ec
:100aa000889fbe008a9fbe008c1f7800e4ff07006d
:100ab000ebff330003866c006450e1002400320039
:100ac0006420e100270032006150e1002200320082
:100ad0006120e100210032008b854200eb07b1006c
:100ae0000134b800003ab8000804420089844a0082
:100af000013ab8000030b8008880400009014a007f
:100b000004003300000040008180480002014900d9
:100b10008b05e900c909dd00830170000100320086
:100b200013002000c814de004814dd004709de0071
:100b30001200b200c808de000884700085ff0700bc
:100b400001f0a1000cf0a70001f0a000cdff3700dc
:100b50006120e100cfff32000801be000200be00ac
:100b6000f7ff37006150e100fcff3a00c9ff370092
:100b7000889fbe008a9fbe00841f7800b0ff0700d8
:100b80004f00780011003300f0ff2f00838f6c00be
:100b900006003b00040565000a00a70008003700b6
:100ba00009f0a6001000200008003700820f540052
:100bb000838f5c00030039001000200001003e001c
:100bc0000000200009f0a7000000ea004f05be0069
:0c0bd0004f04be000000e0000000060022
:020000040000fa
:0200000401f009
:04000c00f8ff0000f9
:020000040000fa
:0200000401f009
:040010007bff000072
:020000040000fa
:0200000401f009
:040014007fff00006a
:020000040000fa
:0200000401f009
:04001800ffff0000e6
:020000040000fa
:0200000401f009
:04001c00deff000003
:020000040000fa
:1000080090020000900200009002000090020000a0
:100018009002000090020000900200009002000090
:10002800900200009002000090020000d618000024
:1000380090020000900200009002000042190000a7
:10004800900200009002000090020000f0200000e2
:10005800dc210000900200009002000090020000e5
:100068009002000090020000900200009002000040
:10007800c0180000900200009002000090020000ea
:100088009002000090020000900200009002000020
:100098009002000090020000f41f0000e820000019
:1000a8009002000090020000900200006c2a0000fc
:1000b80090020000900200009002000090020000f0
:1000c80090020000900200009002000090020000e0
:1000d80090020000900200009002000090020000d0
:1000e80090020000900200009002000090020000c0
:1000f80090020000900200009002000090020000b0
:10010800900200009002000090020000900200009f
:10011800900200009002000090020000900200008f
:10012800900200009002000090020000900200007f
:10013800900200009002000090020000900200006f
:10014800900200009002000090020000900200005f
:10015800900200009002000090020000900200004f
:10016800900200009002000090020000900200003f
:10017800900200009002000090020000900200002f
:10018800900200009002000090020000900200001f
:10019800900200009002000090020000900200000f
:1001a80090020000900200009002000090020000ff
:1001b80090020000900200009002000090020000ef
:1001c80090020000900200009002000090020000df
:1001d800900200009002000090020000cc1900007c
:1001e80090020000900200009002000090020000bf
:0801f8009002000090020000db
:020000040000fa
:10020800900200009002000090020000900200009e
:10021800900200009002000090020000900200008e
:10022800900200009002000090020000d618000022
:1002380090020000900200009002000042190000a5
:10024800900200009002000090020000f0200000e0
:10025800dc210000900200009002000090020000e3
:10026800900200009002000090020000900200003e
:10027800c0180000900200009002000090020000e8
:10028800900200009002000090020000900200001e
:100298009002000090020000f41f0000e820000017
:1002a8009002000090020000900200006c2a0000fa
:1002b80090020000900200009002000090020000ee
:1002c80090020000900200009002000090020000de
:1002d80090020000900200009002000090020000ce
:1002e80090020000900200009002000090020000be
:1002f80090020000900200009002000090020000ae
:10030800900200009002000090020000900200009d
:10031800900200009002000090020000900200008d
:10032800900200009002000090020000900200007d
:10033800900200009002000090020000900200006d
:10034800900200009002000090020000900200005d
:10035800900200009002000090020000900200004d
:10036800900200009002000090020000900200003d
:10037800900200009002000090020000900200002d
:10038800900200009002000090020000900200001d
:10039800900200009002000090020000900200000d
:1003a80090020000900200009002000090020000fd
:1003b80090020000900200009002000090020000ed
:1003c80090020000900200009002000090020000dd
:1003d800900200009002000090020000cc1900007a
:1003e80090020000900200009002000090020000bd
:0803f8009002000090020000d9
:020000040000fa
:100bdc000000fa0029cbbf000004e0000a0032003c
:100bec002acbbf000004e00007003200c15880008f
:100bfc0000042000808f50000300360010042000f9
:100c0c00c0588800020007000080fa0000000600af
:100c1c000200fa0035ccbf008080fb0040042000ad
:100c2c00808f5000010032001700370036ccbf0017
:100c3c008080fb0000032000808f500001003200f8
:100c4c001100370037ccbf000080fb00000f78008c
:100c5c00300420009e007800808f50000800320085
:100c6c00300520009e007800808f5000010032007b
:100c7c00050037000c000700b7050700020037001d
:100c8c0045060700210507000040eb0029ebb700e3
:100c9c000040eb002aebb7000040eb002bebb70059
:100cac000080fa00000006002200fa000000eb00b1
:100cbc00200798000040eb00304798000040eb0004
:100ccc00204798000040eb00104798000040eb00d4
:100cdc00004f780053ccbf00b4ebb70038ccbf004a
:100cec003047980091c3200091407800214798002c
:100cfc00a2c3200012417800124798003bccbf00e1
:100d0c00004f7800be409000f0c2b30080cf50007e
:100d1c0060003600be40900090c3b30080cf5000fe
:100d2c005c003e00ae409000f0c2b30080cf50009b
:100d3c0058003600ae40900090c3b30080cf5000f6
:100d4c0054003e009e409000f0c2b30080cf500093
:100d5c00500036009e40900090c3b30080cf5000ee
:100d6c004c003e00f0c2b3009e4f1000490036000c
:100d7c0090c3b3009e4f100046003e002e409000e2
:100d8c008080fb00400620000088b900000178003c
:100d9c003e4090008080fb0000fd2f0080804000d2
:100dac00803e20000088b900000141001e409000e8
:100dbc000080fb006a00b900800041001e80fb002f
:100dcc008080400000b32e00008040002007980077
:100ddc002e009000cf80de00b0fe0700d2cc2c009d
:100dec00c3dc23002bff0700b05c8800c15c8800cb
:100dfc00b05c8000c15c80000041eb001267980081
:100e0c0002002000032a240066fe07000000e00018
:100e1c0001003d000200370010c0b30010679800bd
:100e2c001e6090000004a2000004e00015003a00cf
:100e3c00b05c8000c15c80000041eb000267980050
:100e4c0002002000032f240054fe07000000e000e5
:100e5c00010034000200370010c0b3000067980096
:100e6c000e6090000004a2000004e00005003a00af
:100e7c00b05c8000c15c8000b05d8800c15d880002
:100e8c0004003700b05d8000c15d8000b05c88005c
:100e9c00c15c8800c1c320009140780031479800a4
:100eac00d2c3200012417800224798003eccbf00ec
:100ebc00104798003fccbf00004f7800be40900018
:100ecc00f0c2b30080cf50006a003600be409000e4
:100edc0090c3b30080cf500066003e00ae4090003f
:100eec00f0c2b30080cf500062003600ae409000dc
:100efc0090c3b30080cf50005e003e009e40900037
:100f0c00f0c2b30080cf50005a0036009e409000d3
:100f1c0090c3b30080cf500056003e00f0c2b30027
:100f2c009e4f10005300360090c3b3009e4f10002c
:100f3c0050003e002e4090008080fb0040062000b8
:100f4c000088b900000178003e4090008080fb00d2
:100f5c0000fd2f0080804000803e20000088b900fa
:100f6c00000141001e4090000080fb006a00b900a7
:100f7c00800041001e80fb008080400000b32e00ea
:100f8c0000804000200798002e009000cf80de00eb
:100f9c0042fe0700d2cc2c00c3dc2300bdfe0700b0
:100fac00d05c8800e15c8800d05c8000e15c800053
:100fbc000041eb00725f980002002000032a24001d
:100fcc00f8fd07000000e00001003d0002003700c2
:100fdc0010c0b300705f98007e5890000004a2000f
:100fec000004e00015003a00d05c8000e15c800059
:100ffc000041eb00625f980002002000032f2400e8
:10100c00e6fd07000000e00001003400020037009c
:10101c0010c0b300605f98006e5890000004a200ee
:10102c000004e00005003a00d05c8000e15c800028
:10103c00d05d8800e15d880004003700d05d800041
:10104c00e15d8000d05c8800e15c8800d05c8000b1
:10105c00e15c800002002000832424002ffd0700a7
:10106c0002002000030024008afd0700cffd0700ca
:10107c00905e880001c420009140780031479800b0
:10108c0012c42000124178002247980042ccbf00c5
:10109c001047980043ccbf00004f7800be40900032
:1010ac00f0c2b30080cf5000ce003600be4090009e
:1010bc0090c3b30080cf5000ca003e00ae409000f9
:1010cc00f0c2b30080cf5000c6003600ae40900096
:1010dc0090c3b30080cf5000c2003e009e409000f1
:1010ec00f0c2b30080cf5000be0036009e4090008e
:1010fc0090c3b30080cf5000ba003e00f0c2b300e2
:10110c009e4f1000b700360090c3b3009e4f1000e6
:10111c00b4003e002e4090008080fb004006200072
:10112c000088b900000178003e4090008080fb00f0
:10113c0000fd2f0080804000803e20000088b90018
:10114c00000141001e4090000080fb006a00b900c5
:10115c00800041001e80fb008080400000b32e0008
:10116c0000804000200798002e009000cf80de0009
:10117c00cafd0700d2cc2c00c3dc230045fe0700bf
:10118c00f05c8800015d8800b4cbbf000000fb0060
:10119c004400de00610060000004e0002a00320020
:1011ac00f05c8000015d80000041eb00525f980014
:1011bc0002002000032724007afd07000000e00055
:1011cc0001003d000200370010c0b300505f9800d2
:1011dc005e5890000004a2000004e00015003a00e4
:1011ec00f05c8000015d80000041eb00425f9800e4
:1011fc00020020007330240068fd07000000e000ae
:10120c00010034000200370010c0b300405f9800aa
:10121c004e5890000004a2000004e00005003a00c3
:10122c00f05c8000015d8000f05d8800015e88004c
:10123c006c003700f05d8000015e8000f05c88007f
:10124c00015d880067003700b4cbbf000000fb00d5
:10125c004400de000000a200610060000004e00019
:10126c0060003200b4cbbf000000fb004300de0086
:10127c000000a200610060000004e0002a003200bf
:10128c00f05c8000015d80000041eb00325f980053
:10129c0062662600932f240042fd07000000e00048
:1012ac0001003d000200370010c0b300305f980011
:1012bc003e5890000004a2000004e00015003a0023
:1012cc00f05c8000015d80000041eb00225f980023
:1012dc00020020006331240030fd07000000e00014
:1012ec00010034000200370010c0b300205f9800ea
:1012fc002e5890000004a2000004e00005003a0003
:10130c00f05c8000015d8000f05d8800015e88006b
:10131c0034003700f05d8000015e8000f05c8800d6
:10132c00015d88002f003700b4cbbf000000fb002c
:10133c004300de00610060000004e0002900320080
:10134c00f05c8000015d80000041eb00125f9800b2
:10135c00020020000327240012fd07000000e0001b
:10136c0001003d000200370010c0b300105f980070
:10137c001e5890000004a2000004e00015003a0082
:10138c00f05c8000015d80000041eb00025f980082
:10139c00020020006331240000fd07000000e00083
:1013ac00010034000200370010c0b300005f980049
:1013bc000e5890000004a2000004e00005003a0062
:1013cc00f05c8000015d8000f05d8800015e8800ab
:1013dc0004003700f05d8000015e8000f05c880046
:1013ec00015d880041c4200091407800314798008d
:1013fc0052c42000124178002247980046ccbf000e
:10140c001047980047ccbf00004f7800be409000ba
:10141c00f0c2b30080cf50000d013600be409000ea
:10142c0090c3b30080cf500009013e00ae40900045
:10143c00f0c2b30080cf500005013600ae409000e2
:10144c0090c3b30080cf500001013e009e4090003d
:10145c00f0c2b30080cf5000fd0036009e409000db
:10146c0090c3b30080cf5000f9003e00f0c2b3002f
:10147c009e4f1000f600360090c3b3009e4f100034
:10148c00f3003e002e4090008080fb0040062000c0
:10149c000088b900000178003e4090008080fb007d
:1014ac0000fd2f0080804000803e20000088b900a5
:1014bc00000141001e4090000080fb006a00b90052
:1014cc00800041001e80fb008080400000b32e0095
:1014dc0000804000200798002e009000cf80de0096
:1014ec00eefc0700d2cc2c00c3dc230069fd070006
:1014fc00105d8800215d8800b4cbbf000000fb00ac
:10150c004400de00610060000004e0003f00320097
:10151c00b4cbbf000000fb004500de0061006000a2
:10152c000004e00008003200105e8000215e8000a4
:10153c00a299290093f5230056fd0700105d880041
:10154c00215d8800c2003700b4cbbf000000fb0057
:10155c004500de000000a200610060000004e00015
:10156c00bb003200105d8000215d80000041eb006b
:10157c0072579800020020000327240089fc070002
:10158c000000e00001003d000200370010c0b30075
:10159c00705798007e5090000004a2000004e000f8
:1015ac0015003a00105d8000215d80000041eb00c9
:1015bc0062579800d2cc2c00c32e240077fc070075
:1015cc000000e000010034000200370010c0b3003e
:1015dc00605798006e5090000004a2000004e000d8
:1015ec0005003a00105d8000215d8000105e8800cf
:1015fc00215e880096003700105e8000215e80001e
:10160c00105d8800215d880091003700b4cbbf00cd
:10161c000000fb004400de000000a200610060003e
:10162c000004e0008a003200b4cbbf000000fb00d5
:10163c004300de000000a200610060000004e00036
:10164c003f003200b4cbbf000000fb004500de00c1
:10165c00610060000004e00008003200105e8000b1
:10166c00215e8000a299290093f5230009fd070053
:10167c00105d8800215d880075003700b4cbbf0079
:10168c000000fb004500de000000a20061006000cd
:10169c000004e0006e003200105d8000215d8000cf
:1016ac000041eb005257980032332300532c240096
:1016bc003cfc07000000e00001003d000200370088
:1016cc0010c0b300505798005e5090000004a20068
:1016dc000004e00015003a00105d8000215d8000e0
:1016ec000041eb00425798000200200043302400d8
:1016fc002afc07000000e000010034000200370063
:10170c0010c0b300405798004e5090000004a20047
:10171c000004e00005003a00105d8000215d8000af
:10172c00105e8800215e880049003700105e800042
:10173c00215e8000105d8800215d88004400370028
:10174c00b4cbbf000000fb004300de006100600072
:10175c000004e0003e003200b4cbbf000000fb00f0
:10176c004500de00610060000004e000080032006b
:10177c00105e8000215e8000a299290093f5230061
:10178c00c4fc0700105d8800215d88003000370024
:10179c00b4cbbf000000fb004500de000000a2003f
:1017ac00610060000004e00029003200105d800040
:1017bc00215d80000041eb003257980002002000b0
:1017cc0003272400f7fb07000000e00001003d00a8
:1017dc000200370010c0b300305798003e50900004
:1017ec000004a2000004e00015003a00105d800027
:1017fc00215d80000041eb00225798000200200080
:10180c00032f2400e5fb07000000e000010034007a
:10181c000200370010c0b300205798002e509000e3
:10182c000004a2000004e00005003a00105d8000f6
:10183c00215d8000105e8800215e88000400370066
:10184c00105e8000215e8000105d8800215d8800a4
:10185c0081c42000914078003147980092c4200048
:10186c0012417800224798004accbf0010479800dc
:10187c004bccbf00004f7800be409000f0c2b300cc
:10188c0080cf5000ce003600be40900090c3b30015
:10189c0080cf5000ca003e00ae409000f0c2b300b2
:1018ac0080cf5000c6003600ae40900090c3b3000d
:1018bc0080cf5000c2003e009e409000f0c2b300aa
:1018cc0080cf5000be0036009e40900090c3b30005
:1018dc0080cf5000ba003e00f0c2b3009e4f100003
:1018ec00b700360090c3b3009e4f1000b4003e000a
:1018fc002e4090008080fb00400620000088b9003c
:10190c00000178003e4090008080fb0000fd2f001d
:10191c0080804000803e20000088b900000141001a
:10192c001e4090000080fb006a00b900800041005e
:10193c001e80fb008080400000b32e000080400021
:10194c00200798002e009000cf80de00d3fb07000c
:10195c00d2cc2c00c3dc23004efc0700305d880089
:10196c00415d8800b4cbbf000000fb004400de00ea
:10197c00610060000004e0002a003200305d80004d
:10198c00415d80000041eb0012579800d2cc2c0036
:10199c00c32e240083fb07000000e00001003d0083
:1019ac000200370010c0b300105798001e50900072
:1019bc000004a2000004e00015003a00305d800035
:1019cc00415d80000041eb000257980002002000ae
:1019dc007330240071fb07000000e00001003400ac
:1019ec000200370010c0b300005798000e50900052
:1019fc000004a2000004e00005003a00305d800005
:101a0c00415d8000305e8800415e88006c003700cc
:101a1c00305e8000415e8000305d8800415d880052
:101a2c0067003700b4cbbf000000fb004400de00b1
:101a3c000000a200610060000004e00060003200c1
:101a4c00b4cbbf000000fb004300de000000a2008e
:101a5c00610060000004e0002a003200305d80006c
:101a6c00415d80000041eb00724f9800323323003f
:101a7c00f32f24004bfb07000000e00001003d00a9
:101a8c000200370010c0b300704f98007e489000e1
:101a9c000004a2000004e00015003a00305d800054
:101aac00415d80000041eb00624f98000200200075
:101abc006331240039fb07000000e0000100340012
:101acc000200370010c0b300604f98006e489000c1
:101adc000004a2000004e00005003a00305d800024
:101aec00415d8000305e8800415e88003400370024
:101afc00305e8000415e8000305d8800415d880072
:101b0c002f003700b4cbbf000000fb004300de0009
:101b1c00610060000004e00029003200305d8000ac
:101b2c00415d80000041eb00524f98000200200004
:101b3c00032724001bfb07000000e00001003d0010
:101b4c000200370010c0b300504f98005e48900060
:101b5c000004a2000004e00015003a00305d800093
:101b6c00415d80000041eb00424f980002002000d4
:101b7c006331240009fb07000000e0000100340081
:101b8c000200370010c0b300404f98004e48900040
:101b9c000004a2000004e00005003a00305d800063
:101bac00415d8000305e8800415e88000400370093
:101bbc00305e8000415e8000305d8800415d8800b1
:101bcc00c1c420009140780031479800d2c4200055
:101bdc0012417800224798004eccbf001047980065
:101bec004fccbf00004f7800be409000f0c2b30055
:101bfc0080cf500072003600be40900090c3b300fe
:101c0c0080cf50006e003e00ae409000f0c2b3009a
:101c1c0080cf50006a003600ae40900090c3b300f5
:101c2c0080cf500066003e009e409000f0c2b30092
:101c3c0080cf5000620036009e40900090c3b300ed
:101c4c0080cf50005e003e00f0c2b3009e4f1000eb
:101c5c005b00360090c3b3009e4f100058003e004e
:101c6c002e4090008080fb00400620000088b900c8
:101c7c00000178003e4090008080fb0000fd2f00aa
:101c8c0080804000803e20000088b90000014100a7
:101c9c001e4090000080fb006a00b90080004100eb
:101cac001e80fb008080400000b32e0000804000ae
:101cbc00200798002e009000cf80de00f7fa070076
:101ccc00d2cc2c00c3dc230072fb0700505d8800d3
:101cdc00615d8800505d8000615d80000041eb001b
:101cec00324f98006011b800aefa07000000e00017
:101cfc0001003d000200370010c0b300304f9800c7
:101d0c003e4890000004a2000004e00021003a00cc
:101d1c00505d8000615d80000041eb00224f980017
:101d2c0002002000031f24009cfa07000000e000c2
:101d3c00010034000200370010c0b300204f98009f
:101d4c002e4890000004a2000004e00011003a00ac
:101d5c00505d8000615d80000200200003002400c3
:101d6c008efa07000000e000010035000400370087
:101d7c000000200001002400505d8800615d880097
:101d8c00505d8000615d8000505e8800615e88005f
:101d9c0004003700505e8000615e8000505d88005a
:101dac00615d8800505d8000615d80000200200054
:101dbc0003002400d9f907007cfa0700a05e880014
:101dcc0001c5200091407800314798003e409000ba
:101ddc000004e0001d003200be409000f0c5b300ce
:101dec0080cf500019003e003e4090000000fb00e8
:101dfc00cf80de00a9fa0700300798004107980051
:101e0c003e4090000004e00007003d00020020006e
:101e1c00033824003e009000ce009000c0f907006b
:101e2c0030079800410798003e009000ce009000cb
:101e3c00705d8800815d8800705d8000815d800030
:101e4c00705e8800815e880004003700705e800040
:101e5c00815e8000705d8800815d880051ccbf0080
:101e6c000004e0000300350051ccbf00b2ebb7001a
:101e7c000500370051ccbf00804078000040eb00db
:101e8c0000c05000b2ebb70052ccbf000004e00021
:101e9c000300350052ccbf00b3ebb7000500370090
:101eac0052ccbf00804078000040eb0000c05000d6
:101ebc00b3ebb7000080fa00000006000000fa0047
:101ecc007cc8bf00614060000080fb0061006000c6
:101edc004701dd00817f8000f0f72f00008060005b
:101eec0002007000807f880068c8bf0061406000fd
:101efc000080fb00610060004601dd00817f8000f6
:101f0c00f0fb2f000080600002007000807f8800d2
:101f1c0069c8bf00614060000080fb006100600088
:101f2c004501dd00817f8000f0fd2f000080600006
:101f3c0002007000807f88006ac8bf0061406000aa
:101f4c000080fb00610060004401dd00817f8000a7
:101f5c00f0fe2f000080600002007000807f88007f
:101f6c006dc8bf00614060000080fb006100600034
:101f7c004301dd00817f800070ff2f000080600036
:101f8c0002007000807f88006cc8bf006140600058
:101f9c000080fb00610060004201dd00817f800059
:101fac00b0ff2f000080600002007000807f88006e
:101fbc006ec8bf00614060000080fb0061006000e3
:101fcc0000014000817f8000d0ff2f000080600066
:101fdc0002007000807f88006fc8bf006140600005
:101fec000080fb0061016000817f8000e0ff2f001a
:101ffc000080600002007000807f8800807f80007d
:10200c004700de0061406000e3ebb700e3cbbf00ac
:10201c000080fb000000400080407800807f800042
:10202c004600de006140600000c07000e3ebb700ca
:10203c00e3cbbf000080fb00000040008040780034
:10204c00807f80004500de006140600000c07000b1
:10205c00e3ebb700e3cbbf000080fb0000004000c7
:10206c0080407800807f80004400de00614060008a
:10207c0000c07000e3ebb700e3cbbf000080fb00b7
:10208c000000400080407800807f80004300de002c
:10209c006140600000c07000e3ebb700e3cbbf0011
:1020ac000080fb000000400080407800807f8000b2
:1020bc004200de006140600000c07000e3ebb7003e
:1020cc00e3cbbf000080fb000000400080407800a4
:1020dc00807f80000000d1006140600000c0700073
:1020ec00e3ebb700e3cbbf000080fb000000400037
:1020fc0080407800807f80006140600000c07000ec
:10210c00e3ebb7000080fa00000006000600fa00be
:10211c000040eb00404798000000eb0010079800cf
:10212c000000eb00000f7800a0578000b157800032
:10213c00020020000312240056fa07009bf9070046
:10214c00000f78001e00780032c4b30011c0b30039
:10215c00db020700005880001158800002002000ac
:10216c00031224004bfa070090f90700000f7800c7
:10217c001e00780032c4b30021c0b300d0020700a7
:10218c008057800091578000020020000312240029
:10219c0040fa070085f90700000f78001e00780050
:1021ac0032c4b30031c0b300c5020700d05b80005d
:1021bc00e15b8000020020000312240035fa0700c6
:1021cc007af90700000f78001e00780032c4b300c3
:1021dc0041c0b300ba020700f05b8000015c8000d4
:1021ec0002002000031224002afa07006ff90700ee
:1021fc00000f78001e00780032c4b30051c0b30049
:10220c00af020700105c8000215c800002002000ff
:10221c00031224001ffa070064f90700000f78006e
:10222c001e00780032c4b30061c0b300a4020700e2
:10223c0022ff0700c0c3b30057ecb70050c5b30072
:10224c0058ecb70000c3b30059ecb70030c4b3006e
:10225c005aecb700e3cbbf0073ecb70000c3b3007c
:10226c0074ecb70000c3b30075ecb70040588000a5
:10227c00515880004df9070010ebb70010cbbf0090
:10228c0076ecb7000040eb00404798000c0037009c
:10229c004e4090008080fb0070c520000080400004
:1022ac00104078008080fb001e0090000100680048
:1022bc00100798004e4090000040e80040479800fe
:1022cc004e409000ff4f5000f1ff36009e009000f2
:1022dc00000f2000008060004400de000043b000ce
:1022ec0077ecb7001e0090006f4060000043b00018
:1022fc0078ecb700e0c3b30079ecb7000040eb001a
:10230c00404798000e0037004e4090008080fb0044
:10231c0070c5200000804000104078000080fb0059
:10232c00a011880033c2bf00614060000004e000cf
:10233c00fcff32004e4090000040e80040479800ff
:10234c00ce40900020c2b30080cf5000eeff36008c
:10235c000080fa00000006000600fa000040eb00c6
:10236c00404798000000eb00100798000000eb00bd
:10237c00000f7800b05c8000c15c8000020020007f
:10238c0003122400c3f9070008f90700000f7800b6
:10239c001e00780022c5b30011c0b300480207002c
:1023ac00d05c8000e15c800002002000031224005d
:1023bc00b8f90700fdf80700000f78001e00780040
:1023cc0022c5b30021c0b3003d020700f05c8000c1
:1023dc00015d80000200200003122400adf907000b
:1023ec00f2f80700000f78001e00780022c5b30039
:1023fc0031c0b30032020700105d8000215d800007
:10240c000200200003122400a2f90700e7f80700dd
:10241c00000f78001e00780022c5b30041c0b30045
:10242c0027020700305d8000415d80000200200023
:10243c000312240097f90700dcf80700000f78005e
:10244c001e00780022c5b30051c0b3001c02070067
:10245c00505d8000615d80000200200003122400aa
:10246c008cf90700d1f80700000f78001e007800e7
:10247c0022c5b30061c0b30011020700c0c3b30092
:10248c0057ecb70050c5b30058ecb70000c3b3000d
:10249c0059ecb70020c5b3005aecb700705d800052
:1024ac00815d8000e2f8070073ecb700b2cbbf008f
:1024bc0074ecb700b3cbbf0075ecb700b4cbbf0066
:1024cc0076ecb7000040eb00404798000c0037005a
:1024dc004e4090008080fb0070c5200000804000c2
:1024ec00104078008080fb001e0090000100680006
:1024fc00100798004e4090000040e80040479800bc
:10250c004e409000ff4f5000f1ff36009e009000af
:10251c00000f2000008060004400de000043b0008b
:10252c0077ecb7001e0090006f4060000043b000d5
:10253c0078ecb700e0c3b30079ecb7000040eb00d7
:10254c00404798000e0037004e4090008080fb0002
:10255c0070c5200000804000104078000080fb0017
:10256c00a011880033c2bf00614060000004e0008d
:10257c00fcff32004e4090000040e80040479800bd
:10258c00ce40900020c2b30080cf5000eeff36004a
:10259c000080fa00000006000600fa000000eb00c4
:1025ac00200798000040eb00304798000040eb00fb
:1025bc00204798000040eb00104798000040eb00cb
:1025cc00004f780038ccbf003047980039ccbf00a2
:1025dc00204798003accbf00104798003bccbf0076
:1025ec00004f7800be409000f0c2b30080cf500086
:1025fc0037003600be40900090c3b30080cf50002f
:10260c0033003e00ae409000f0c2b30080cf5000cb
:10261c002f003600ae40900090c3b30080cf500026
:10262c002b003e009e409000f0c2b30080cf5000c3
:10263c00270036009e40900090c3b30080cf50001e
:10264c0023003e00f0c2b3009e4f10002000360065
:10265c0090c3b3009e4f10001d003e002e40900012
:10266c008080fb00400620000088b9000001780043
:10267c003e4090008080fb0000fd2f0080804000d9
:10268c00803e20000088b900000141001e409000ef
:10269c000080fb006a00b900800041001e80fb0036
:1026ac008080400000b32e0000804000200798007e
:1026bc002e009000cf80de0078f80700d2cc2c00e2
:1026cc00c3dc2300f3f80700d05b8800e15b8800d3
:1026dc003cccbf00304798003dccbf002047980051
:1026ec003eccbf00104798003fccbf00004f780095
:1026fc00be409000f0c2b30080cf500037003600cf
:10270c00be40900090c3b30080cf500033003e0019
:10271c00ae409000f0c2b30080cf50002f003600c6
:10272c00ae40900090c3b30080cf50002b003e0011
:10273c009e409000f0c2b30080cf500027003600be
:10274c009e40900090c3b30080cf500023003e0009
:10275c00f0c2b3009e4f10002000360090c3b300af
:10276c009e4f10001d003e002e4090008080fb000c
:10277c00400620000088b900000178003e4090001f
:10278c008080fb0000fd2f0080804000803e2000f8
:10279c000088b900000141001e4090000080fb0041
:1027ac006a00b900800041001e80fb008080400060
:1027bc0000b32e0000804000200798002e009000ef
:1027cc00cf80de0035f80700d2cc2c00c3dc230010
:1027dc00b0f80700f05b8800015c880040ccbf00bb
:1027ec003047980041ccbf002047980042ccbf0036
:1027fc001047980043ccbf00004f7800be409000bb
:10280c00f0c2b30080cf500037003600be409000bd
:10281c0090c3b30080cf500033003e00ae40900018
:10282c00f0c2b30080cf50002f003600ae409000b5
:10283c0090c3b30080cf50002b003e009e40900010
:10284c00f0c2b30080cf5000270036009e409000ad
:10285c0090c3b30080cf500023003e00f0c2b30001
:10286c009e4f10002000360090c3b3009e4f100006
:10287c001d003e002e4090008080fb004006200092
:10288c000088b900000178003e4090008080fb0079
:10289c0000fd2f0080804000803e20000088b900a1
:1028ac00000141001e4090000080fb006a00b9004e
:1028bc00800041001e80fb008080400000b32e0091
:1028cc0000804000200798002e009000cf80de0092
:1028dc00f2f70700d2cc2c00c3dc23006df8070004
:1028ec00105c8800215c880044ccbf003047980005
:1028fc0045ccbf002047980046ccbf00104798003d
:10290c0047ccbf00004f7800be409000f0c2b3002f
:10291c0080cf500037003600be40900090c3b3000b
:10292c0080cf500033003e00ae409000f0c2b300a8
:10293c0080cf50002f003600ae40900090c3b30003
:10294c0080cf50002b003e009e409000f0c2b300a0
:10295c0080cf5000270036009e40900090c3b300fb
:10296c0080cf500023003e00f0c2b3009e4f1000f9
:10297c002000360090c3b3009e4f10001d003e0097
:10298c002e4090008080fb00400620000088b9009b
:10299c00000178003e4090008080fb0000fd2f007d
:1029ac0080804000803e20000088b900000141007a
:1029bc001e4090000080fb006a00b90080004100be
:1029cc001e80fb008080400000b32e000080400081
:1029dc00200798002e009000cf80de00aff7070094
:1029ec00d2cc2c00c3dc23002af80700305c880012
:1029fc00415c880048ccbf003047980049ccbf00f0
:102a0c00204798004accbf00104798004bccbf0021
:102a1c00004f7800be409000f0c2b30080cf500051
:102a2c0037003600be40900090c3b30080cf5000fa
:102a3c0033003e00ae409000f0c2b30080cf500097
:102a4c002f003600ae40900090c3b30080cf5000f2
:102a5c002b003e009e409000f0c2b30080cf50008f
:102a6c00270036009e40900090c3b30080cf5000ea
:102a7c0023003e00f0c2b3009e4f10002000360031
:102a8c0090c3b3009e4f10001d003e002e409000de
:102a9c008080fb00400620000088b900000178000f
:102aac003e4090008080fb0000fd2f0080804000a5
:102abc00803e20000088b900000141001e409000bb
:102acc000080fb006a00b900800041001e80fb0002
:102adc008080400000b32e0000804000200798004a
:102aec002e009000cf80de006cf70700d2cc2c00bb
:102afc00c3dc2300e7f70700505c8800615c8800aa
:102b0c004cccbf00304798004dccbf0020479800fc
:102b1c004eccbf00104798004fccbf00004f780040
:102b2c00be409000f0c2b30080cf5000370036009a
:102b3c00be40900090c3b30080cf500033003e00e5
:102b4c00ae409000f0c2b30080cf50002f00360092
:102b5c00ae40900090c3b30080cf50002b003e00dd
:102b6c009e409000f0c2b30080cf5000270036008a
:102b7c009e40900090c3b30080cf500023003e00d5
:102b8c00f0c2b3009e4f10002000360090c3b3007b
:102b9c009e4f10001d003e002e4090008080fb00d8
:102bac00400620000088b900000178003e409000eb
:102bbc008080fb0000fd2f0080804000803e2000c4
:102bcc000088b900000141001e4090000080fb000d
:102bdc006a00b900800041001e80fb00808040002c
:102bec0000b32e0000804000200798002e009000bb
:102bfc00cf80de0029f70700d2cc2c00c3dc2300e9
:102c0c00a4f70700705c8800815c880050ccbf0082
:102c1c0075e8b70075c8bf008000fb0000082000f5
:102c2c00008060004780de0068e8b70075c8bf0010
:102c3c008000fb0000042000008060004680de0065
:102c4c0069e8b70075c8bf008000fb0000022000d7
:102c5c00008060004580de006ae8b70075c8bf00e0
:102c6c000000fb00700060004480de006be8b700e1
:102c7c0051ccbf0076e8b70076c8bf008000fb00df
:102c8c0000082000008060004780de0073e8b70079
:102c9c0076c8bf008000fb000004200000806000ac
:102cac004680de0074e8b70052ccbf0077e8b7006e
:102cbc0053ccbf0078e8b7000080fa000000060093
:102ccc001200fa0040079800214f9800324f9800ec
:102cdc004e009000300798003e009000010020004c
:102cec0002712200811f7800110009004288d8006f
:102cfc00cf007800404798003e0090006101b8007a
:102d0c004e4090008080fb00007122000008b8004b
:102d1c000000510081805900823e2000811f780004
:102d2c00110009004288d800cf0078003047980085
:102d3c003e0090006102b8004e4090008080fb0085
:102d4c00007122000009b8003e4090008080fb001a
:102d5c00803e20000008b80002004000838048003c
:102d6c000000520081805a0042062000811f78002a
:102d7c00110009004288d800cf0078002047980045
:102d8c003e0090006102b8004e4090008080fb0035
:102d9c00007122000009b8003e4090008080fb00ca
:102dac00803e20000008b8000201400083814800ea
:102dbc002e4090008080fb00400620000008b800e8
:102dcc0002004000838048000000520081805a00bd
:102ddc00a2002000811f7800110009004288d80051
:102dec00cf007800104798003e009000a200200011
:102dfc00110009000280d8008000fd00004f78000f
:102e0c003e4890000080fb00000f9800300420002a
:102e1c008e089000808f50000500320020052000a5
:102e2c008e089000808f500069003200cf00370070
:102e3c002e4890000080fb00700798007e009000e8
:102e4c00e30f50002e003200fe009000e38f500084
:102e5c0007003c007e009000e10f50000e00320095
:102e6c00fe009000e28f500018003200bf003700c7
:102e7c007e009000e50f50003b003200fe009000f9
:102e8c00e58f50002b0035007e009000e60f5000bf
:102e9c0042003200b50037003e4090000043b000c5
:102eac005becb7002e4090000043b0005cecb70028
:102ebc001e4090000043b0005decb7001e4078004f
:102ecc000043b0005eecb700a80037003e40900015
:102edc000043b0005fecb7002e4090000043b00000
:102eec0060ecb7001e4090000043b00061ecb700ee
:102efc001e4078000043b00062ecb7009b00370026
:102f0c003e4090000043b00063ecb7002e409000b0
:102f1c000043b00064ecb7001e4090000043b000ca
:102f2c0065ecb7001e4078000043b00066ecb700bb
:102f3c008e0037003e4090000043b00067ecb700b5
:102f4c002e4090000043b00068ecb7001e4090008b
:102f5c000043b00069ecb7001e4078000043b0009d
:102f6c006aecb700810037003e4090000043b0008f
:102f7c006becb7002e4090000043b0006cecb70037
:102f8c001e4090000043b0006decb7001e4078006e
:102f9c000043b0006eecb700740037003e40900068
:102fac000043b0006fecb7002e4090000043b0001f
:102fbc0070ecb7001e4090000043b00071ecb700fd
:102fcc001e4078000043b00072ecb7006700370079
:102fdc002e4890000080fb0060079800ee009000e7
:102fec00e38f50002e0032006e009000e30f500073
:102ffc0007003c00ee009000e18f50000e00320004
:10300c006e009000e20f500018003200570037009d
:10301c00ee009000e58f50003b0032006e009000f7
:10302c00e50f50002b003500ee009000e68f5000ad
:10303c00420032004d0037003e4090000043b0008b
:10304c005becb7002e4090000043b0005cecb70086
:10305c001e4090000043b0005decb7001e407800ad
:10306c000043b0005eecb700400037003e409000db
:10307c000043b0005fecb7002e4090000043b0005e
:10308c0060ecb7001e4090000043b00061ecb7004c
:10309c001e4078000043b00062ecb70033003700ec
:1030ac003e4090000043b00063ecb7002e4090000f
:1030bc000043b00064ecb7001e4090000043b00029
:1030cc0065ecb7001e4078000043b00066ecb7001a
:1030dc00260037003e4090000043b00067ecb7007c
:1030ec002e4090000043b00068ecb7001e409000ea
:1030fc000043b00069ecb7001e4078000043b000fc
:10310c006aecb700190037003e4090000043b00055
:10311c006becb7002e4090000043b0006cecb70095
:10312c001e4090000043b0006decb7001e407800cc
:10313c000043b0006eecb7000c0037003e4090002e
:10314c000043b0006fecb7002e4090000043b0007d
:10315c0070ecb7001e4090000043b00071ecb7005b
:10316c001e4078000043b00072ecb7000080fa00fb
:10317c0000000600801f78000000fa008680a9007d
:10318c0010c0b3007be8b70040062000a0408800c8
:10319c008220a9000080fa004f0078000040060051
:1031ac003600f800809fbe00829fbe000000fa002f
:1031bc001ac8bf000004e0000b003a000243800074
:1031cc0013438000b0428000c142800002004000e6
:1031dc00838048000043880011438800d04280005f
:1031ec000000e800d0428800d14280000008200096
:1031fc00808f50001a00340000438000114380007f
:10320c004909dd004700de0000007100c788de00c0
:10321c00e04288000000eb00d04288006000b8005b
:10322c000043880011438800e1428000f001240033
:10323c00808f500002003c0000022400e042880015
:10324c00e242800000002c00f1ff2100811f780079
:10325c00110009004208d800cf007800f042880025
:10326c008460a9000080fa004f01be004f00be0030
:10327c003600f90000400600809fbe000000fa00f6
:10328c00a05880000000e800a0588800b0588000ca
:10329c000000e800b0588800c05880000000e8002a
:1032ac00c0588800d05880000000e800d058880032
:1032bc001ac8bf000004e00004003a00e058800087
:1032cc000000e800e0588800020037000000eb0026
:1032dc00e0588800f05880000000e800f0588800a2
:1032ec00005980000000e80000598800a1588000b7
:1032fc00800c2000808f500002003600800c2000d3
:10330c00a0588800b1588000800c2000808f50009d
:10331c0002003600800c2000b0588800c158800094
:10332c00800c2000808f500002003600800c2000a2
:10333c00c0588800e158800080e42e00808f500037
:10334c000200360080e42e00e0588800f15880001e
:10335c0000a62e00808f50000200360000a62e0022
:10336c00f05888000159800040062000808f5000e2
:10337c0002003600400620000059880084e0a900b5
:10338c000080fa004f00be00004006003600f80036
:10339c00809fbe00829fbe00849fbe00869fbe00a1
:1033ac00889fbe001600fa006000b800100f98004d
:1033bc00210f98000000eb00000f98000000eb00bc
:1033cc00700798000000eb00600798000000eb000d
:1033dc00500798000000eb00400798000000eb003d
:1033ec00300798000000eb00200798000000eb006d
:1033fc00100798000000eb00000f780001678000b8
:10340c00c05d2000808f500004003e0001678000ea
:10341c00301f2000808f500002003e00803e2000b4
:10342c000067880021678000c05d2000808f5000fd
:10343c0004003e0021678000301f2000808f500068
:10344c0002003e00803e200020678800116780004b
:10345c00c05d2000808f500004003e00116780008a
:10346c00301f2000808f500002003e00803e200064
:10347c001067880041678000c05d2000808f50007d
:10348c0004003e0041678000301f2000808f5000f8
:10349c0002003e00803e200040678800516780009b
:1034ac00c05d2000808f500004003e0051678000fa
:1034bc00301f2000808f500002003e00803e200014
:1034cc0050678800111a8000c03f2000808f500088
:1034dc0003003600803e2000000f980011003700da
:1034ec00101a80006104b800006780006102b80007
:1034fc008800780004007800000bb80005c0b90003
:10350c00070178000001410009a0b9000001410049
:10351c0082037800823e200011000900423bd80053
:10352c00000f9800411a8000c03f2000808f50008f
:10353c0003003600803e2000700798001100370011
:10354c00401a80006104b800106780006102b80066
:10355c008800780004007800000bb80005c0b900a2
:10356c00070178000001410009a0b90000014100e9
:10357c0082037800823e200011000900423bd800f3
:10358c0070079800e01a800060079800e11a80002c
:10359c00c03f2000808f500003003600803e20008a
:1035ac006007980011003700e01a80006104b80031
:1035bc00106780006102b800880078000400780071
:1035cc00000bb80005c0b9000701780000014100ec
:1035dc0009a0b9000001410082037800823e20005e
:1035ec0011000900423bd80060079800f01a8000d7
:1035fc0050079800f11a8000c03f2000808f5000c7
:10360c0003003600803e2000500798001100370060
:10361c00f01a80006104b800106780006102b800e5
:10362c008800780004007800000bb80005c0b900d1
:10363c00070178000001410009a0b9000001410018
:10364c0082037800823e200011000900423bd80022
:10365c0050079800001a8000100798009e009000f8
:10366c00c03f2000808f500002003400803e2000bc
:10367c00100798001e0090006104b90020678000bc
:10368c006102b8008800780004007800000bb800d4
:10369c0005c0b900070178000001410009a0b9007c
:1036ac000001410082037800823e200011000900d5
:1036bc00423bd80040079800211a8000c03f2000f0
:1036cc00808f500003003600803e2000201a8800b6
:1036dc0011003700201a80006104b8004067800098
:1036ec006102b8008800780004007800000bb80074
:1036fc0005c0b900070178000001410009a0b9001c
:10370c000001410082037800823e20001100090074
:10371c00423bd80030079800301a8000000f780028
:10372c00c03f20009e0f100002003400803e20009d
:10373c00000f78001e0078006104b900506780000b
:10374c006102b8008800780004007800000bb80013
:10375c0005c0b900070178000001410009a0b900bb
:10376c000001410082037800823e20001100090014
:10377c00423bd80020079800c05a80000000e000af
:10378c00c3003a0044cbbf000080fb008000400027
:10379c0040db2000008040008e089000010878007b
:1037ac0044cbbf000080fb008000400040df2000c5
:1037bc00008040007e0190000208780044cbbf00de
:1037cc000080fb008000400040e3200000804000af
:1037dc00ee0190000308780044cbbf000080fb0092
:1037ec008000400040e7200000804000de00900098
:1037fc000108780044cbbf000080fb008000400033
:10380c00c0ce2000008040004e01900002087800dd
:10381c0044cbbf000080fb008000400040eb200048
:10382c0000804000be0190000308780044cbbf002c
:10383c000080fb008000400040ef20000080400032
:10384c00ae0090000108780044cbbf000080fb0064
:10385c008000400040db2000008040001000780019
:10386c006101b900d05a8000e15a8000020040008a
:10387c0083804800d05a8800e15a880044cbbf00ae
:10388c000080fb008000400040df200000804000f2
:10389c00100078006101b900f05a8000015b8000d3
:1038ac000200400083804800f05a8800015b8800c9
:1038bc0044cbbf000080fb008000400040e32000b0
:1038cc0000804000100078006101b900105b80009e
:1038dc00215b80000200400083804800105b880060
:1038ec00215b880044cbbf000080fb0080004000bf
:1038fc0040e7200000804000100078006101b90012
:10390c00305b8000415b80000200400083804800f7
:10391c00305b8800415b880044cbbf000080fb001b
:10392c0080004000c0ce20000080400010007800d5
:10393c006101b900505b8000615b800002004000b7
:10394c0083804800505b8800615b880044cbbf00db
:10395c000080fb008000400040eb20000080400015
:10396c00100078006101b900705b8000815b800001
:10397c000200400083804800705b8800815b8800f7
:10398c0044cbbf000080fb008000400040ef2000d3
:10399c0000804000100078006101b900905b80004d
:1039ac00a15b80000200400083804800905b88008f
:1039bc00a15b880044cbbf00fe4f500010013600c5
:1039cc00d05a8000e15a80004b09dd004500de0032
:1039dc0000007100c588de00f0568800f05a8000a7
:1039ec00015b8000cb09dd004500de00008071002a
:1039fc00c588de0000578800105b8000215b8000ca
:103a0c004b09dd004500de0000007100c588de00ba
:103a1c0020578800305b8000415b8000cb09dd00c3
:103a2c004500de0000807100c588de00e05688008d
:103a3c00505b8000615b80004b09dd004500de00bf
:103a4c0000007100c588de0030578800705b800074
:103a5c00815b8000cb09dd004500de000080710039
:103a6c00c588de0050578800905b8000a15b800009
:103a7c004b09dd004500de0000007100c588de004a
:103a8c006057880010002000c05a8800dc00370006
:103a9c00c05a8000e10f5000d9003a00d25a800081
:103aac00e35a800044cbbf000080fb008000400044
:103abc0040db20000080400010007800cf80de004a
:103acc0000015100818159000e089000cf80de006a
:103adc000200400083804800d05a8800e15a8800d8
:103aec0044cbbf000080fb008000400040db200086
:103afc00008040008e09900003087800f25a800084
:103b0c00035b800044cbbf000080fb0080004000c2
:103b1c0040df20000080400010007800cf80de00e5
:103b2c0000015100818159007e009000cf80de00a1
:103b3c000200400083804800f05a8800015b880036
:103b4c0044cbbf000080fb008000400040df200021
:103b5c0000804000fe00900001087800125b80009d
:103b6c00235b800044cbbf000080fb008000400042
:103b7c0040e320000080400010007800cf80de0081
:103b8c0000015100818159006e009000cf80de0051
:103b9c000200400083804800105b8800215b880095
:103bac0044cbbf000080fb008000400040e32000bd
:103bbc00008040006e01900002087800325b8000ab
:103bcc00435b800044cbbf000080fb0080004000c2
:103bdc0040e720000080400010007800cf80de001d
:103bec0000015100818159005e009000cf80de0001
:103bfc000200400083804800305b8800415b8800f5
:103c0c0044cbbf000080fb008000400040e7200058
:103c1c0000804000de01900003087800525b8000b9
:103c2c00635b800044cbbf000080fb008000400041
:103c3c00c0ce20000080400010007800cf80de0055
:103c4c0000015100818159004e009000cf80de00b0
:103c5c000200400083804800505b8800615b880054
:103c6c0044cbbf000080fb0080004000c0ce200091
:103c7c0000804000ce00900001087800725b80004c
:103c8c00835b800044cbbf000080fb0080004000c1
:103c9c0040eb20000080400010007800cf80de0058
:103cac0000015100818159003e009000cf80de0060
:103cbc000200400083804800705b8800815b8800b4
:103ccc0044cbbf000080fb008000400040eb200094
:103cdc00008040003e01900002087800925b80005a
:103cec00a35b800044cbbf000080fb008000400041
:103cfc0040ef20000080400010007800cf80de00f4
:103d0c0000015100818159002e009000cf80de000f
:103d1c000200400083804800905b8800a15b880013
:103d2c0044cbbf000080fb008000400040ef20002f
:103d3c0000804000ae01900003087800d05a80004b
:103d4c00e15a80004b09dd004500de0000007100e7
:103d5c00c588de00f0568800f05a8000015b8000b8
:103d6c00cb09dd004500de0000807100c588de0057
:103d7c0000578800105b8000215b80004b09dd0040
:103d8c004500de0000007100c588de002057880069
:103d9c00305b8000415b8000cb09dd004500de001c
:103dac0000807100c588de00e0568800505b800002
:103dbc00615b80004b09dd004500de0000007100f6
:103dcc00c588de0030578800705b8000815b800006
:103ddc00cb09dd004500de0000807100c588de00e7
:103dec0050578800905b8000a15b80004b09dd0080
:103dfc004500de0000007100c588de0060578800b9
:103e0c0044cbbf000040e80044ebb70044cbbf00fc
:103e1c00fe4f50000400360010002000c05a8800ed
:103e2c000040eb0044ebb700e05680006104b800a2
:103e3c008002200001002000809fbe006033b8008b
:103e4c0084252000050020006011b8000800be0089
:103e5c00f10f0700e4875700100f9800210f98000e
:103e6c009e089000401d20000009b8001e0890001c
:103e7c006000b9000302780000024200ae08900016
:103e8c00401d20000088b900000242008401780027
:103e9c0002007800304188003141800080a324006a
:103eac00808f50000200340080a324003041880031
:103ebc00205780006104b800007721000100200029
:103ecc00809fbe006033b800843e200005002000b7
:103edc006011b8000800be00cf0f0700e487570040
:103eec001041880021418800f05680004500dd001b
:103efc0000408800005780004500dd00204088000d
:103f0c00305780004500dd0030408800605780004d
:103f1c004500dd0060408800314080009099210010
:103f2c000088b900c109dd004f00de00008071007f
:103f3c00cf88de00000178005140800060662600ca
:103f4c000088b900c109dd004f00de00008071005f
:103f5c00cf88de00000041004040880061408000b6
:103f6c00909921000088b9004109dd004f00de0066
:103f7c0000007100cf88de000001780081408000d5
:103f8c00606626000088b900c109dd004f00de0024
:103f9c0000807100cf88de00000041007040880076
:103fac004040800050408800704080008040880075
:103fbc00580907007905070091e0a9000080fa0074
:103fcc004f04be004f03be004f02be004f01be00a7
:103fdc004f00be003600f90000400600809fbe0076
:103fec000600fa000040eb00504798000040eb0040
:103ffc00404798000000eb00100798000000eb0011
:10400c00000f780032c2bf00624060000004e00084
:10401c00010032003222a900b01180004047980004
:10402c00ce409000b0c5b30080cf50000a003a00db
:10403c002bcbbf000004e00007003a0010c0b30017
:10404c0029ebb7000040eb002cebb70010c0b3001d
:10405c002bebb7003f00370029cbbf00e14f5000de
:10406c003c003a00ce409000d0c5b30080cf500049
:10407c0038003a00c1b220009140780020c2b30051
:10408c0080cf500033003a000040eb0050479800be
:10409c000a0037005e4090008080fb0040c3200087
:1040ac0000804000104078000080fb001e0f68006c
:1040bc005e4090000040e800504798005e40900041
:1040cc00ff4f5000f3ff360054ccbf008080fb0044
:1040dc0000fd2f00008040004400dd0080007800cf
:1040ec00000f2000008060001007980055ccbf0026
:1040fc008080fb0000fd2f0000804000ef0060007e
:10410c001e00900001004000100798001e00900057
:10411c009e0f500007003a0010c0b3002aebb70006
:10412c000040eb002bebb7000000eb00c058880000
:10413c00080037000040eb0029ebb7000040eb0013
:10414c002aebb7000040eb002bebb7000000eb00b4
:10415c00c05888002ccbbf008080fb0040c32000df
:10416c0000804000ce409000014878002ccbbf006e
:10417c000040e8002cebb700c1b220009140780061
:10418c0040c2b30080cf50000a0036000040eb0064
:10419c002cebb7000040eb0029ebb7000040eb0024
:1041ac002aebb7000040eb002bebb7000000eb0054
:1041bc00c058880087c0a9000080fa004f00be00dc
:1041cc00004006000000fa0087e0a9000080fa0019
:1041dc0000400600809fbe000600fa000040eb0085
:1041ec00504798000040eb00404798000000eb005f
:1041fc00100798000000eb00000f780022c2bf00ef
:10420c00624060000004e000010032002222a9009c
:10421c003011800040479800ce409000b0c5b300ec
:10422c0080cf50000a003a0030cbbf000004e00001
:10423c0007003a0010c0b3002eebb7000040eb00b3
:10424c0031ebb70010c0b30030ebb7003d003700c6
:10425c002ecbbf00e14f50003a003a00ce40900008
:10426c00d0c5b30080cf500036003a0031cbbf0030
:10427c00e94f500033003a000040eb0050479800e3
:10428c000a0037005e4090008080fb00a0c920002f
:10429c0000804000104078000080fb001e0f68007a
:1042ac005e4090000040e800504798005e4090004f
:1042bc00e64f5000f3ff3600a1ccbf008080fb001e
:1042cc0000fd2f00008040004400dd0080007800dd
:1042dc00000f20000080600010079800a2ccbf00e7
:1042ec008080fb0000fd2f0000804000ef0060008c
:1042fc001e00900001004000100798001e00900066
:10430c009e0f500007003a0010c0b3002febb7000f
:10431c000040eb0030ebb7000000eb00b058880019
:10432c00080037000040eb002eebb7000040eb001c
:10433c002febb7000040eb0030ebb7000000eb00b8
:10434c00b058880031cbbf008080fb00a0c9200092
:10435c0000804000ce4090000148780031cbbf0077
:10436c000040e80031ebb70031cbbf00ea4f500002
:10437c000a0036000040eb0031ebb7000040eb00c8
:10438c002eebb7000040eb002febb7000040eb002a
:10439c0030ebb7000000eb00b05888008560a90036
:1043ac000080fa004f00be00004006000000fa003a
:1043bc008580a9000080fa00004006000c00fa007d
:1043cc000000eb00200798000040eb0030479800fd
:1043dc000040eb00204798000040eb00104798008d
:1043ec000040eb00004f7800d6cfbf00e54f5000e7
:1043fc00cd003a0060fd2000eb020700decfbf00cd
:10440c0030479800f1fd200091407800214798003a
:10441c0002fe20001241780012479800e1cfbf0045
:10442c00004f7800be409000f0c2b30080cf500027
:10443c005d003600be40900090c3b30080cf5000aa
:10444c0059003e00ae409000f0c2b30080cf500047
:10445c0055003600ae40900090c3b30080cf5000a2
:10446c0051003e009e409000f0c2b30080cf50003f
:10447c004d0036009e40900090c3b30080cf50009a
:10448c0049003e00f0c2b3009e4f100046003600bb
:10449c0090c3b3009e4f100043003e002e4090008e
:1044ac008080fb00400620000088b90000017800e5
:1044bc003e4090008080fb0000fd2f00808040007b
:1044cc00803e20000088b900000141001e40900091
:1044dc000080fb006a00b900800041001e80fb00d8
:1044ec008080400000b32e00008040002007980020
:1044fc002e009000cf80de00e8f00700d2cc2c001c
:10450c00c3dc230063f10700a8f0070010608800eb
:10451c0010608000cf80de00e0f007008041eb00ef
:10452c00334f98006011b8009ef007000000e000c7
:10453c0001003d000200370010c0b300304f98005e
:10454c003e4890000004a2000004e00014003a0071
:10455c0010608000cf80de00d0f007000041eb003f
:10456c00224f980002002000032f24008bf007003c
:10457c000000e000010034000200370013c0b3005b
:10458c00234f98002e4890000004a2000004e00085
:10459c0003003a00106080002060880002003700a1
:1045ac002060800010608800d07e8000e17e80005a
:1045bc0030079800410798002000200001002000df
:1045cc003e019000ce019000800f5100818f590068
:1045dc002400320020002000010020003e01900049
:1045ec00ce019000800f5100818f590008003e00d1
:1045fc0010002000010020003e019000ce01900030
:10460c00800f5100818f59001000320026003700b6
:10461c0030002000010020003e019000ce019000ef
:10462c00800f5100818f590014003200400020008f
:10463c00010020003e019000ce019000800f51003f
:10464c00818f590013003200170037001060800072
:10465c00cf80de0091f00700a0608800b160880078
:10466c001100370010608000cf80de008bf0070057
:10467c00c0608800d16088000b003700106080009b
:10468c00cf80de0085f00700e0608800f1608800d4
:10469c000500370010608000cf80de007ff007003f
:1046ac00006188001161880031608000106080001a
:1046bc000080400030608800406080000000e8000e
:1046cc004060880040608000f30f50000900340007
:1046dc003060800042608000110009000200d800a8
:1046ec00106088000000eb00306088000000eb00d8
:1046fc00406088001060800050608800506080002e
:10470c004300dd004500dd006060880010002000e3
:10471c00006088000000eb009060880060c0b3006f
:10472c00d6efb70006003700a0588000e50f500008
:10473c0003003600040007000000eb00a0588800be
:10474c000080fa00000006000400fa000040eb00b4
:10475c00204798000000eb00000f780020588000e4
:10476c00315880000200200003122400c9f0070019
:10477c000ef00700000f78001e00780032c4b30062
:10478c0011c0b30034000700f0408000000f780027
:10479c001e00780032c4b30021c0b3002e00070005
:1047ac0010c0b300c5efb70040c0b300c6efb700f0
:1047bc000040eb00c7efb70011cbbf000080fb003f
:1047cc0001002000407e8800517e88000040eb00f4
:1047dc00204798000e0037002e4090008081fb008f
:1047ec002e4090008080fb00a0c82000008040007c
:1047fc0010417800e880410040fc2000008040001f
:10480c00024878002e4090000040e80020479800b5
:10481c002e409000e74f5000efff360080c0b300f1
:10482c00d4efb7001ac8bf000004e00008003a003b
:10483c0030c6bf00684060000004e00002003a008f
:10484c0040fc20009f0007000000eb000060880087
:10485c000080fa00000006000e00fa0040079800e5
:10486c00214f9800324f98004e009000300798006e
:10487c003e0090000100200002712200811f780090
:10488c00110009004288d800cf00780040479800fa
:10489c003e0090006101b8004e4090008080fb000b
:1048ac00007122000008b8000000510081805900fe
:1048bc00823e2000811f7800110009004288d80038
:1048cc00cf007800304798003e0090006102b8009d
:1048dc004e4090008080fb00007122000009b8005f
:1048ec003e4090008080fb00803e20000008b80015
:1048fc0002004000838048000000520081805a0072
:10490c0042062000811f7800110009004288d8005f
:10491c00cf007800204798003e0090006102b8005c
:10492c004e4090008080fb00007122000009b8000e
:10493c003e4090008080fb00803e20000008b800c4
:10494c0002014000838148002e4090008080fb00d3
:10495c00400620000008b800020040008380480098
:10496c000000520081805a00a2002000811f7800b4
:10497c00110009004288d800cf0078001047980039
:10498c003e009000a2002000110009000280d80017
:10499c008000fd00004f78003e4890008080fb00b6
:1049ac0030042000808f50000100320023003700bb
:1049bc002e4890000080fb00600798006e0090006d
:1049cc00e10f5000040032006e009000e20f500026
:1049dc000e003200190037003e4090000043b0003a
:1049ec008aecb7002e4090000043b0008becb7006f
:1049fc001e4090000043b0008cecb7001e407800c5
:104a0c000043b0008decb7000c0037003e40900026
:104a1c000043b0008eecb7002e4090000043b00075
:104a2c008fecb7001e4090000043b00090ecb70034
:104a3c001e4078000043b00091ecb7000080fa00f3
:104a4c00000006000000fa0010c0b300c5efb7006c
:104a5c0040c0b300c6efb7000040eb00c7efb70093
:104a6c0011cbbf000080fb0001002000407e8800bd
:104a7c00517e88000040eb00ccefb7000040eb000b
:104a8c00cdefb70030c0b300ceefb70010c5b30008
:104a9c00cfefb7000040eb00d0efb7000040eb00c9
:104aac00d1efb7000040eb00d2efb7000040eb00b5
:104abc00d3efb70080c0b300d4efb7000080fa008a
:104acc00000006001e00fa0060079800dd42a800f6
:104adc006000b80040079800510798006000b800cb
:104aec0020079800310798006000b800008fbe00c6
:104afc006e00900020409000e34f50006d003a0093
:104b0c006e009000b0009000200090000200200089
:104b1c00c3ff2100000278008102780002007800b7
:104b2c008300780000016200018062006102b8001d
:104b3c0074079800050f98007e0090008e08900076
:104b4c00c000dd000000200070079800010f9800e5
:104b5c007e0090008e0890006112b80074079800d7
:104b6c00050f98007e0190008e09900002007000e5
:104b7c00838070004008de00010020004007980090
:104b8c00510798004e009000de009000630040003a
:104b9c00e080480040079800510798006e00900094
:104bac00b00090002000900002fc2f003300200089
:104bbc0000027800810278000200780083007800ff
:104bcc0000016200018062006102b800140f9800bd
:104bdc00250f98001e089000ae089000c000dd0064
:104bec0000002000100f9800210f98001e08900064
:104bfc00ae0890006112b800140f9800250f9800b1
:104c0c001e099000ae0990000200700083807000b5
:104c1c00ca09dd004600de0000807100c608de0017
:104c2c0020079800310798006e009000b0009000ab
:104c3c0020009000f2032000030020000002780006
:104c4c008102780002007800830078000001620085
:104c5c00018062006102b800340f9800450f980083
:104c6c003e089000ce089000c000dd00000020003f
:104c7c00300f9800410f98003e089000ce0890002d
:104c8c006112b800340f9800450f98003e0990004f
:104c9c00ce0990000200700083807000ca09dd000c
:104cac00c600de00818071004a00dd00008fbe006e
:104cbc00230037006e009000b000900020009000a0
:104ccc00f27f2000030020000002780081027800af
:104cdc00020078008300780000016200018062000d
:104cec006102b800540f9800650f98005e089000a0
:104cfc00ee089000c000dd0000002000500f98006e
:104d0c00610f98005e089000ee0890006112b800e8
:104d1c00540f9800650f98005e099000ee09900002
:104d2c000200700083807000c209dd00ce00de003e
:104d3c00818071004200dd00400798005107980007
:104d4c006e00900010409000e24f500029003a0095
:104d5c006e00900020409000e34f500005003a0098
:104d6c0000202000010020001e1f70001e97700004
:104d7c00050037004e009000de0090000010a000ef
:104d8c0040079800510798006e009000304090004a
:104d9c000080fb004e019000c400dd0000b8220032
:104dac0000804000020878006e00900030409000b7
:104dbc000080fb002e0190004400dd008080e800a4
:104dcc0000b8220000804000020878006e009000bd
:104ddc00304090000080fb001e0178004400dd0094
:104dec00e400400000b82200008040000208780077
:104dfc00690037006e009000005090000080fb00ae
:104e0c00010020006f0160006000b800030020006a
:104e1c0002007000838070001e0f40005e974800f7
:104e2c006e009000304090000080fb004e0190001e
:104e3c00c400dd0000b822000080400002087800a9
:104e4c006e009000304090000080fb002e0190001e
:104e5c004400dd008080e80000b8220000804000a3
:104e6c00020878006e009000304090000080fb003b
:104e7c001e0178004400dd00e400400000b8220070
:104e8c0000804000020878006e00900030409000d6
:104e9c008081fb006e009000104890000080fb00a9
:104eac00c800dd006e009000004890000080fb0000
:104ebc0000804000000178004418dd00e60040004e
:104ecc0000b8220000804000020878006e009000bc
:104edc00304090008081fb006e00900030489000c4
:104eec000080fb00c800dd006e00900020489000a0
:104efc000080fb0000804000000178004418dd00b9
:104f0c00e800400000b82200008040000208780051
:104f1c006e009000304090008081fb006e0090008d
:104f2c00504890000080fb00c800dd006e0090002f
:104f3c00404890000080fb00008040000001780099
:104f4c004418dd00ea00400000b822000080400058
:104f5c00020878006e009000304090008081fb00c9
:104f6c006e009000704890000080fb00c800dd00cf
:104f7c006e009000604890000080fb0000804000b4
:104f8c00000178004418dd00ec00400000b822005d
:104f9c0000804000020878003066a800dd42a900bd
:104fac000080fa00000006001200fa00400798008a
:104fbc000000eb00300798000000eb002007980081
:104fcc006000b800008fbe004e0090003040900092
:104fdc000080fb00c400dd0000b82200008040000f
:104fec001000780061006000300798003e009000cf
:104ffc000000e0001b003a004e0090003040900092
:10500c000080fb00c400dd0000b8220000804000de
:10501c0090007800c0ff2100008060004200de009c
:10502c00010020004e0190002001980031019800f1
:10503c00ce00900040c0b300a04098004e009000fd
:10504c00304090000080fb00c400dd0000b822005e
:10505c00008040001000780062006000200798007b
:10506c007e0037004e009000304090000080fb0026
:10507c00c400dd0000b82200008040001000780061
:10508c0001002000c2ff2100030020000002780074
:10509c008102780002007800830078000001620031
:1050ac00018062006102b8005407980065079800ff
:1050bc005e009000ee009000c000dd0000002000bb
:1050cc0050079800610798005e029000ee02900075
:1050dc00048fbe006110b80050079800610798005b
:1050ec005e019000ee0190001e1f71001e97710072
:1050fc001e00be00c000dd00000020004e0190002c
:10510c0020019800310198004e0090003040900032
:10511c000080fb004400dd008080e80000b8220025
:10512c00008040001000780001002000f2ff2000f9
:10513c000300200000027800810278000200780051
:10514c008300780000016200018062006102b800f7
:10515c0074079800050f98007e0090008e08900050
:10516c00c000dd000000200070079800010f9800bf
:10517c007e0290008e0a9000048fbe006110b80071
:10518c0070079800010f98007e0190008e09900026
:10519c001e1f71001e9771004e00900020019000a0
:1051ac00b00190001e00be00460add00ca00de0001
:1051bc00810072004600dd00020040008380480040
:1051cc004e01900020019800310198004e00900093
:1051dc00304090000080fb004400dd00e400400003
:1051ec0000b82200008040009000780000c02f0022
:1051fc00008060004a00de0001002000008fbe002d
:10520c004e009000b0009000200090003e01400045
:10521c00ae8148000200be004e01900020019800b3
:10522c0031019800ce00900030c0b300a04098002f
:10523c004e009000304090000080fb004400dd00e8
:10524c00e400400000b8220000804000900078008c
:10525c000020200000806000200798002e009000a5
:10526c00e10f500004003a00ce00900020c0b300c3
:10527c009040980072003700ce00900010c0b30030
:10528c00904098004e009000304090000080fb0051
:10529c004400dd00e600400000b822000080400021
:1052ac0010007800804078004e0090000148980073
:1052bc004e009000304090000080fb004400dd0068
:1052cc00e600400000b8220000804000900078000a
:1052dc0000f02f00008060004800de008040780065
:1052ec004e009000114898004e0090003040900005
:1052fc000080fb004400dd00e800400000b8220004
:10530c000080400010007800804078004e00900033
:10531c00214898004e009000304090000080fb0027
:10532c004400dd00e800400000b82200008040008e
:10533c009000780000f02f00008060004800de0034
:10534c00804078004e009000314898004e0090004c
:10535c00304090000080fb004400dd00ea0040007b
:10536c0000b82200008040001000780080407800d7
:10537c004e009000414898004e0090003040900044
:10538c000080fb004400dd00ea00400000b8220071
:10539c00008040009000780000f02f00008060003a
:1053ac004800de00804078004e0090005148980084
:1053bc004e009000304090000080fb004400dd0067
:1053cc00ec00400000b82200008040001000780083
:1053dc00804078004e009000614898004e0090008c
:1053ec00304090000080fb004400dd00ec004000e9
:1053fc0000b82200008040009000780000f02f00e0
:10540c00008060004800de00804078004e00900074
:10541c00714898004e009000304090000080fb00d6
:10542c004400dd00e400400000b822000080400091
:10543c0010007800ef4060004e0090000150980082
:10544c004e00900030409000020007000080fa00ef
:10545c00000006000200fa00004f780020c6bf00d2
:10546c00624060000004e0000500320010c0b30090
:10547c009e4f100002003a002026a90011003700b0
:10548c0020c6bf00644060000004e000050032004c
:10549c0020c0b3009e4f100002003a002046a90025
:1054ac000800370020c6bf00684060000004e00020
:1054bc000400320030c0b3009e4f100001003a00cf
:1054cc002066a9000080fa0000000600801f78000a
:1054dc000000fa008860a9000ac6bf0062406000a4
:1054ec000004e000200032000a26a90020c6bf00fc
:1054fc00624060000004e0000500320050c0b300c0
:10550c00d6efb70010c0b300d9efb70011003700c9
:10551c0020c6bf00644060000004e00005003200bb
:10552c0050c0b300d6efb70020c0b300d9efb7001e
:10553c000800370020c6bf00684060000004e0008f
:10554c000400320050c0b300d6efb70030c0b30037
:10555c00d9efb7000000eb0010318800103180004b
:10556c0000318800050037000ac6bf0061406000aa
:10557c000004e000010032000a06a9000ac6bf00c0
:10558c000042b2000004e000010032000aa6a900ab
:10559c000080fa004f007800004006000000fa007e
:1055ac0071c8bf000004e0000a003a0070c8bf00d8
:1055bc000004e00007003a0072c8bf000004e000dd
:1055cc0004003a000040eb007ae8b7000500070041
:1055dc000200370010c0b3007ae8b7000080fa0070
:1055ec00000006000000fa00889fbe0019c8bf002a
:1055fc00e14f500006003a000000eb00e04088004c
:10560c000040eb0019e8b700ecc2a800f522a80096
:10561c001ac8bf00e14f500017003a00104180003b
:10562c002141800080007800b05e800080804000c6
:10563c00e0408000808f500004003400e040800087
:10564c000000e800e04088004c003700104180006a
:10565c002141800080007800b05e80000080400016
:10566c00e04088000040eb001ae8b7000040eb0077
:10567c007de8b70041003700f05c8000015d8000e0
:10568c00623b2f00d3df2b0002ed0700f25c8000a1
:10569c00035d8000ffec07000004be00f05c80009e
:1056ac00015d8000d2cc2c0083352400f9ec07007e
:1056bc000001be000800be0099eb070062662300e3
:1056cc009354240095eb070038ec0700b05e88007b
:1056dc00104180002141800080007800b05e800085
:1056ec0000804000e0408800e140800070eb270023
:1056fc00808f50000200340070eb2700e0408800df
:10570c0022000700e24080002056800031568000c5
:10571c0000015100c0568000d1568000000051009d
:10572c00e040880018c8bf00e14f500007003a0065
:10573c0010c0b3007de8b70018010700e1408000fd
:10574c00f05f800000804000e0408800e140800075
:10575c0070eb2700808f50000300340070eb2700a3
:10576c00e040880005003700e04080000000e000c9
:10577c0002003d000000eb00e040880072010700d1
:10578c004f04be000080fa00000006000000fa0082
:10579c00404080006101b900905e800080004000b4
:1057ac00c09920000080400010007800cf80de00ff
:1057bc000000510081805900a0558800b155880027
:1057cc00704080006101b900a05e80008000400044
:1057dc00e09e20000080400010007800cf80de00aa
:1057ec0000005100818059004056880051568800b5
:1057fc00a0558000b155800080007800d0cc2000ee
:10580c000180b9004109dd004f00de00000071008d
:10581c00cf88de00e0558800f155880040568000a6
:10582c005156800080007800703d20000180b90046
:10583c00410add004f00de0000007200cf88de0060
:10584c008056880091568800a0558000b155800084
:10585c0080007800400a20000180b900cf89de006a
:10586c00410add004f01de0002017200c0558000cc
:10587c00d15580000200400083804800c05588004c
:10588c00d155880040568000515680008000780029
:10589c00100220000180b900cf89de00410add0032
:1058ac004f01de00020172006056800071568000cc
:1058bc0002004000838048006056880071568800c2
:1058cc00c2558000d355800070eb270001002000ea
:1058dc00800f5100818f59000500340070eb2700b8
:1058ec0001002000c0558800d15588000800370001
:1058fc00c0558000d1558000e00f5000e08f58005b
:10590c0003003d006000b800c0558800d1558800e8
:10591c00625680007356800070eb27000100200057
:10592c00800f5100818f59000500340070eb270067
:10593c00010020006056880071568800080037006e
:10594c006056800071568000e00f5000e08f5800c8
:10595c0003003d006000b800605688007156880056
:10596c00e2558000f3558000c0558000d155800071
:10597c0002004000838048000056880011568800c1
:10598c0082568000935680006056800071568000cd
:10599c000200400083804800a0568800b156880061
:1059ac00025680001356800070eb27000100200087
:1059bc00800f5100818f59000500340070eb2700d7
:1059cc00010020000056880011568800080037009e
:1059dc000056800011568000e00f5000e08f5800f8
:1059ec0003003d006000b800005688001156880086
:1059fc00a2568000b356800070eb270001002000f7
:105a0c00800f5100818f59000500340070eb270086
:105a1c0001002000a0568800b1568800080037000d
:105a2c00a0568000b1568000e00f5000e08f580067
:105a3c0003003d006000b800a0568800b1568800f5
:105a4c0000568000115680004209dd00ce00de00b9
:105a5c00810071004200dd0000568800115688005c
