:020000040000fa
:080000000001040000000000f3
:020000040000fa
:100200006ff220000e7f22000e0188000000000027
:100210000c000700e060230001002000110007002f
:10022000000020000000e000020032000000020098
:100230000000000046390200000000000040da0023
:100240000000fe004440a900000020000000e00083
:100250000300320000002000a00188004440a800f4
:100260000000060091018800800078000000eb008b
:1002700015003700e280400032a0b4009101ba00be
:10028000e280400032a0b4009102ba00e280400057
:1002900032a0b4000002eb00472bde00f507b200ed
:1002a000602ce10004003a000059eb008301e900f2
:1002b000fdff3e00040037006128e100010032002c
:1002c0000082eb00040007001101ba000200e00008
:1002d000e8ff3a00000006003159ba008301e90046
:1002e0000c0032002159ba008301e90008003200f5
:1002f0000400e00003003a00e280400032a0b400b5
:10030000f5ff370011d9ba008301e900faff3a007e
:100310008100e800e180400032a0b4000000060047
:100320000040da000000fe0003f0a200889fbe003b
:100330008a9fbe008c1f7800ff0007000601330073
:100340006450e1004f0032006420e10052003200ae
:1003500003826c0007003b000905d0000306d000b3
:10036000820f54000c065d000200390002003200ca
:1003700089017800030678008582550004003d005d
:100380000003fd008103fd008502ea008b85420029
:10039000840f720002003b0060001000e080180033
:1003a0006011b8000005eb007a28e1000a0039006e
:1003b00006007800c75ddd00f707b2008780750092
:1003c0002d003700828171000a017800610560000c
:1003d0008180d1000080d3008502e900f9ff3b0055
:1003e000060440008784480002003b0060041400bb
:1003f000e0841c000988a300070032008a81710094
:1004000082817100610164008904d1000884d300f5
:100410008b05e800170037000978a30013003a00a5
:100420000b00e000130034008b05e90008044400d1
:1004300089844c000a4474000978a3000d003a0036
:100440000b00e000070034008b05e90008044400bd
:1004500089844c0001003a000b0020000978a300b9
:10046000f7ff32000001eb000200370082817100cb
:100470000a017800750007000cf0a70001f0a00049
:10048000be0037006420e10002003a00838f6c0058
:10049000be0033000801be000200be00b7003700f6
:1004a00014002000f0003700f4ff2f00ee003700aa
:1004b0000001be008b0007000470a70003f0a1003c
:1004c0006509b100160032000d0035006828e10012
:1004d00006003500f0ff2f00f1ff27000300e000c9
:1004e00013003b0001002800000005000000400050
:1004f000818048008502e900fcff3a0008003700cf
:10050000f88f420002003c008000eb000000050074
:100510008100d1000080d3008502e800fcff3a0092
:100520000300e00002003b0060001000e0801800c3
:10053000000006000001be006a0007000470a7006a
:1005400003f0a10003f8a30013003a006509b1000d
:1005500010003200090035006928e1000200350072
:1005600001002800000005000000400081804800d4
:100570008502e900fcff3a0000000600f88f420007
:10058000050035008100d1000080d3008502e8001d
:10059000fcff3a00000006008000eb0000000500b0
:1005a000889fbe008a9fbe00010578000100e00020
:1005b0000400350008003c000000e000200032008c
:1005c0000500370060001000e080180002003b00ca
:1005d00001f02c001a0037000004be006011b800c2
:1005e0006b0920000982cf00020039000882cf0089
:1005f0000441b000694252000e00320008003b0086
:1006000082817100610164008904d1000884d300f3
:100610008b05e8000442e800f9ff3a0005003700c6
:100620000804440089844c008b05e9000442e90079
:10063000fbff3a00050007000af0a70001f0a00048
:100640004f05be004f04be000000060081002000e0
:10065000618055000b003d000b00200061fe2f0063
:100660000100e1001d00340082817100610164001d
:100670008904d1000884d3000000e800faff3a00a2
:10068000710020006100640003007000020060003f
:100690000900320061044400e0844c000988a50090
:1006a000050032008b05e8006808e10002003a000e
:1006b0008904d1000884d300f20f20000258e10021
:1006c00005003d00c75ddd00f907b20089807500b7
:1006d00008007800000006000bf827008b00780067
:1006e00000000500c70ade00f107b200f50fb200f6
:1006f00008003200e1cf4200020032000170a00089
:1007000024000500810f700001003200040805007c
:1007100044000500810f700002003a00140005003b
:100720008502e9000000400081c04800fcff3b005a
:100730000170a000240005000004be00e9ff0700ce
:100740000003be000405be000200be00e5ff070076
:10075000844f7500000006000200be006450e100f6
:10076000050036006420e100020036000968a3009d
:1007700001003a000800be000160a0004f067800aa
:100780004f05be004f04be0000000600f0ff2f0022
:10079000f1ff2700f9ff3700889fbe008a9fbe0047
:1007a0008c1f7800e4ff0700ebff330003866c002a
:1007b0006450e100240032006420e1002700320090
:1007c0006150e100220032006120e100210032008e
:1007d0008b854200eb07b1000134b800003ab80045
:1007e0000804420089844a00013ab8000030b80089
:1007f0008880400009014a000400330000004000e6
:1008000081804800020149008b05e900c909dd002b
:10081000830170000100320013002000c814de00c4
:100820004814dd004709de001200b200c808de00ef
:100830000884700085ff070001f0a1000cf0a700fc
:1008400001f0a000cdff37006120e100cfff3200b2
:100850000801be000200be00f7ff37006150e10052
:10086000fcff3a00c9ff3700889fbe008a9fbe0088
:10087000841f7800b0ff07004f007800110033009c
:10088000f0ff2f00838f6c0006003b00040565001d
:100890000a00a7000800370009f0a6001000200099
:1008a00008003700820f5400838f5c00030039007a
:1008b0001000200001003e000000200009f0a70009
:1008c0000000ea004f05be004f04be000000e0003b
:0408d000000006001e
:020000040000fa
:0200000401f009
:04000000f1bf00004c
:020000040000fa
:0200000401f009
:04000400ff7f00007a
:020000040000fa
:0200000401f009
:04000800cf7f0000a6
:020000040000fa
:1000080090010000900100009001000090010000a4
:100018009001000090010000900100009001000094
:10002800462800009001000090010000323a0000cc
:100038009001000090010000463a00009001000085
:1000480090010000261c0000161d00004a2f000029
:100058009001000090010000900100009001000054
:100068009001000090010000900100009001000044
:100078009001000090010000900100009001000034
:100088001e1d0000121e00004a29000090010000f9
:100098009001000090010000900100009001000014
:1000a8009001000090010000900100009001000004
:1000b80090010000900100009001000090010000f4
:1000c80090010000900100009001000090010000e4
:1000d80090010000900100009001000090010000d4
:1000e80090010000900100009001000090010000c4
:0800f8009001000090010000de
:020000040000fa
:1001080090010000900100009001000090010000a3
:100118009001000090010000900100009001000093
:10012800462800009001000090010000323a0000cb
:100138009001000090010000463a00009001000084
:1001480090010000261c0000161d00004a2f000028
:100158009001000090010000900100009001000053
:100168009001000090010000900100009001000043
:100178009001000090010000900100009001000033
:100188001e1d0000121e00004a29000090010000f8
:100198009001000090010000900100009001000013
:1001a8009001000090010000900100009001000003
:1001b80090010000900100009001000090010000f3
:1001c80090010000900100009001000090010000e3
:1001d80090010000900100009001000090010000d3
:1001e80090010000900100009001000090010000c3
:0801f8009001000090010000dd
:020000040000fa
:1008d4000000fa00de62a900de42a8000c02a900b2
:1008e400c12020009140780090cfb30000c0600088
:1008f4000ce2b7000ca2a900f0022000a0108800ae
:100904000ec2bf00f043b2000ee2b7000fe2a9002e
:10091400910920009140780080cfb30000c06000ae
:100924005040b30099e0b7008520a9008d20a800ad
:100934000de2a8000f42a8000080fa0000000600a3
:100944000000fa00dea2a900de82a8001602a900b7
:10095400612120009140780090cfb30000c0600076
:1009640016e2b70016a2a900f0022000f0108800d9
:1009740018c2bf00f043b20018e2b70019e2a900a0
:10098400010a200091407800f0c8b30000c0600064
:10099400a0e0b7008700a9008f00a80017e2a80014
:1009a4001942a8000080fa00000006000000fa00c6
:1009b4004fcebf000004e0000800320050cebf005c
:1009c4000004e000050032000178800030062000b9
:1009d400808f500001003600550007004acebf004a
:1009e4000004e000090032004bcebf000004e00028
:1009f400060032000040eb004aeeb7000040eb0076
:100a04004beeb7000040eb004ceeb7000080fa005c
:100a1400000006000400fa000040eb0020479800a4
:100a24000000eb00000f7800b0c5b300beebb700c8
:100a340050c5b300bfebb70000c3b300c0ebb700b1
:100a440030c5b300c1ebb70018cfbf000043b000fe
:100a5400c2ebb70019cfbf000043b000c3ebb7002f
:100a64001acfbf000043b000c4ebb7000040eb0056
:100a7400204798000a0037002e4090008080fb0039
:100a8400e0bb200000804000104078000080fb00a4
:100a94001e0f68002e4090000040e8002047980098
:100aa4002e409000e64f5000f3ff3600000f200068
:100ab4001e0060004400de000043b000c5ebb70038
:100ac4001e0078006f4060000043b000c6ebb70022
:100ad400d0c5b300c7ebb7000040eb002047980037
:100ae4000e0037002e4090008080fb00e0bb200009
:100af40000804000104078000080fb0080108800d7
:100b04000fc2bf00614060000004e000fcff32003f
:100b14002e4090000040e800204798002e409000ae
:100b2400e94f5000efff36000080fa000000060095
:100b34000200fa00efcbbf008080fb0040042000dd
:100b4400808f5000010032001a003700f0cbbf0044
:100b54008080fb0000032000808f500001003200e1
:100b640014003700f1cbbf000080fb00000f7800b9
:100b7400300420009e007800808f50000a0032006c
:100b8400300520009e007800808f50000100320064
:100b9400080037000f0007004702070010c0b30029
:100ba4001fefb70003003700db0207000040eb0033
:100bb4001fefb7000040eb004feeb7000040eb0022
:100bc40050eeb7000040eb0051eeb7000080fa0091
:100bd400000006000c00fa000000eb00200798005b
:100be4000040eb00304798000040eb00204798009d
:100bf4000040eb00104798000040eb00004f7800e5
:100c0400f2cbbf003047980032bf20001241780079
:100c140022479800f4cbbf0010479800f5cbbf00e3
:100c2400004f7800be409000f0c2b30080cf500067
:100c340060003600be40900090c3b30080cf5000e7
:100c44005c003e00ae409000f0c2b30080cf500084
:100c540058003600ae40900090c3b30080cf5000df
:100c640054003e009e409000f0c2b30080cf50007c
:100c7400500036009e40900090c3b30080cf5000d7
:100c84004c003e00f0c2b3009e4f100049003600f5
:100c940090c3b3009e4f100046003e002e409000cb
:100ca4008080fb00400620000088b9000001780025
:100cb4003e4090008080fb0000fd2f0080804000bb
:100cc400803e20000088b900000141001e409000d1
:100cd4000080fb006a00b900800041001e80fb0018
:100ce4008080400000b32e00008040002007980060
:100cf4002e009000cf80de0028fe0700d2cc2c000e
:100d0400c3dc2300a3fe070080738800917388006e
:100d140080738000917380000041eb00324f980093
:100d240002002000032c2400defd07000000e00088
:100d340001003c000200370010c0b300304f98009f
:100d44003e4890000004a2000004e00015003a00b0
:100d540080738000917380000041eb00224f980063
:100d64000200200063312400ccfd07000000e000f5
:100d7400010034000200370010c0b300204f980077
:100d84002e4890000004a2000004e00005003a0090
:100d940080738000917380004074880051748800cf
:100da4000400370040748000517480008073880010
:100db4009173880062bf2000124178003247980086
:100dc400f7cbbf002047980082bf20001241780073
:100dd40012479800f9cbbf00004f7800be40900046
:100de400f0c2b30080cf500060003600be409000d7
:100df40090c3b30080cf50005c003e00ae40900032
:100e0400f0c2b30080cf500058003600ae409000ce
:100e140090c3b30080cf500054003e009e40900029
:100e2400f0c2b30080cf5000500036009e409000c6
:100e340090c3b30080cf50004c003e00f0c2b3001a
:100e44009e4f10004900360090c3b3009e4f10001f
:100e540046003e002e4090008080fb0040062000ab
:100e64000088b900000178003e4090008080fb00bb
:100e740000fd2f0080804000803e20000088b900e3
:100e8400000141001e4090000080fb006a00b90090
:100e9400800041001e80fb008080400000b32e00d3
:100ea40000804000200798002e009000cf80de00d4
:100eb400bafd0700d2cc2c00c3dc230035fe0700aa
:100ec400a0738800b1738800a0738000b1738000a0
:100ed4000041eb00124f980002002000032c240074
:100ee40070fd07000000e00001003d000200370033
:100ef40010c0b300104f98001e4890000004a200d8
:100f04000004e00015003a00a0738000b173800073
:100f14000041eb00024f98000200200063312400de
:100f24005efd07000000e00001003500020037000c
:100f340010c0b300004f98000e4890000004a200b7
:100f44000004e00005003a00a0738000b173800043
:100f54006074880071748800040037006074800035
:100f640071748000a0738800b1738800a2bf200050
:100f74001241780032479800fbcbbf00204798000d
:100f8400c2bf20001241780012479800fdcbbf0079
:100f9400004f7800be409000f0c2b30080cf5000f4
:100fa40060003600be40900090c3b30080cf500074
:100fb4005c003e00ae409000f0c2b30080cf500011
:100fc40058003600ae40900090c3b30080cf50006c
:100fd40054003e009e409000f0c2b30080cf500009
:100fe400500036009e40900090c3b30080cf500064
:100ff4004c003e00f0c2b3009e4f10004900360082
:1010040090c3b3009e4f100046003e002e40900057
:101014008080fb00400620000088b90000017800b1
:101024003e4090008080fb0000fd2f008080400047
:10103400803e20000088b900000141001e4090005d
:101044000080fb006a00b900800041001e80fb00a4
:101054008080400000b32e000080400020079800ec
:101064002e009000cf80de004cfd0700d2cc2c0077
:10107400c3dc2300c7fd0700c0738800d173880058
:10108400c0738000d17380000041eb007247980068
:101094000200200003f8230002fd07000000e00026
:1010a40001003d000200370010c0b30070479800f3
:1010b4007e4090000004a2000004e00015003a0005
:1010c400c0738000d17380000041eb006247980038
:1010d4000200200003272400f0fc07000000e000c9
:1010e400010034000200370010c0b30060479800cc
:1010f4006e4090000004a2000004e00005003a00e5
:10110400c0738000d173800080748800917488005b
:10111400040037008074800091748000c0738800dc
:10112400d1738800e2bf2000124178003247980052
:10113400ffcbbf002047980002c020001241780076
:101144001247980001ccbf00004f7800be409000c9
:10115400f0c2b30080cf500037003600be4090008c
:1011640090c3b30080cf500033003e00ae409000e7
:10117400f0c2b30080cf50002f003600ae40900084
:1011840090c3b30080cf50002b003e009e409000df
:10119400f0c2b30080cf5000270036009e4090007c
:1011a40090c3b30080cf500023003e00f0c2b300d0
:1011b4009e4f10002000360090c3b3009e4f1000d5
:1011c4001d003e002e4090008080fb004006200061
:1011d4000088b900000178003e4090008080fb0048
:1011e40000fd2f0080804000803e20000088b90070
:1011f400000141001e4090000080fb006a00b9001d
:10120400800041001e80fb008080400000b32e005f
:1012140000804000200798002e009000cf80de0060
:10122400defc0700d2cc2c00c3dc230059fd0700f0
:10123400e0738800f173880002ccbf003047980047
:1012440032c02000124178002247980004ccbf002d
:101254001047980005ccbf00004f7800be409000b6
:10126400f0c2b30080cf500037003600be4090007b
:1012740090c3b30080cf500033003e00ae409000d6
:10128400f0c2b30080cf50002f003600ae40900073
:1012940090c3b30080cf50002b003e009e409000ce
:1012a400f0c2b30080cf5000270036009e4090006b
:1012b40090c3b30080cf500023003e00f0c2b300bf
:1012c4009e4f10002000360090c3b3009e4f1000c4
:1012d4001d003e002e4090008080fb004006200050
:1012e4000088b900000178003e4090008080fb0037
:1012f40000fd2f0080804000803e20000088b9005f
:10130400000141001e4090000080fb006a00b9000b
:10131400800041001e80fb008080400000b32e004e
:1013240000804000200798002e009000cf80de004f
:101334009afc0700d2cc2c00c3dc230015fd070067
:10134400007488001174880062c020001241780083
:101354003247980007ccbf002047980082c0200085
:10136400124178001247980009ccbf00004f780062
:10137400be409000f0c2b30080cf5000370036006a
:10138400be40900090c3b30080cf500033003e00b5
:10139400ae409000f0c2b30080cf50002f00360062
:1013a400ae40900090c3b30080cf50002b003e00ad
:1013b4009e409000f0c2b30080cf5000270036005a
:1013c4009e40900090c3b30080cf500023003e00a5
:1013d400f0c2b3009e4f10002000360090c3b3004b
:1013e4009e4f10001d003e002e4090008080fb00a8
:1013f400400620000088b900000178003e409000bb
:101404008080fb0000fd2f0080804000803e200093
:101414000088b900000141001e4090000080fb00dc
:101424006a00b900800041001e80fb0080804000fb
:1014340000b32e0000804000200798002e0090008a
:10144400cf80de0055fc0700d2cc2c00c3dc230087
:10145400d0fc070020748800317488000accbf00d7
:101464008040780000cdb30000c0400018efb70002
:101474000bccbf008040780000cdb30000c040001a
:1014840019efb7000cccbf008040780000cdb3004a
:1014940000c040001aefb7000dccbf0080407800b8
:1014a40000cdb30000c0400089ebb700d31807009b
:1014b4000080fa00000006000600fa000040eb007d
:1014c400404798000000eb00100798000000eb0074
:1014d400000f7800c0c3b30012ecb70050c5b300ce
:1014e40013ecb70000c3b30014ecb70020c5b3007d
:1014f40015ecb70080738000917380000200200017
:1015040003122400a3fc0700e8fb0700000f780087
:101514001e00780022c5b30011c0b300b107070054
:10152400a0738000b1738000020020000312240025
:1015340098fc0700ddfb0700000f78001e00780010
:1015440022c5b30021c0b300a6070700c073800002
:10155400d173800002002000031224008dfc0700d8
:10156400d2fb0700000f78001e00780022c5b300ec
:1015740031c0b3009b070700e0738000f173800063
:10158400020020000312240082fc0700c7fb0700ae
:10159400000f78001e00780022c5b30041c0b300dc
:1015a400900707000074800011748000020020007e
:1015b4000312240077fc0700bcfb0700000f78002f
:1015c4001e00780022c5b30051c0b3008507070090
:1015d4002074800031748000020020000312240073
:1015e4006cfc0700b1fb0700000f78001e007800b8
:1015f40022c5b30061c0b3007a07070018cfbf004b
:101604000043b0002eecb70019cfbf000043b00078
:101614002fecb7001acfbf000043b00030ecb70086
:1016240089cbbf000043b00031ecb7000040eb00b1
:10163400404798000c0037004e4090008080fb002b
:1016440020c1200000804000104078008080fb0012
:101654001e00900001006800100798004e409000a2
:101664000040e800404798004e409000ff4f500073
:10167400f1ff36009e009000000f20000080600003
:101684004400de000043b00032ecb7001e009000be
:101694006f4060000043b00033ecb700e0c3b30018
:1016a40034ecb7000040eb00404798000e003700d0
:1016b4004e4090008080fb0020c12000008040004c
:1016c400104078000080fb00d010880019c2bf00d1
:1016d400614060000004e000fcff32004e409000d6
:1016e4000040e80040479800ce40900020c2b3007c
:1016f40080cf5000eeff36003005200080108800b7
:101704000fc2bf00614060000004e000fcff320033
:101714000080fa00000006000600fa000040eb001a
:10172400404798000000eb00100798000000eb0011
:10173400000f7800c0c3b30012ecb70050c5b3006b
:1017440013ecb70000c3b30014ecb70030c4b3000b
:1017540015ecb700a0728000b17280000200200076
:10176400031224000bfc070050fb0700000f780055
:101774001e00780032c4b30011c0b300190707007b
:10178400c0728000d1728000020020000312240085
:1017940000fc070045fb0700000f78001e007800de
:1017a40032c4b30021c0b3000e070700e07280000a
:1017b400f17280000200200003122400f5fb0700f0
:1017c4003afb0700000f78001e00780032c4b30013
:1017d40031c0b30003070700007380001173800059
:1017e4000200200003122400eafb07002ffb07007d
:1017f400000f78001e00780032c4b30041c0b3006b
:10180400f80607004f0007000040eb00404798002f
:101814000e0037004e4090000080fb007401400031
:101824004e4090008080fb0060c320000080400098
:101834009040780020c12000000041000148780059
:101844004e4090000040e800404798004e40900011
:10185400eb4f5000efff36000040eb00404798008c
:101864000c0037004e4090008080fb0020c1200017
:1018740000804000104078008080fb001e00900033
:1018840001006800100798004e4090000040e800f6
:10189400404798004e409000ff4f5000f1ff360043
:1018a4009e009000000f2000008060004400de00d5
:1018b4000043b00032ecb7001e0090006f4060009f
:1018c4000043b00033ecb700e0c3b30034ecb7001e
:1018d4000040eb00404798000e0037004e40900057
:1018e4008080fb0020c12000008040001040780070
:1018f4000080fb00d010880019c2bf006140600066
:101904000004e000fcff32004e4090000040e8007c
:1019140040479800ce40900020c2b30080cf5000d2
:10192400eeff360030042000801088000fc2bf0094
:10193400614060000004e000fcff32000080fa0017
:10194400000006000000fa0072ccbf000080fb001b
:101954004700de006140600064eeb70072ccbf0057
:101964000080fb004600de006140600065eeb700c9
:1019740072ccbf000080fb004500de0061406000c7
:1019840068eeb70072ccbf000080fb004400de00ac
:101994006140600069eeb70064cebf006140600042
:1019a4000080fb00610060004701dd009171800050
:1019b400f0f72f0000806000020070009071880032
:1019c40065cebf00614060000080fb0061006000e4
:1019d4004601dd0091718000f0fb2f000080600063
:1019e400020070009071880066cebf006140600004
:1019f4000080fb00610060004501dd009171800002
:101a0400f0fd2f00008060000200700090718800db
:101a140067cebf00614060000080fb006100600091
:101a24004401dd0091718000f0fe2f000080600011
:101a3400020070009071880068cebf0061406000b1
:101a44000080fb00610060004301dd0091718000b3
:101a540070ff2f0000806000020070009071880009
:101a640069cebf00614060000080fb00610060003f
:101a74004201dd0091718000b0ff2f000080600002
:101a840002007000907188006acebf00614060005f
:101a94000080fb0061006000000140009171800043
:101aa400d0ff2f0000806000020070009071880059
:101ab4006bcebf00614060000080fb0061016000ec
:101ac40091718000e0ff2f00008060000200700030
:101ad4009071880072ccbf000080fb004300de00e0
:101ae4006140600042ecb70072ccbf000080fb0094
:101af4004200de006140600045ecb70042ccbf000c
:101b0400614060000080fb00610060004701dd006f
:101b1400a1718000f0f72f000080600002007000c7
:101b2400a071880043ccbf00614060000080fb00ce
:101b3400610060004601dd00a1718000f0fb2f0010
:101b44000080600002007000a071880044ccbf00d7
:101b5400614060000080fb00610060004501dd0021
:101b6400a1718000f0fd2f00008060000200700071
:101b7400a071880045ccbf00614060000080fb007c
:101b8400610060004401dd00a1718000f0fe2f00bf
:101b94000080600002007000a071880046ccbf0085
:101ba400614060000080fb00610060004301dd00d3
:101bb400a171800070ff2f0000806000020070009f
:101bc400a071880047ccbf00614060000080fb002a
:101bd400610060004201dd00a1718000b0ff2f00b0
:101be4000080600002007000a071880048ccbf0033
:101bf400614060000080fb00610060000001400063
:101c0400a1718000d0ff2f000080600002007000ee
:101c1400a071880049ccbf00614060000080fb00d7
:101c240061016000a1718000e0ff2f00008060006e
:101c340002007000a071880036eea90036cea9001b
:101c440036aea900368ea900366ea900364ea9001c
:101c5400362ea900360ea90038eea90038cea90008
:101c640038aea900388ea900386ea900384ea900f4
:101c7400382ea900380ea900b07080004700de009d
:101c8400614060004becb700b07080004600de009d
:101c9400614060004fecb700b07080004500de008a
:101ca4006140600053ecb700b07080004400de0077
:101cb4006140600057ecb700b07080004300de0064
:101cc400614060005becb700b07080004200de0051
:101cd400614060005fecb700b07080000000d1008c
:101ce4006140600063ecb700b07080006140600048
:101cf40067ecb7004bccbf00614060000080fb0084
:101d0400610060004701dd00d1718000f0f72f0011
:101d14000080600002007000d07188004fccbf00ca
:101d2400614060000080fb00610060004601dd004e
:101d3400d1718000f0fb2f00008060000200700071
:101d4400d071880053ccbf00614060000080fb006c
:101d5400610060004501dd00d1718000f0fd2f00bd
:101d64000080600002007000d071880057ccbf0072
:101d7400614060000080fb00610060004401dd0000
:101d8400d1718000f0fe2f0000806000020070001e
:101d9400d07188005bccbf00614060000080fb0014
:101da400610060004301dd00d171800070ff2f00ed
:101db4000080600002007000d07188005fccbf001a
:101dc400614060000080fb00610060004201dd00b2
:101dd400d1718000b0ff2f0000806000020070000d
:101de400d071880063ccbf00614060000080fb00bc
:101df4006100600000014000d1718000d0ff2f001d
:101e04000080600002007000d071880067ccbf00c1
:101e1400614060000080fb0061016000d1718000be
:101e2400e0ff2f000080600002007000d071880085
:101e3400c07080004700de00614060004cecb700d9
:101e4400c07080004600de006140600050ecb700c6
:101e5400c07080004500de006140600054ecb700b3
:101e6400c07080004400de006140600058ecb700a0
:101e7400c07080004300de00614060005cecb7008d
:101e8400c07080004200de006140600060ecb7007a
:101e9400c07080000000d1006140600064ecb700b5
:101ea400c07080006140600068ecb7004cccbf009b
:101eb400614060000080fb00610060004701dd00bc
:101ec400e1718000f0f72f000080600002007000d4
:101ed400e071880050ccbf00614060000080fb00ce
:101ee400610060004601dd00e1718000f0fb2f001d
:101ef4000080600002007000e071880054ccbf00d4
:101f0400614060000080fb00610060004501dd006d
:101f1400e1718000f0fd2f0000806000020070007d
:101f2400e071880058ccbf00614060000080fb0075
:101f3400610060004401dd00e1718000f0fe2f00cb
:101f44000080600002007000e07188005cccbf007b
:101f5400614060000080fb00610060004301dd001f
:101f6400e171800070ff2f000080600002007000ab
:101f7400e071880060ccbf00614060000080fb001d
:101f8400610060004201dd00e1718000b0ff2f00bc
:101f94000080600002007000e071880064ccbf0023
:101fa400614060000080fb006100600000014000af
:101fb400e1718000d0ff2f000080600002007000fb
:101fc400e071880068ccbf00614060000080fb00c5
:101fd40061016000e1718000e0ff2f00008060007b
:101fe40002007000e0718800d07080004700de00bd
:101ff400614060004decb700d07080004600de0008
:102004006140600051ecb700d07080004500de00f4
:102014006140600055ecb700d07080004400de00e1
:102024006140600059ecb700d07080004300de00ce
:10203400614060005decb700d07080004200de00bb
:102044006140600061ecb700d07080000000d100f6
:102054006140600065ecb700d070800061406000b2
:1020640069ecb7004dccbf00614060000080fb000c
:10207400610060004701dd00f1718000f0f72f007e
:102084000080600002007000f071880051ccbf0035
:10209400614060000080fb00610060004601dd00db
:1020a400f1718000f0fb2f000080600002007000de
:1020b400f071880055ccbf00614060000080fb00d7
:1020c400610060004501dd00f1718000f0fd2f002a
:1020d4000080600002007000f071880059ccbf00dd
:1020e400614060000080fb00610060004401dd008d
:1020f400f1718000f0fe2f0000806000020070008b
:10210400f07188005dccbf00614060000080fb007e
:10211400610060004301dd00f171800070ff2f0059
:102124000080600002007000f071880061ccbf0084
:10213400614060000080fb00610060004201dd003e
:10214400f1718000b0ff2f00008060000200700079
:10215400f071880065ccbf00614060000080fb0026
:102164006100600000014000f1718000d0ff2f0089
:102174000080600002007000f071880069ccbf002c
:10218400614060000080fb0061016000f17180002b
:10219400e0ff2f000080600002007000f0718800f2
:1021a400e07080004700de00614060004eecb70044
:1021b400e07080004600de006140600052ecb70031
:1021c400e07080004500de006140600056ecb7001e
:1021d400e07080004400de00614060005aecb7000b
:1021e400e07080004300de00614060005eecb700f8
:1021f400e07080004200de006140600062ecb700e5
:10220400e07080000000d1006140600066ecb7001f
:10221400e0708000614060006aecb7004eccbf0003
:10222400614060000080fb00610060004701dd0048
:1022340001728000f0f72f0000806000020070003f
:102244000072880052ccbf00614060000080fb0037
:10225400610060004601dd0001728000f0fb2f0088
:1022640000806000020070000072880056ccbf003d
:10227400614060000080fb00610060004501dd00fa
:1022840001728000f0fd2f000080600002007000e9
:10229400007288005accbf00614060000080fb00df
:1022a400610060004401dd0001728000f0fe2f0037
:1022b4000080600002007000007288005eccbf00e5
:1022c400614060000080fb00610060004301dd00ac
:1022d4000172800070ff2f00008060000200700017
:1022e4000072880062ccbf00614060000080fb0087
:1022f400610060004201dd0001728000b0ff2f0028
:1023040000806000020070000072880066ccbf008c
:10231400614060000080fb0061006000000140003b
:1023240001728000d0ff2f00008060000200700066
:10233400007288006accbf00614060000080fb002e
:102344006101600001728000e0ff2f0000806000e6
:1023540002007000007288006ccebf006140600013
:102364000080fb00610060004701dd001172800005
:10237400f0f72f00008060000200700010728800e7
:102384006dcebf00614060000080fb006100600012
:102394004601dd0011728000f0fb2f000080600018
:1023a40002007000107288006ecebf0061406000b1
:1023b4000080fb00610060004501dd0011728000b7
:1023c400f0fd2f0000806000020070001072880091
:1023d400428ea900426ea900424ea900422ea900d5
:1023e400420ea900007180004700de0061406000d9
:1023f4006becb700007180004600de0061406000b5
:102404006fecb700107180004700de00614060008f
:102414006cecb700107180004600de006140600083
:1024240070ecb700207180004700de00614060005e
:102434006decb700207180004600de006140600052
:1024440071ecb700307180004700de00614060002d
:102454006eecb700307180004600de006140600021
:1024640072ecb7006bccbf00614060000080fb00e1
:10247400610060004701dd0021728000f0f72f0049
:102484000080600002007000207288006fccbf00e2
:10249400614060000080fb00610060004601dd00d7
:1024a40021728000f0fb2f000080600002007000a9
:1024b400207288006cccbf00614060000080fb008b
:1024c400610060004501dd0021728000f0fd2f00f5
:1024d40000806000020070002072880070ccbf0091
:1024e400614060000080fb00610060004401dd0089
:1024f40021728000f0fe2f00008060000200700056
:10250400207288006dccbf00614060000080fb0039
:10251400610060004301dd002172800070ff2f0024
:1025240000806000020070002072880071ccbf003f
:10253400614060000080fb00610060004201dd003a
:1025440021728000b0ff2f00008060000200700044
:10255400207288006eccbf00614060000080fb00e8
:10256400610060000001400021728000d0ff2f0054
:1025740000806000020070002072880072ccbf00ee
:10258400614060000080fb006101600021728000f6
:10259400e0ff2f00008060000200700020728800bd
:1025a400507180004700de00614060007becb700a2
:1025b400507180004600de00614060007cecb70092
:1025c400607180004700de00614060007decb70070
:1025d400607180004600de00614060007eecb70060
:1025e400707180004700de00614060007fecb7003e
:1025f400707180004600de006140600080ecb7002e
:10260400807180004700de006140600081ecb7000b
:10261400807180004600de006140600082ecb700fb
:102624007bccbf00614060000080fb006100600063
:102634004701dd0031728000f0f72f000080600058
:1026440002007000307288007cccbf0061406000e2
:102654000080fb00610060004601dd0031728000f3
:10266400f0fb2f00008060000200700030728800d0
:102674007dccbf00614060000080fb006100600011
:102684004501dd0031728000f0fd2f000080600004
:1026940002007000307288007eccbf006140600090
:1026a4000080fb00610060004401dd0031728000a5
:1026b400f0fe2f000080600002007000307288007d
:1026c4007fccbf00614060000080fb0061006000bf
:1026d4004301dd003172800070ff2f000080600034
:1026e400020070003072880080ccbf00614060003e
:1026f4000080fb00610060004201dd003172800057
:10270400b0ff2f000080600002007000307288006b
:1027140081ccbf00614060000080fb00610060006c
:102724000001400031728000d0ff2f000080600063
:10273400020070003072880082ccbf0061406000eb
:102744000080fb006101600031728000e0ff2f0017
:1027540000806000020070003072880048eea9001a
:1027640048cea90048aea900488ea900486ea90029
:10277400484ea900482ea900480ea9009071800077
:102784004700de006140600036ecb70036ccbf0085
:102794000080fb00000040008040780090718000c1
:1027a4004600de006140600000c0700036ecb700f7
:1027b40036ccbf000080fb00000040008040780061
:1027c400907180004500de006140600000c0700030
:1027d40036ecb70036ccbf000080fb0000004000a0
:1027e40080407800907180004400de006140600009
:1027f40000c0700036ecb70036ccbf000080fb0090
:102804000000400080407800907180004300de00aa
:102814006140600000c0700036ecb70036ccbf00e9
:102824000080fb0000004000804078009071800030
:102834004200de006140600000c0700036ecb7006a
:1028440036ccbf000080fb000000400080407800d0
:10285400907180000000d1006140600000c07000f1
:1028640036ecb70036ccbf000080fb00000040000f
:1028740080407800907180006140600000c070006a
:1028840036ecb700a07180004700de0061406000b4
:1028940037ecb70037ccbf000080fb0000004000dd
:1028a40080407800a07180004600de006140600036
:1028b40000c0700037ecb70037ccbf000080fb00cd
:1028c4000000400080407800a07180004500de00d8
:1028d4006140600000c0700037ecb70037ccbf0027
:1028e4000080fb000000400080407800a071800060
:1028f4004400de006140600000c0700037ecb700a7
:1029040037ccbf000080fb0000004000804078000e
:10291400a07180004300de006140600000c07000d0
:1029240037ecb70037ccbf000080fb00000040004c
:1029340080407800a07180004200de0061406000a9
:1029440000c0700037ecb70037ccbf000080fb003c
:102954000000400080407800a07180000000d10099
:102964006140600000c0700037ecb70037ccbf0096
:102974000080fb000000400080407800a0718000cf
:102984006140600000c0700037ecb700b071800097
:102994004700de006140600038ecb70038ccbf006f
:1029a4000080fb000000400080407800b07180008f
:1029b4004600de006140600000c0700038ecb700e3
:1029c40038ccbf000080fb0000004000804078004d
:1029d400b07180004500de006140600000c07000fe
:1029e40038ecb70038ccbf000080fb00000040008a
:1029f40080407800b07180004400de0061406000d7
:102a040000c0700038ecb70038ccbf000080fb0079
:102a14000000400080407800b07180004300de0078
:102a24006140600000c0700038ecb70038ccbf00d3
:102a34000080fb000000400080407800b0718000fe
:102a44004200de006140600000c0700038ecb70056
:102a540038ccbf000080fb000000400080407800bc
:102a6400b07180000000d1006140600000c07000bf
:102a740038ecb70038ccbf000080fb0000004000f9
:102a840080407800b07180006140600000c0700038
:102a940038ecb700c07180004700de006140600080
:102aa40039ecb70039ccbf000080fb0000004000c7
:102ab40080407800c07180004600de006140600004
:102ac40000c0700039ecb70039ccbf000080fb00b7
:102ad4000000400080407800c07180004500de00a6
:102ae4006140600000c0700039ecb70039ccbf0011
:102af4000080fb000000400080407800c07180002e
:102b04004400de006140600000c0700039ecb70092
:102b140039ccbf000080fb000000400080407800fa
:102b2400c07180004300de006140600000c070009e
:102b340039ecb70039ccbf000080fb000000400036
:102b440080407800c07180004200de006140600077
:102b540000c0700039ecb70039ccbf000080fb0026
:102b64000000400080407800c07180000000d10067
:102b74006140600000c0700039ecb70039ccbf0080
:102b84000080fb000000400080407800c07180009d
:102b94006140600000c0700039ecb700d071800063
:102ba4004700de00614060003aecb7003accbf0059
:102bb4000080fb000000400080407800d07180005d
:102bc4004600de006140600000c070003aecb700cf
:102bd4003accbf000080fb00000040008040780039
:102be400d07180004500de006140600000c07000cc
:102bf4003aecb7003accbf000080fb000000400074
:102c040080407800d07180004400de0061406000a4
:102c140000c070003aecb7003accbf000080fb0063
:102c24000000400080407800d07180004300de0046
:102c34006140600000c070003aecb7003accbf00bd
:102c44000080fb000000400080407800d0718000cc
:102c54004200de006140600000c070003aecb70042
:102c64003accbf000080fb000000400080407800a8
:102c7400d07180000000d1006140600000c070008d
:102c84003aecb7003accbf000080fb0000004000e3
:102c940080407800d07180006140600000c0700006
:102ca4003aecb700e07180004700de00614060004c
:102cb4003becb7003bccbf000080fb0000004000b1
:102cc40080407800e07180004600de0061406000d2
:102cd40000c070003becb7003bccbf000080fb00a1
:102ce4000000400080407800e07180004500de0074
:102cf4006140600000c070003becb7003bccbf00fb
:102d04000080fb000000400080407800e0718000fb
:102d14004400de006140600000c070003becb7007e
:102d24003bccbf000080fb000000400080407800e6
:102d3400e07180004300de006140600000c070006c
:102d44003becb7003bccbf000080fb000000400020
:102d540080407800e07180004200de006140600045
:102d640000c070003becb7003bccbf000080fb0010
:102d74000000400080407800e07180000000d10035
:102d84006140600000c070003becb7003bccbf006a
:102d94000080fb000000400080407800e07180006b
:102da4006140600000c070003becb700f07180002f
:102db4004700de00614060003cecb7003cccbf0043
:102dc4000080fb000000400080407800f07180002b
:102dd4004600de006140600000c070003cecb700bb
:102de4003cccbf000080fb00000040008040780025
:102df400f07180004500de006140600000c070009a
:102e04003cecb7003cccbf000080fb00000040005d
:102e140080407800f07180004400de006140600072
:102e240000c070003cecb7003cccbf000080fb004d
:102e34000000400080407800f07180004300de0014
:102e44006140600000c070003cecb7003cccbf00a7
:102e54000080fb000000400080407800f07180009a
:102e64004200de006140600000c070003cecb7002e
:102e74003cccbf000080fb00000040008040780094
:102e8400f07180000000d1006140600000c070005b
:102e94003cecb7003cccbf000080fb0000004000cd
:102ea40080407800f07180006140600000c07000d4
:102eb4003cecb700007280004700de006140600017
:102ec4003decb7003dccbf000080fb00000040009b
:102ed40080407800007280004600de00614060009f
:102ee40000c070003decb7003dccbf000080fb008b
:102ef4000000400080407800007280004500de0041
:102f04006140600000c070003decb7003dccbf00e4
:102f14000080fb00000040008040780000728000c8
:102f24004400de006140600000c070003decb7006a
:102f34003dccbf000080fb000000400080407800d2
:102f4400007280004300de006140600000c0700039
:102f54003decb7003dccbf000080fb00000040000a
:102f640080407800007280004200de006140600012
:102f740000c070003decb7003dccbf000080fb00fa
:102f84000000400080407800007280000000d10002
:102f94006140600000c070003decb7003dccbf0054
:102fa4000080fb0000004000804078000072800038
:102fb4006140600000c070003decb70010728000fa
:102fc4004700de00614060003eecb7003eccbf002d
:102fd4000080fb00000040008040780010728000f8
:102fe4004600de006140600000c070003eecb700a7
:102ff4003eccbf000080fb00000040008040780011
:10300400107280004500de006140600000c0700066
:103014003eecb7003eccbf000080fb000000400047
:1030240080407800107280004400de00614060003f
:1030340000c070003eecb7003eccbf000080fb0037
:103044000000400080407800107280004300de00e1
:103054006140600000c070003eecb7003eccbf0091
:103064000080fb0000004000804078001072800067
:103074004200de006140600000c070003eecb7001a
:103084003eccbf000080fb00000040008040780080
:10309400107280000000d1006140600000c0700028
:1030a4003eecb7003eccbf000080fb0000004000b7
:1030b40080407800107280006140600000c07000a1
:1030c4003eecb700207280004700de0061406000e3
:1030d4003fecb7003fccbf000080fb000000400085
:1030e40080407800207280004600de00614060006d
:1030f40000c070003fecb7003fccbf000080fb0075
:103104000000400080407800207280004500de000e
:103114006140600000c070003fecb7003fccbf00ce
:103124000080fb0000004000804078002072800096
:103134004400de006140600000c070003fecb70056
:103144003fccbf000080fb000000400080407800be
:10315400207280004300de006140600000c0700007
:103164003fecb7003fccbf000080fb0000004000f4
:1031740080407800207280004200de0061406000e0
:1031840000c070003fecb7003fccbf000080fb00e4
:103194000000400080407800207280000000d100d0
:1031a4006140600000c070003fecb7003fccbf003e
:1031b4000080fb0000004000804078002072800006
:1031c4006140600000c070003fecb70030728000c6
:1031d4004700de006140600040ecb70040ccbf0017
:1031e4000080fb00000040008040780030728000c6
:1031f4004600de006140600000c0700040ecb70093
:1032040040ccbf000080fb000000400080407800fc
:10321400307280004500de006140600000c0700034
:1032240040ecb70040ccbf000080fb000000400031
:1032340080407800307280004400de00614060000d
:1032440000c0700040ecb70040ccbf000080fb0021
:103254000000400080407800307280004300de00af
:103264006140600000c0700040ecb70040ccbf007b
:103274000080fb0000004000804078003072800035
:103284004200de006140600000c0700040ecb70006
:1032940040ccbf000080fb0000004000804078006c
:1032a400307280000000d1006140600000c07000f6
:1032b40040ecb70040ccbf000080fb0000004000a1
:1032c40080407800307280006140600000c070006f
:1032d40040ecb700407280004700de0061406000af
:1032e40041ecb70041ccbf000080fb00000040006f
:1032f40080407800407280004600de00614060003b
:1033040000c0700041ecb70041ccbf000080fb005e
:103314000000400080407800407280004500de00dc
:103324006140600000c0700041ecb70041ccbf00b8
:103334000080fb0000004000804078004072800064
:103344004400de006140600000c0700041ecb70042
:1033540041ccbf000080fb000000400080407800aa
:10336400407280004300de006140600000c07000d5
:1033740041ecb70041ccbf000080fb0000004000de
:1033840080407800407280004200de0061406000ae
:1033940000c0700041ecb70041ccbf000080fb00ce
:1033a4000000400080407800407280000000d1009e
:1033b4006140600000c0700041ecb70041ccbf0028
:1033c4000080fb00000040008040780040728000d4
:1033d4006140600000c0700041ecb7000080fa005a
:1033e400000006001200fa0040079800214f9800e0
:1033f400324f98000000eb00300798000040eb00cb
:10340400404798000040eb00304798000040eb0034
:10341400204798000040eb00104798000040eb0064
:10342400004f78004e009000300798003e00900056
:103434000100200002712200811f780011000900a0
:103444004288d800cf007800404798003e009000a2
:103454006101b8004e4090008080fb0000712200a2
:103464000008b8000000510081805900823e20000d
:10347400811f7800110009004288d800cf0078002d
:10348400304798003e0090006102b8004e40900022
:103494008080fb00007122000009b8003e409000cb
:1034a4008080fb00803e20000008b800020040003d
:1034b400838048000000520081805a0042062000a8
:1034c400811f7800110009004288d800cf007800dd
:1034d400204798003e0090006102b8004e409000e2
:1034e4008080fb00007122000009b8003e4090007b
:1034f4008080fb00803e20000008b80002014000ec
:10350400838148002e4090008080fb00400620000c
:103514000008b80002004000838048000000520008
:1035240081805a00a2002000811f78001100090048
:103534004288d800cf007800104798003e009000e1
:10354400a2002000110009000280d8008000fd00c4
:10355400004f78003e4890000080fb00000f980068
:10356400300420008e089000808f50006d003200df
:10357400200520008e089000808f5000010032004a
:10358400af0037002e4890000080fb0070079800c1
:103594007e009000e30f50002e003200fe009000e9
:1035a400e38f500007003c007e009000e10f5000c4
:1035b4000e003200fe009000e28f5000180032002e
:1035c4009f0037007e009000e50f50003b00320062
:1035d400fe009000e58f50002b0035007e00900027
:1035e400e60f500042003200950037003e40900044
:1035f4000043b00016ecb7002e4090000043b0002a
:1036040017ecb7001e4090000043b00018ecb70060
:103614001e4078000043b00019ecb7008800370062
:103624003e4090000043b0001aecb7002e409000da
:103634000043b0001becb7001e4090000043b000f4
:103644001cecb7001e4078000043b0001decb7002e
:103654007b0037003e4090000043b0001eecb700f2
:103664002e4090000043b0001fecb7001e409000b5
:103674000043b00020ecb7001e4078000043b000c7
:1036840021ecb7006e0037003e4090000043b000cc
:1036940022ecb7002e4090000043b00023ecb700aa
:1036a4001e4090000043b00024ecb7001e40780098
:1036b4000043b00025ecb700610037003e409000a5
:1036c4000043b00026ecb7002e4090000043b00049
:1036d40027ecb7001e4090000043b00028ecb70070
:1036e4001e4078000043b00029ecb70054003700b6
:1036f4003e4090000043b0002aecb7002e409000fa
:103704000043b0002becb7001e4090000043b00013
:103714002cecb7001e4078000043b0002decb7003d
:10372400470037002e4890000080fb006007980097
:10373400ee009000e28f50001b0032006e009000fb
:10374400e20f500004003c00ee009000e18f5000b6
:10375400080032003a0037006e009000e30f50007a
:103764001e003200ee009000e48f5000280032006a
:10377400330037003e4090000043b00016ecb70021
:103784002e4090000043b00017ecb7001e4090009c
:103794000043b00018ecb7001e4078000043b000ae
:1037a40019ecb700260037003e4090000043b000fb
:1037b4001aecb7002e4090000043b0001becb70099
:1037c4001e4090000043b0001cecb7001e4078007f
:1037d4000043b0001decb700190037003e409000d4
:1037e4000043b0001eecb7002e4090000043b00030
:1037f4001fecb7001e4090000043b00020ecb7005f
:103804001e4078000043b00021ecb7000c003700e4
:103814003e4090000043b00022ecb7002e409000e0
:103824000043b00023ecb7001e4090000043b000fa
:1038340024ecb7001e4078000043b00025ecb7002c
:103844000080fa0000000600809fbe003400f800eb
:1038540000002000a00188000600fa000040eb00f0
:10386400504798000040eb00404798000000eb00f0
:10387400100798000000eb00000f78000ec2bf0094
:10388400624060000004e000010032000e22a90042
:103894009010800040479800ce409000b0c5b3001f
:1038a40080cf50000a003a004ccebf000004e00074
:1038b40007003a0010c0b3004aeeb7000040eb0026
:1038c4004deeb70010c0b3004ceeb7003b0037001c
:1038d4004acebf00e14f500038003a00ce4090007d
:1038e400d0c5b30080cf500034003a00d1e42000aa
:1038f4009140780020c2b30080cf50002f003a00de
:103904000040eb00504798000a0037005e409000ea
:103914008080fb00a0b920000080400010407800a7
:103924000080fb001e0f68005e4090000040e8002d
:10393400504798005e409000ff4f5000f3ff360060
:10394400bacbbf008080fb0000fd2f000080400048
:103954004400dd0080007800000f2000008060003b
:1039640010079800bbcbbf008080fb0000fd2f0038
:1039740000804000ef0060001e0090000100400045
:10398400100798001e0090009e0f500005003a009a
:1039940010c0b3004beeb7000040eb004ceeb70094
:1039a400060037000040eb004aeeb7000040eb0091
:1039b4004beeb7000040eb004ceeb7004dcebf001d
:1039c4008080fb00a0b9200000804000ce40900021
:1039d400014878004dcebf000040e8004deeb7002e
:1039e400d1e420009140780040c2b30080cf500061
:1039f400080036000040eb004deeb7000040eb003d
:103a04004aeeb7000040eb004beeb7000040eb007d
:103a14004ceeb7008520a9000080fa003400f900bc
:103a24004f00be00004006000000fa008540a900d7
:103a34000080fa0000400600809fbe000600fa00e5
:103a44000040eb00504798000040eb0040479800ce
:103a54000000eb00100798000000eb00000f780056
:103a640018c2bf00624060000004e00001003200a0
:103a74001822a900e010800040479800ce40900032
:103a8400b0c5b30080cf50000a003a0051cebf0049
:103a94000004e00007003a0010c0b3004feeb70086
:103aa4000040eb0052eeb70010c0b30051eeb70077
:103ab4003f0037004fcebf00e14f50003c003a00ba
:103ac400ce409000d0c5b30080cf500038003a00fb
:103ad40021e520009140780020c2b30080cf50003f
:103ae40033003a000040eb00504798000a003700ca
:103af4005e4090008080fb00e0be2000008040001b
:103b0400104078000080fb001e0f68005e409000ab
:103b14000040e800504798005e409000ff4f50007e
:103b2400f3ff36000eccbf008080fb0000fd2f00a9
:103b3400008040004400dd0080007800000f200079
:103b440000806000100798000fccbf008080fb004d
:103b540000fd2f0000804000ef0060001e00900078
:103b640001004000100798001e0090009e0f5000b6
:103b740007003a0010c0b30050eeb7000040eb005d
:103b840051eeb7000000eb00007888000800370011
:103b94000040eb004feeb7000040eb0050eeb700e2
:103ba4000040eb0051eeb7000000eb000078880005
:103bb40052cebf008080fb00e0be200000804000a9
:103bc400ce4090000148780052cebf000040e8008b
:103bd40052eeb70021e520009140780040c2b300c6
:103be40080cf50000a0036000040eb0052eeb700d0
:103bf4000040eb004feeb7000040eb0050eeb70082
:103c04000040eb0051eeb7000000eb0000788800a4
:103c14008700a9000080fa004f00be0000400600a3
:103c24000000fa008720a9000080fa000040060086
:103c34000000fa008740a900110a20009140780092
:103c440080cfb30000c06000a1e0b7008f40a9009e
:103c54008200a8008400a9008c00a900f053200071
:103c64004011880026c2a90027e2a8000080fa00bb
:103c7400000006000200fa000000eb00000f7800cc
:103c8400d762a900200020008b050700a0402c006b
:103c94005011880026c2bf00614060000004e000ab
:103ca400fcff320050118000000f78001e007800e5
:103cb4004e00de00610060000000e000fbff320007
:103cc400d762a800100020007b050700d762a90076
:103cd40050118000000f7800006028005011880007
:103ce40026c2bf00614060000004e000fcff320017
:103cf40050118000000f78001e0078004e00de0096
:103d0400610060000000e000fbff3200d762a80001
:103d14000080fa00000006000000fa0012cfbf0085
:103d24000004e0000500320013cfbf000004e000ef
:103d34000200320027000700240037001fcfbf0015
:103d44000004e00013003a00f1778000301f2000e7
:103d5400808f50001d00360017cfbf00e14f500088
:103d640003003a0020c0b30017efb7000500370086
:103d740017cfbf00e24f500002003a0010c0b3005a
:103d840017efb700020407000000eb00f07788008b
:103d94000e0037003e04070019cfbf00e14f50006a
:103da40003003a0016eea80018eea900050037003b
:103db40019cfbf00e24f500002003a0016eea900ee
:103dc40018eea8000040eb001cefb7000080fa00da
:103dd400000006000200fa005dcdbf008080fb00f9
:103de400d0042000808f50000100320021003700f1
:103df4005ecdbf000080fb00000f780010032000a0
:103e04009e007800808f50000500320020032000bf
:103e14009e007800808f50000c003200150037009f
:103e24005fcdbf008080fb0030042000808f5000f5
:103e3400010032000f0037000000eb0030788800ea
:103e440010c0b300130007000a0037005fcdbf00a5
:103e54008080fb0030042000808f5000010032007d
:103e6400040037000000eb004078880020c0b30055
:103e7400080007000040eb0012efb7000040eb0021
:103e840013efb7000040eb0014efb7000080fa0016
:103e9400000006000800fa00881f780060479800b8
:103ea4000000eb00200798000040eb00304798002a
:103eb4000040eb00204798000040eb0010479800ba
:103ec4000040eb00004f780060cdbf003047980001
:103ed40061cdbf002047980062cdbf001047980015
:103ee40063cdbf00004f7800be409000f0c2b30025
:103ef40080cf50003c003600be40900090c3b30019
:103f040080cf500038003e00ae409000f0c2b300b5
:103f140080cf500034003600ae40900090c3b30010
:103f240080cf500030003e009e409000f0c2b300ad
:103f340080cf50002c0036009e40900090c3b30008
:103f440080cf500028003e00f0c2b3009e4f100006
:103f54002500360090c3b3009e4f100022003e009f
:103f64002e4090008080fb00400620000088b900ad
:103f7400000178003e4090008080fb0000fd2f008f
:103f840080804000803e20000088b900000141008c
:103f94001e4090000080fb006a00b90080004100d0
:103fa4001e80fb008080400000b32e000080400093
:103fb400200798006e4090000084fb002e009000c3
:103fc400cf80de0075f10700d2cc2c00c3dc2300c7
:103fd400f0f107000001be00c240dd0040da20001d
:103fe400008040000288be0064cdbf0030479800c6
:103ff40065cdbf002047980066cdbf0010479800ec
:1040040067cdbf00004f7800be409000f0c2b300ff
:1040140080cf50003c003600be40900090c3b300f7
:1040240080cf500038003e00ae409000f0c2b30094
:1040340080cf500034003600ae40900090c3b300ef
:1040440080cf500030003e009e409000f0c2b3008c
:1040540080cf50002c0036009e40900090c3b300e7
:1040640080cf500028003e00f0c2b3009e4f1000e5
:104074002500360090c3b3009e4f100022003e007e
:104084002e4090008080fb00400620000088b9008c
:10409400000178003e4090008080fb0000fd2f006e
:1040a40080804000803e20000088b900000141006b
:1040b4001e4090000080fb006a00b90080004100af
:1040c4001e80fb008080400000b32e000080400072
:1040d400200798006e4090000084fb002e009000a2
:1040e400cf80de002df10700d2cc2c00c3dc2300ee
:1040f400a8f107000001be00c240dd0040db200043
:10410400008040000288be0068cdbf0030479800a0
:1041140069cdbf00204798006acdbf0010479800c2
:104124006bcdbf00004f7800be409000f0c2b300da
:1041340080cf50003c003600be40900090c3b300d6
:1041440080cf500038003e00ae409000f0c2b30073
:1041540080cf500034003600ae40900090c3b300ce
:1041640080cf500030003e009e409000f0c2b3006b
:1041740080cf50002c0036009e40900090c3b300c6
:1041840080cf500028003e00f0c2b3009e4f1000c4
:104194002500360090c3b3009e4f100022003e005d
:1041a4002e4090008080fb00400620000088b9006b
:1041b400000178003e4090008080fb0000fd2f004d
:1041c40080804000803e20000088b900000141004a
:1041d4001e4090000080fb006a00b900800041008e
:1041e4001e80fb008080400000b32e000080400051
:1041f400200798006e4090000084fb002e00900081
:10420400cf80de00e5f00700d2cc2c00c3dc230015
:1042140060f107000001be00c240dd0040dc200068
:10422400008040000288be006ccdbf00304798007b
:104234006dcdbf00204798006ecdbf001047980099
:104244006fcdbf00004f7800be409000f0c2b300b5
:1042540080cf50003c003600be40900090c3b300b5
:1042640080cf500038003e00ae409000f0c2b30052
:1042740080cf500034003600ae40900090c3b300ad
:1042840080cf500030003e009e409000f0c2b3004a
:1042940080cf50002c0036009e40900090c3b300a5
:1042a40080cf500028003e00f0c2b3009e4f1000a3
:1042b4002500360090c3b3009e4f100022003e003c
:1042c4002e4090008080fb00400620000088b9004a
:1042d400000178003e4090008080fb0000fd2f002c
:1042e40080804000803e20000088b9000001410029
:1042f4001e4090000080fb006a00b900800041006d
:104304001e80fb008080400000b32e00008040002f
:10431400200798006e4090000084fb002e0090005f
:10432400cf80de009df00700d2cc2c00c3dc23003c
:1043340018f107000001be00c240dd0040dd20008e
:10434400008040000288be0070cdbf003047980056
:1043540071cdbf002047980072cdbf001047980070
:1043640073cdbf00004f7800be409000f0c2b30090
:1043740080cf50003c003600be40900090c3b30094
:1043840080cf500038003e00ae409000f0c2b30031
:1043940080cf500034003600ae40900090c3b3008c
:1043a40080cf500030003e009e409000f0c2b30029
:1043b40080cf50002c0036009e40900090c3b30084
:1043c40080cf500028003e00f0c2b3009e4f100082
:1043d4002500360090c3b3009e4f100022003e001b
:1043e4002e4090008080fb00400620000088b90029
:1043f400000178003e4090008080fb0000fd2f000b
:1044040080804000803e20000088b9000001410007
:104414001e4090000080fb006a00b900800041004b
:104424001e80fb008080400000b32e00008040000e
:10443400200798006e4090000084fb002e0090003e
:10444400cf80de0055f00700d2cc2c00c3dc230063
:10445400d0f007000001be00c240dd0040de2000b5
:10446400008040000288be0074cdbf003047980031
:1044740075cdbf002047980076cdbf001047980047
:1044840077cdbf00004f7800be409000f0c2b3006b
:1044940080cf50003c003600be40900090c3b30073
:1044a40080cf500038003e00ae409000f0c2b30010
:1044b40080cf500034003600ae40900090c3b3006b
:1044c40080cf500030003e009e409000f0c2b30008
:1044d40080cf50002c0036009e40900090c3b30063
:1044e40080cf500028003e00f0c2b3009e4f100061
:1044f4002500360090c3b3009e4f100022003e00fa
:104504002e4090008080fb00400620000088b90007
:10451400000178003e4090008080fb0000fd2f00e9
:1045240080804000803e20000088b90000014100e6
:104534001e4090000080fb006a00b900800041002a
:104544001e80fb008080400000b32e0000804000ed
:10455400200798006e4090000084fb002e0090001d
:10456400cf80de000df00700d2cc2c00c3dc23008a
:1045740088f007000001be00c240dd0040df2000db
:10458400008040000288be006e4090008080fb00e6
:1045940082d720001241780040e0200000804000d3
:1045a400024878006e4090000081fb006e4090004d
:1045b4008080fb0040e02000008040001040780034
:1045c40061406000e1406000e1c060000201410020
:1045d40040e12000000041008180fb006181600017
:1045e400e1ff2f0010886000100871006e409000f9
:1045f4008081fb006e4090008080fb0040e0200042
:1046040000804000104078000080fb0062006000e1
:104614000080d100614160008380410040e12000be
:10462400808040000280fb006100600000014000c7
:10463400d0ff2f0091086000910871006e40900037
:104644008081fb006e4090008080fb0040e02000f1
:1046540000804000104078000080fb00640060008f
:104664004280de00614160008380410040e120001f
:10467400808040000280fb00610060004201dd0098
:10468400b0ff2f0091086000910871006e40900007
:104694008081fb006e4090008080fb0040e02000a1
:1046a40000804000104078000080fb00680060003b
:1046b4004380de00614160008380410040e12000ce
:1046c400808040000280fb00610060004301dd0047
:1046d40070ff2f0091086000910871006e409000f7
:1046e4008081fb006e4090008080fb0040e0200051
:1046f40000804000104078000080fb0070006000e3
:104704004480de00614160008380410040e120007c
:10471400808040000280fb00610060004401dd00f5
:10472400f0fe2f0091086000910871006e40900027
:104734008081fb006e4090008080fb0040e0200000
:1047440000804000104078008080fb0000022000c0
:10475400008060004580de0061416000838041008c
:1047640040e12000808040000280fb006100600086
:104774004501dd00f0fd2f009108600091087100f3
:104784006e4090008081fb006e4090008080fb00b2
:1047940040e0200000804000104078008080fb0052
:1047a40000042000008060004680de00614160005b
:1047b4008380410040e12000808040000280fb00b3
:1047c400610060004601dd00f0fb2f0091086000ed
:1047d400910871006e4090008081fb006e40900053
:1047e4008080fb0040e02000008040001040780002
:1047f4008080fb0000082000008060004780de000d
:10480400614160008380410040e1200080804000dd
:104814000280fb00610060004701dd00f0f72f001b
:1048240091086000910871006e4090008080fb0048
:1048340092d720001241780080e0200000804000e0
:10484400024878006e4090000081fb006e409000aa
:104854008080fb0080e02000008040001040780051
:1048640061406000e1406000e1c06000020141007d
:10487400e0e12000000041008180fb0061816000d4
:10488400e1ff2f0010886000100871006e40900056
:104894008081fb006e4090008080fb0080e020005f
:1048a40000804000104078000080fb00620060003f
:1048b4000080d1006141600083804100e0e120007c
:1048c400808040000280fb00610060000001400025
:1048d400d0ff2f0091086000910871006e40900095
:1048e4008081fb006e4090008080fb0080e020000f
:1048f40000804000104078000080fb0064006000ed
:104904004280de006141600083804100e0e12000dc
:10491400808040000280fb00610060004201dd00f5
:10492400b0ff2f0091086000910871006e40900064
:104934008081fb006e4090008080fb0080e02000be
:1049440000804000104078000080fb006800600098
:104954004380de006141600083804100e0e120008b
:10496400808040000280fb00610060004301dd00a4
:1049740070ff2f0091086000910871006e40900054
:104984008081fb006e4090008080fb0080e020006e
:1049940000804000104078000080fb007000600040
:1049a4004480de006141600083804100e0e120003a
:1049b400808040000280fb00610060004401dd0053
:1049c400f0fe2f0091086000910871006e40900085
:1049d4008081fb006e4090008080fb0080e020001e
:1049e40000804000104078008080fb00000220001e
:1049f400008060004580de006141600083804100ea
:104a0400e0e12000808040000280fb006100600043
:104a14004501dd00f0fd2f00910860009108710050
:104a24006e4090008081fb006e4090008080fb000f
:104a340080e0200000804000104078008080fb006f
:104a440000042000008060004680de0061416000b8
:104a540083804100e0e12000808040000280fb0070
:104a6400610060004601dd00f0fb2f00910860004a
:104a7400910871006e4090008081fb006e409000b0
:104a84008080fb0080e0200000804000104078001f
:104a94008080fb0000082000008060004780de006a
:104aa4006141600083804100e0e12000808040009b
:104ab4000280fb00610060004701dd00f0f72f0079
:104ac40091086000910871006e4090008080fb00a6
:104ad400a2d7200012417800c0e0200000804000ee
:104ae400024878006e4090000081fb006e40900008
:104af4008080fb00c0e0200000804000104078006f
:104b040061406000e1406000e1c0600002014100da
:104b140080e22000000041008180fb006181600090
:104b2400e1ff2f0010886000100871006e409000b3
:104b34008081fb006e4090008080fb00c0e020007c
:104b440000804000104078000080fb00620060009c
:104b54000080d100614160008380410080e2200038
:104b6400808040000280fb00610060000001400082
:104b7400d0ff2f0091086000910871006e409000f2
:104b84008081fb006e4090008080fb00c0e020002c
:104b940000804000104078000080fb00640060004a
:104ba4004280de00614160008380410080e2200099
:104bb400808040000280fb00610060004201dd0053
:104bc400b0ff2f0091086000910871006e409000c2
:104bd4008081fb006e4090008080fb00c0e02000dc
:104be40000804000104078000080fb0068006000f6
:104bf4004380de00614160008380410080e2200048
:104c0400808040000280fb00610060004301dd0001
:104c140070ff2f0091086000910871006e409000b1
:104c24008081fb006e4090008080fb00c0e020008b
:104c340000804000104078000080fb00700060009d
:104c44004480de00614160008380410080e22000f6
:104c5400808040000280fb00610060004401dd00b0
:104c6400f0fe2f0091086000910871006e409000e2
:104c74008081fb006e4090008080fb00c0e020003b
:104c840000804000104078008080fb00000220007b
:104c9400008060004580de00614160008380410047
:104ca40080e22000808040000280fb006100600000
:104cb4004501dd00f0fd2f009108600091087100ae
:104cc4006e4090008081fb006e4090008080fb006d
:104cd400c0e0200000804000104078008080fb008d
:104ce40000042000008060004680de006141600016
:104cf4008380410080e22000808040000280fb002d
:104d0400610060004601dd00f0fb2f0091086000a7
:104d1400910871006e4090008081fb006e4090000d
:104d24008080fb00c0e0200000804000104078003c
:104d34008080fb0000082000008060004780de00c7
:104d4400614160008380410080e220008080400057
:104d54000280fb00610060004701dd00f0f72f00d6
:104d640091086000910871006e4090008080fb0003
:104d7400b2d720001241780000e1200000804000fa
:104d8400024878004f0478000080fa000000060012
:104d94000400fa000040eb00204798000000eb00fc
:104da400000f7800b0c5b30080edb70050c5b30064
:104db40081edb70017cfbf000043b00082edb7000c
:104dc40030c4b30083edb70000c3b30084edb70073
:104dd40000c3b30085edb70000c3b30086edb70090
:104de4000040eb00204798000a0037002e40900056
:104df4008080fb0000d82000008040001040780034
:104e04000080fb001e0f68002e4090000040e80068
:104e1400204798002e409000e64f5000f3ff3600e4
:104e2400000f20001e0060004400de000043b000bc
:104e340087edb7001e0078006f4060000043b000ab
:104e440088edb700d0c5b30089edb7000040eb0092
:104e540020479800090037002e4090008080fb0016
:104e640000d8200000804000104078004e00070069
:104e74002e4090000040e800204798002e4090000b
:104e8400e94f5000f4ff36000080fa0000000600ed
:104e94000400fa000040eb00204798000000eb00fb
:104ea400000f7800b0c5b30080edb70050c5b30063
:104eb40081edb70000c3b30082edb70030c5b30085
:104ec40083edb70018cfbf000043b00084edb700f6
:104ed40019cfbf000043b00085edb7001acfbf0063
:104ee4000043b00086edb7000040eb002047980077
:104ef4000a0037002e4090008080fb0000d820007c
:104f040000804000104078000080fb001e0f680005
:104f14002e4090000040e800204798002e4090006a
:104f2400e64f5000f3ff3600000f20001e00600023
:104f34004400de000043b00087edb7001e00780097
:104f44006f4060000043b00088edb700d0c5b300e7
:104f540089edb7000040eb002047980009003700b6
:104f64002e4090008080fb0000d82000008040008c
:104f7400104078000c0007002e4090000040e8002c
:104f8400204798002e409000e94f5000f4ff36006f
:104f94000040eb001fefb7000000eb00f077880043
:104fa4000080fa00000006000200fa00004f7800ba
:104fb40010002000c0000700d762a8000000000015
:104fc40000000000000000000000000000000000dd
:104fd40000000000d762a9000000000000000000eb
:104fe40000000000000000000000000000000000bd
:104ff4001e80fb00010028000100400050118800c1
:1050040026c2bf00614060000004e000fcff3200e3
:10501400d762a8000060fe00c05d2000a600070063
:10502400020007000080fa00000006000200fa00f7
:105034000000eb00000f7800d762a800d762a90037
:1050440050118000000f7800006028005011880083
:1050540026c2bf00614060000004e000fcff320093
:1050640050118000000f78001e0078004e00de0012
:10507400610060000000e000fbff3200d762a8007e
:105084000080fa0000000600809fbe00821f7800a6
:105094003400f80000002000a00188000800fa0095
:1050a4000000eb00300798000000eb002007980098
:1050b4000000eb00100798000000eb00000f7800e0
:1050c400d762a90050118000300798000000eb005f
:1050d4005011880026c2bf00614060000004e00057
:1050e400fcff320026c2a90050118000300798004e
:1050f4003e00900080407800c0c3b30080cf5000d1
:105104000a003a0014cfbf000004e00007003a0090
:1051140010c0b30012efb7000040eb0015efb7006a
:1051240010c0b30014efb7003b00370012cfbf002c
:10513400e14f500038003a003e0090008040780073
:10514400e0c3b30080cf500033003a0051f1200097
:105154009140780020c2b30080cf50002e003a0066
:105164000000eb002007980009003700ae00900013
:10517400c0d5200000804000104078000080fb0073
:105184001e0f68002e0090000000e8002007980021
:105194002e009000ff0f5000f4ff36007ccdbf00be
:1051a4008080fb0000fd2f00008040004400dd00f3
:1051b40080007800000f2000008060001007980035
:1051c4007dcdbf008080fb0000fd2f0000804000eb
:1051d400ef0060001e0090000100400010079800de
:1051e4001e0090009e0f500005003a0010c0b3004e
:1051f40013efb7000040eb0014efb70006003700d0
:105204000040eb0012efb7000040eb0013efb700d3
:105214000040eb0014efb70015cfbf000081fb0086
:105224003e00900080407800c0d52000000041007e
:105234000148780015cfbf000040e80015efb70023
:1052440051f120009140780040c2b30080cf50005b
:10525400080036000040eb0015efb7000040eb00fb
:1052640012efb7000040eb0013efb7000040eb0073
:1052740014efb700d762a8008400a9000080fa00e8
:105284003400f9004f0178004f00be0000400600d2
:105294003400f800881f780008002000a801880066
:1052a4004f0478000000fa008740a9000080fa004b
:1052b4003400f900004006000400fa0010079800ca
:1052c4000000eb00000f780002003700000000002f
:1052d4001e0fe8001e0090009e0f1000fbff390017
:1052e4000080fa00000006000000fa00000c2e0006
:1052f40040158800400e2000001588000000eb00d7
:10530400301588000080eb00501588004010200004
:1053140020158800c0432000101588009109200042
:1053240091407800f0c8b30000c0600099e0b70075
:105334008560a9008d60a900a1e2a8000080fa00a0
:10534400000006003e00fa00881f780080148000e8
:10535400700798009114800061079800a2148000df
:1053640052079800b014800040079800c1148000d0
:10537400310798005e009000e90f500003003600ea
:105384005e0090006a00500050079800027580008b
:10539400137580007e009000010020000200400090
:1053a400838048000075880011758800227580008c
:1053b400337580006e009000010020000200400060
:1053c400838048002075880031758800d6cebf00e0
:1053d4000040e800d6eeb700d6cebf00ff4f500025
:1053e4001600360000758000117580004b09dd0041
:1053f4004500de0000007100c508de00c0768800ac
:1054040020758000317580004b09dd004500de0009
:1054140000007100c508de00d07688000040eb0073
:10542400d6eeb7006000b8000075880011758800da
:105434006000b8002075880031758800e07680002f
:105444006f00b90080007800e07680000080500092
:1054540001002000f2002000811f780011000900e3
:105464004208d800cf007800200798005e00900022
:1054740001002000f2002000811f780011000900c3
:105484004208d800cf00780010079800ae009000c2
:105494001e009000008f40001e007800e076880017
:1054a400f07680006f00b90080007800f07680000c
:1054b4000080500001002000f2002000811f7800cd
:1054c400110009004208d800cf0078002007980096
:1054d4004e00900001002000f2002000811f78009f
:1054e400110009004208d800cf0078001007980086
:1054f400ae0090001e009000008f40009e007800d7
:10550400f1768800007780006f00b9008000780091
:10551400007780000080500001002000f20020008d
:10552400811f7800110009004208d800cf007800dc
:10553400200798003e00900001002000f2002000a7
:10554400811f7800110009004208d800cf007800bc
:1055540010079800ae0090001e009000008f4000dd
:105564001e01780002778800c07680006103b800cd
:105574008600780040062000000ab8006030b900b8
:1055840005017800000141004006200000b8b90080
:105594000001410082027800720a20001100090013
:1055a400422ad800000f98000e0890001077880057
:1055b40021ed20009140780020c3b30080cf50003b
:1055c4001800360030c3b300d2eeb700187780005d
:1055d4006140b900f1eb0700501f9800611f98006b
:1055e4000800e00007003d000200200003782400ca
:1055f4005e189000ee1890004beb0700501f9800c7
:10560400611f9800d2cc2c00c3dc23005e189000ec
:10561400ee1890005fec0700e0728800f1728800d9
:105624000e0037001177800060778000808f500073
:10563400040031001177800070778000808f500063
:1056440004003e00d2cebf000040e800d2eeb70016
:10565400020037000040eb00d2eeb700187780005c
:105664006140b900cdeb0700301f9800411f98003e
:105674000800e00007003d00020020000378240039
:105684003e189000ce18900027eb0700301f9800ba
:10569400411f9800d2cc2c00c3dc23003e1890009c
:1056a400ce1890003bec0700e0728800f17288008d
:1056b400d07680006103b8008600780040062000a0
:1056c400000ab8006030b90005017800000141000b
:1056d4004006200000b8b9000001410082027800b1
:1056e400720a200011000900422ad800000f980015
:1056f4008e0890003177880031ed200091407800c9
:1057040020c3b30080cf50001800360030c3b3006c
:10571400d3eeb700387780006140b9009feb0700f3
:10572400101f9800211f98000800e00007003d00aa
:1057340002002000037824001e189000ae18900088
:10574400f9ea0700101f9800211f9800d2cc2c0002
:10575400c3dc23001e189000ae1890000dec070067
:10576400a0728800b172880023003700317780006e
:1057740080778000808f50000400310031778000f2
:1057840090778000808f500004003e00d3cebf008d
:105794000040e800d3eeb700170037000040eb00ec
:1057a400d3eeb700387780006140b9007beb070087
:1057b40070179800011f98000800e00007003d00e2
:1057c40002002000037824007e1090008e189000c0
:1057d400d5ea070070179800011f9800d2cc2c005e
:1057e400c3dc23007e1090008e189000e9eb0700c4
:1057f400a0728800b1728800387780006140b900d7
:1058040066eb070050179800611798000800e00045
:1058140007003d0002002000037824005e10900081
:10582400ee109000c0ea0700501798006117980026
:10583400d2cc2c00c3dc23005e109000ee1090004c
:10584400d4eb0700a0728800b1728800a0728000b7
:10585400b1728000827380009373800011eb0700a3
:105864000000e00001003d000300370010c0b30059
:105874006ceeb7000f003700a0728000b172800098
:10588400a2738000b373800004eb07000000e00003
:10589400010034000300370010c0b3006deeb70000
:1058a400040037000040eb006ceeb7000040eb0052
:1058b4006deeb700e07680006102b80084007800e5
:1058c400a0002000000bb8006020b9000701780098
:1058d400000141006a28b9000001410082037800f8
:1058e400f200200011000900423bd800000f98008c
:1058f4000e0990002277880041ed20009140780045
:1059040020c3b30080cf50003500360030c3b3004d
:10591400d4eeb70020778000823e200011000900f9
:105924000280d8005057980020778000823e2000e3
:10593400110009000280d8008000fd00420620000a
:10594400110009000280d800405798002077800099
:1059540042062000110009000280d8008000fd00ea
:10596400a2002000110009000280d80030579800de
:1059740020778000a2002000110009000280d800d6
:105984008000fd0020579800287780006140b9000e
:1059940002eb070030179800411798000800e00058
:1059a40007003d0002002000037824003e10900010
:1059b400ce1090005cea0700301798004117980059
:1059c400d2cc2c00c3dc23003e109000ce109000fb
:1059d40070eb070000738800117388003c003700e7
:1059e40021778000a0778000808f50000400390068
:1059f400d4cebf000040e800d4eeb7003400370036
:105a04000040eb00d4eeb70020778000823e2000f7
:105a1400110009000280d8005057980020778000b8
:105a2400823e2000110009000280d8008000fd00a1
:105a340042062000110009000280d8004057980057
:105a44002077800042062000110009000280d8005f
:105a54008000fd00a2002000110009000280d8008f
:105a64003057980020778000a20020001100090020
:105a74000280d8008000fd0020579800287780001d
