:020000040000fa
:080000000001040000000000f3
:020000040000fa
:100200006f1621000e7f22000e0188000000000002
:100210000c00070040dd260001002000110007004f
:10022000000020000000e000020032000000020098
:1002300000000000f6610200000000000040da004b
:100240000000fe004440a900a06420000000e0007f
:100250000300320000002000a00188004440a800f4
:100260000000060091018800800078000000eb008b
:1002700015003700e280400032a0b4009101ba00be
:10028000e280400032a0b4009102ba00e280400057
:1002900032a0b4000002eb00472bde00f507b200ed
:1002a000602ce10004003a000059eb008301e900f2
:1002b000fdff3e00040037006128e100010032002c
:1002c0000082eb00040007001101ba000200e00008
:1002d000e8ff3a00000006003159ba008301e90046
:1002e0000c0032002159ba008301e90008003200f5
:1002f0000400e00003003a00e280400032a0b400b5
:10030000f5ff370011d9ba008301e900faff3a007e
:100310008100e800e180400032a0b4000000060047
:100320000040da000000fe0003f0a200889fbe003b
:100330008a9fbe008c1f78003f01070046013300f2
:100340006450e1004f0032006420e10052003200ae
:1003500003826c0007003b000905d0000306d000b3
:10036000820f54000c065d000200390002003200ca
:1003700089017800030678008582550004003d005d
:100380000003fd008103fd008502ea008b85420029
:10039000840f720002003b0060001000e080180033
:1003a0006011b8000005eb007a28e1000a0039006e
:1003b00006007800c75ddd00f707b2008780750092
:1003c0002d003700828171000a017800610560000c
:1003d0008180d1000080d3008502e900f9ff3b0055
:1003e000060440008784480002003b0060041400bb
:1003f000e0841c000988a300070032008a81710094
:1004000082817100610164008904d1000884d300f5
:100410008b05e800170037000978a30013003a00a5
:100420000b00e000130034008b05e90008044400d1
:1004300089844c000a4474000978a3000d003a0036
:100440000b00e000070034008b05e90008044400bd
:1004500089844c0001003a000b0020000978a300b9
:10046000f7ff32000001eb000200370082817100cb
:100470000a017800b50007000cf0a70001f0a00009
:10048000fe0037006420e10002003a00838f6c0018
:10049000fe0033000801be000200be00f700370076
:1004a000889fbe008a9fbe008c1f7800e200070074
:1004b000e900330003866c006450e1002e00320036
:1004c0006420e100330032006150e1002f0032006f
:1004d0006120e1003100320085855500eb07b00056
:1004e000090020000804200005003700080444002b
:1004f00089844c000a0031000603430087834b00c7
:100500000001530081815b00f8ff33000203be004d
:100510000800a0000804440089844c00f6ff39005c
:10052000c639dd0083017300010032001300200092
:100530008904d1000884d3000998a3000500320083
:100540000800a7000300a0008904d1000884d3009c
:100550008b05e8008904d1000884d3000001eb007a
:100560000281d2007900070001f0a1000cf0a70081
:1005700001f0a000c10037006420e100c300320098
:100580000801be000200be00f7ff37006120e10055
:10059000be0032006000b800f3ff3700000020000a
:1005a00001f82700f0ff37000001be008d000700b2
:1005b0000470a70003f0a1006509b1001600320025
:1005c0000d0035006828e10006003500f0ff2f001f
:1005d000f1ff27000300e00013003b0001002800aa
:1005e0000000050000004000818048008502e9000d
:1005f000fcff3a0008003700f88f420002003c0080
:100600008000eb00000005008100d1000080d300d5
:100610008502e800fcff3a000300e00002003b0016
:1006200060001000e0801800000006000001be001d
:100630006c0007000470a70003f0a10003f8a300fa
:1006400013003a006509b1001000320009003500be
:100650006928e100020035000100280000000500c3
:1006600000004000818048008502e900fcff3a005c
:1006700000000600f88f4200050035008100d1001f
:100680000080d3008502e800fcff3a00000006006d
:100690008000eb0000000500889fbe008a9fbe001e
:1006a000010578000100e0000400350008003c006e
:1006b0000000e0002000320005003700600010005c
:1006c000e080180002003b0001f02c001a00370007
:1006d0000004be006011b8006b0920000982cf0041
:1006e000020039000882cf000441b0006942520084
:1006f0000e00320008003b0082817100610164003d
:100700008904d1000884d3008b05e8000442e80086
:10071000f9ff3a00050037000804440089844c00c2
:100720008b05e9000442e900fbff3a0007000700df
:100730000af0a70001f0a0004f05be004f04be0064
:100740000000060004002000870037008100200020
:10075000618055000b003d000b00200061fe2f0062
:100760000100e1001d00340082817100610164001c
:100770008904d1000884d3000000e800faff3a00a1
:10078000710020006100640003007000020060003e
:100790000900320061044400e0844c000988a5008f
:1007a000050032008b05e8006808e10002003a000d
:1007b0008904d1000884d300f20f20000258e10020
:1007c00005003d00c75ddd00f907b20089807500b6
:1007d00008007800000006000bf827008b00780066
:1007e00000000500c70ade00f107b200f50fb200f5
:1007f00008003200e1cf4200020032000170a00088
:1008000024000500810f700001003200040805007b
:1008100044000500810f700002003a00140005003a
:100820008502e9000000400081c04800fcff3b0059
:100830000170a000240005000004be00e9ff0700cd
:100840000003be000405be000200be00e5ff070075
:10085000844f7500000006000200be006450e100f5
:10086000050036006420e100020036000968a3009c
:1008700001003a000800be000160a0004f067800a9
:100880004f05be004f04be0000000600f0ff2f0021
:10089000f1ff2700f9ff3700889fbe008a9fbe0046
:1008a0008c1f7800e4ff0700ebff330003866c0029
:1008b0006450e100240032006420e100270032008f
:1008c0006150e100220032006120e100210032008d
:1008d0008b854200eb07b1000134b800003ab80044
:1008e0000804420089844a00013ab8000030b80088
:1008f0008880400009014a000400330000004000e5
:1009000081804800020149008b05e900c909dd002a
:10091000830170000100320013002000c814de00c3
:100920004814dd004709de001200b200c808de00ee
:100930000884700085ff070001f0a1000cf0a700fb
:1009400001f0a000cdff37006120e100cfff3200b1
:100950000801be000200be00f7ff37006150e10051
:10096000fcff3a00c9ff3700889fbe008a9fbe0087
:10097000841f7800b0ff07004f007800110033009b
:10098000f0ff2f00838f6c0006003b00040565001c
:100990000a00a7000800370009f0a6001000200098
:1009a00008003700820f5400838f5c000300390079
:1009b0001000200001003e000000200009f0a70008
:1009c0000000ea004f05be004f04be000000e0003a
:0409d000000006001d
:020000040000fa
:0200000401f009
:04000000f1bf00004c
:020000040000fa
:0200000401f009
:04000400ff7f00007a
:020000040000fa
:0200000401f009
:04000800cfff000026
:020000040000fa
:1000080090010000900100009001000090010000a4
:100018009001000090010000900100009001000094
:10002800900100009001000090010000be630000f4
:100038009001000090010000586400009001000049
:10004800900100006660000044610000900100001b
:100058009001000090010000900100009001000054
:100068009001000090010000900100009001000044
:100078009001000090010000900100009001000034
:100088009001000090010000900100009001000024
:100098009001000090010000900100009001000014
:1000a8009001000090010000900100009001000004
:1000b80090010000900100009001000090010000f4
:1000c80090010000900100009001000090010000e4
:1000d80090010000900100009001000090010000d4
:1000e80090010000900100009001000090010000c4
:0800f8009001000090010000de
:020000040000fa
:1001080090010000900100009001000090010000a3
:100118009001000090010000900100009001000093
:10012800900100009001000090010000be630000f3
:100138009001000090010000586400009001000048
:10014800900100006660000044610000900100001a
:100158009001000090010000900100009001000053
:100168009001000090010000900100009001000043
:100178009001000090010000900100009001000033
:100188009001000090010000900100009001000023
:100198009001000090010000900100009001000013
:1001a8009001000090010000900100009001000003
:1001b80090010000900100009001000090010000f3
:1001c80090010000900100009001000090010000e3
:1001d80090010000900100009001000090010000d3
:1001e80090010000900100009001000090010000c3
:0801f8009001000090010000dd
:020000040000fa
:1009d400496e000069740000696100006c690000e0
:1009e4007a6900006e6700002020000020200000cb
:1009f400004900006e69000074690000616c000029
:100a0400697a0000696e0000672e00002020000053
:100a140020000000496e0000697400006961000054
:100a24006c6900007a6900006e6700002e2e0000d9
:100a340020200000004900006e6900007469000075
:100a4400616c0000697a0000696e0000672e000086
:100a54002e2e000020000000496e00006974000082
:100a6400696100006c6900007a6900006e6700002b
:100a74002e2e00002e2e0000002000002a2a000046
:100a840048460000432d00003331000030300000a0
:100a9400442a00002a2000002000000044690000cd
:100aa40067690000746100006c2000004368000066
:100ab40061720000676500007220000000530000ae
:100ac400656f0000756c0000204500006c65000037
:100ad400632e0000506f0000776500007200000074
:100ae400546500006c29000030330000322d0000f2
:100af40036380000312d0000383400003131000058
:100b040000000000000000000000000000000000e1
:100b140000000000002a000042610000747400001c
:100b24002e5600006f6c000074260000416d00001a
:100b3400702a000020000000202000002020000077
:100b440020200000202000002020000020200000a1
:100b540020200000202000000042000061740000fa
:100b6400743a000020200000202e000020560000cf
:100b740020200000202000004100000000000000b0
:100b84000000000000000000000000000000000061
:100b94002a4c00006f61000064200000566f0000c2
:100ba4006c740000264100006d7000002a200000d3
:100bb400004c00006f610000643a00002020000037
:100bc400202e0000205600002020000020200000dd
:100bd40041000000202000002a2a000020530000c9
:100be4006574000075700000202a00002a200000af
:100bf4002020000000200000205b00002a2a0000c2
:100c04002a2a00002a2a00002a2a00002a5d00005d
:100c1400202000002000000020500000617300002c
:100c2400737700006f72000064730000206100009d
:100c34007265000020200000002000006e6f00009c
:100c440074200000746800006520000073610000d7
:100c54006d6500002e200000200000002020000010
:100c64002a2a000020440000656200007567000025
:100c7400202a00002a20000020200000002a000072
:100c84002a20000042610000747400002e4100001c
:100c94006c610000726d0000202a00002a00000030
:100ca4004d610000782000003a2000002020000060
:100cb40020200000205600002020000020200000fa
:100cc400004d0000696e0000203a00002020000062
:100cd40020200000202000005620000020200000da
:100ce400200000004d610000782000003a20000040
:100cf4002020000020200000202e000020200000e2
:100d040056200000004d0000696e0000203a0000eb
:100d14002020000020200000202000002e200000c1
:100d240020560000200000005f0000005265000013
:100d340073740000617200007420000054690000a4
:100d44006d65000020530000657400000020000061
:100d5400202000002020000020200000204d000062
:100d6400696e000020200000202000002000000008
:100d740020200000002000002a2a0000496e000004
:100d840069740000696100006c6900007a65000004
:100d94002a2a00002000000020200000202000005b
:100da400202000004e4f00002020000020200000e2
:100db4002020000020200000004e00004f00000012
:100dc40020200000200000005945000053000000ce
:100dd400202a00002a2000005061000073730000e4
:100de400776f000072640000202a00002a200000af
:100df400004f00004c440000203a00002020000076
:100e040020200000202000002020000020200000de
:100e1400200000004e450000572000003a2000004a
:100e24002a2a00002a2a00002a2a00002a2a00006e
:100e34002a200000002000002a2a0000416c000043
:100e4400617200006d200000537400006f70000098
:100e54002a2a000020000000202000004275000023
:100e64007a7a000065720000203a0000204f0000ea
:100e74004e2000002020000000200000204200003e
:100e8400757a00007a650000722000003a200000a4
:100e94004f460000462000002000000020200000f3
:100ea400427500007a7a000065720000203a000062
:100eb400202000002020000020200000002000004e
:100ec40020420000757a00007a650000722000005c
:100ed4003a2000004f4e000020200000002a0000ad
:100ee4002a4100006c610000726d00004869000036
:100ef400737400006f720000792a00002a00000059
:100f040020200000202000004e6f000074680000c4
:100f1400696e0000672000002020000020200000ef
:100f2400002000002a2a00004261000074740000be
:100f34002020000054790000706500002a2a000077
:100f440020000000504200002d3100003235000026
:100f5400202000002020000020200000202a000083
:100f64002020000000500000422d0000313200001b
:100f74003520000020200000202000002020000058
:100f84002020000020000000504200002d3100000d
:100f9400313000002020000020200000202000002c
:100fa400202a00002020000000500000422d0000f4
:100fb40031310000302000002020000020200000fb
:100fc4002020000020200000200000004c690000c8
:100fd4002d4900006f6e000020200000202000003a
:100fe40020200000202a000020200000004c0000e7
:100ff400692d0000496f00006e20000020200000d1
:1010040020200000202000002020000020000000fc
:101014002a3c00002d000000202a00002a4900007c
:101024006e70000075740000205600006f6c0000a4
:10103400742a00002a200000003300003830000029
:101044005641000043200000202000002020000022
:10105400202000002a200000200000003338000077
:1010640030560000414300002020000020200000f2
:10107400202000002020000020200000003200007a
:1010840032300000564100004320000020200000c0
:10109400202000002020000020200000200000006c
:1010a400323200003056000041430000202000008e
:1010b4002020000020200000202a00002020000022
:1010c400002a00004f700000657200006174000087
:1010d400696f00006e200000547900007065000004
:1010e4002a00000053740000616e0000642d0000ab
:1010f400416c00006f6e000065200000202a000093
:101104002020000000530000746100006e640000a1
:101114002d4100006c6f00006e650000202000006f
:1011240020200000200000004c6f000061640000db
:101134002d5300006861000072650000202000004b
:101144002020000020200000004c00006f610000ff
:10115400642d0000536800006172000065200000e7
:10116400202000002a200000200000002020000091
:101174002a2a00005359000053200000547900002b
:10118400706500002a2a00002020000000440000ae
:10119400756100006c2000004d6f00006475000054
:1011a4006c650000202000002a20000020000000c0
:1011b40044750000616c0000204d00006f64000065
:1011c400756c000065200000202000002020000035
:1011d40000530000696e0000676c00006520000089
:1011e4004d6f0000647500006c6500002020000055
:1011f40020000000536900006e6700006c65000069
:10120400204d00006f640000756c0000652a00002a
:101214002020000000200000202000003c200000ce
:10122400202000002f200000202000003e2000008d
:10123400202000002000000020200000202f0000bb
:10124400202000002f20000020200000202000008b
:101254003a2000002020000000230000312000007c
:10126400496e00002e2000004869000067680000f5
:10127400205600006f6c0000740000002331000051
:10128400204900006e2e0000204c00006f77000003
:1012940020200000566f00006c7400000020000045
:1012a40020200000233100002041000043200000e2
:1012b40046610000696c000020200000200000004e
:1012c40023310000204f0000757400002e480000f8
:1012d4006967000068200000566f00006c7400000d
:1012e40000230000312000004f750000742e000020
:1012f4004c6f000077200000205600006f6c000047
:101304007400000023310000204f000075740000b9
:101314002e4f000076650000722000004375000027
:101324007272000000200000202300003120000021
:101334004f7600006572000020540000656d0000c7
:10134400702000002000000023320000204900002b
:101354006e2e00002048000069670000682000002d
:10136400566f00006c74000000230000322000005f
:10137400496e00002e2000004c6f00007720000012
:10138400205600006f6c0000740000002020000054
:1013940020230000322000004143000020460000ca
:1013a400616900006c200000202000000023000080
:1013b400322000004f750000742e000048690000c0
:1013c40067680000205600006f6c00007400000085
:1013d40023320000204f0000757400002e4c0000e2
:1013e4006f77000020200000566f00006c7400002e
:1013f40000230000322000004f750000742e00000e
:101404004f760000657200002043000075720000f2
:10141400720000002020000023320000204f000052
:101424007665000072200000546500006d700000b5
:101434002020000000420000617400007465000078
:1014440072790000204800006967000068560000b7
:101454006f6c0000740000004261000074740000ae
:1014640065720000792000004c6f000077200000b6
:10147400566f00006c74000000230000312000004f
:101484004f750000742e0000486900006768000072
:10149400204100006c6d000020000000233100009a
:1014a400204f0000757400002e4c00006f77000080
:1014b400204100006c6d000020200000002300008b
:1014c400322000004f750000742e000048690000af
:1014d40067680000204100006c6d000020000000df
:1014e40023320000204f0000757400002e4c0000d1
:1014f4006f770000204100006c6d00002020000088
:1015040000200000202000002331000020530000b0
:1015140074610000727400007570000020200000e7
:1015240020000000202000002023000032200000c2
:101534005374000061720000747500007020000094
:10154400202000000023000031200000464c000051
:101554004f41000054200000436800006172000005
:1015640067650000200000002331000020450000d2
:1015740051550000414c0000204300006861000008
:101584007267000065200000002300003220000084
:10159400464c00004f410000542000004368000006
:1015a4006172000067650000200000002332000023
:1015b4002045000051550000414c0000204300002c
:1015c400686100007267000065200000002a0000c6
:1015d4002a540000696d00006520000026200000e8
:1015e40044610000746500002a2a00002000000005
:1015f400546900006d6500002026000020440000ae
:101604006174000065200000536500007420000030
:101614000044000061740000652000003a320000bc
:1016240030200000202f0000202000002f20000088
:1016340020000000546900006d650000203a00009d
:10164400202000003a200000203a00002020000062
:1016540020200000003e0000003a0000002f00009f
:041664000000000082
:020000040000fa
:101668000000fa001ecfbf00e14f5000ba003a0058
:1016780011c0b3000040eb002a020700a04e28006a
:1016880055020700e3000700d6c2bf000080fb0038
:101698004400de00614060000004a2006140600078
:1016a800614060004401dd00612d20009140780018
:1016b800f0ceb30000c0600002407000d6e2b70070
:1016c800cc2d0700df000700d6c2bf000080fb005a
:1016d8004400de00614060000004a2006140600038
:1016e800614060004401dd00612d200091407800d8
:1016f800f0ceb30000c0600002407000d6e2b70030
:10170800bc2d070011c0b3000040eb000502070024
:10171800b04f280030020700d6000700d6c2bf002d
:101728000080fb004400de00614060000004a2006d
:1017380061406000614060004401dd00612d2000cf
:1017480091407800f0ceb30000c060000240700005
:10175800d6e2b700a72d0700cb000700d6c2bf000e
:101768000080fb004400de00614060000004a2002d
:1017780061406000614060004401dd00612d20008f
:1017880091407800f0ceb30000c0600002407000c5
:10179800d6e2b700972d070011c0b3000040eb0058
:1017a800e0010700c05028000b020700bb0007003b
:1017b800d6c2bf000080fb004400de00614060002c
:1017c8000004a20061406000614060004401dd0047
:1017d800612d200091407800f0ceb30000c0600079
:1017e80002407000d6e2b700822d0700b200070061
:1017f800d6c2bf000080fb004400de0061406000ec
:101808000004a20061406000614060004401dd0006
:10181800612d200091407800f0ceb30000c0600038
:1018280002407000d6e2b700722d070011c0b30065
:101838000040eb00bb010700d0512800e60107007b
:10184800a4000700d6c2bf000080fb004400de00f1
:10185800614060000004a2006140600061406000d7
:101868004401dd00612d200091407800f0ceb300e6
:1018780000c0600002407000d6e2b7005d2d07008e
:10188800a6000700d6c2bf000080fb004400de00af
:10189800614060000004a200614060006140600097
:1018a8004401dd00612d200091407800f0ceb300a6
:1018b80000c0600002407000d6e2b7004d2d07005e
:1018c80011c0b3000040eb0096010700e052280069
:1018d800c10107007f000700d6c2bf000080fb00df
:1018e8004400de00614060000004a2006140600026
:1018f800614060004401dd00612d200091407800c6
:10190800f0ceb30000c0600002407000d6e2b7001d
:10191800382d070081000700d6c2bf000080fb00f9
:101928004400de00614060000004a20061406000e5
:10193800614060004401dd00612d20009140780085
:10194800f0ceb30000c0600002407000d6e2b700dd
:10195800282d07002d00370011c0b3000040eb0010
:1019680070010700a04e28009b010700290007000e
:10197800202d0700330007001e2d070011c0b300fb
:101988000040eb0067010700b04f280092010700f4
:1019980038000700172d07003b000700152d07002a
:1019a80011c0b3000040eb005e010700c0502800e2
:1019b80089010700390007000e2d07003e000700c7
:1019c8000c2d070011c0b3000040eb0055010700c3
:1019d800d0512800800107003e000700052d0700b0
:1019e8004e000700032d070011c0b3000040eb00b4
:1019f8004c010700e0522800770107003500070076
:101a0800fc2c070045000700fa2c07000080fa00ac
:101a1800000006000000fa00cb62a900cb82a900f2
:101a2800e9e2a900d022a900d742a900d722a9003b
:101a3800d1a2a900caa2a900ca82a9000080fa00fe
:101a4800000006000000fa00cb62a800cb82a800c4
:101a5800e9e2a800d022a800d742a800d722a8000f
:101a6800d1a2a800caa2a800ca82a8000080fa00d1
:101a7800000006000000fa00d622a900d642a900fc
:101a88000080fa00000006000000fa00d622a80034
:101a9800d642a8000080fa00000006000000fa0004
:101aa800d602a900d762a900e822a900e802a90085
:101ab8000080fa00000006000000fa00d602a80024
:101ac800d762a800e822a800e802a8000080fa006f
:101ad800000006000000fa00e9e2a900d022a900ef
:101ae800caa2a900ca82a900cb62a900cb82a90018
:101af800d722a900d742a900d622a900d1a2a900bd
:101b0800d642a900d602a900d762a900e822a900f6
:101b1800e802a9000080fa00000006000000fa00b0
:101b2800e9e2a800d022a800caa2a800ca82a80098
:101b3800cb62a800cb82a800d722a800d742a80071
:101b4800d622a800d1a2a800d642a800d602a80092
:101b5800d762a800e822a800e802a8000080fa00de
:101b6800000006000200fa000000eb00000f7800f9
:101b7800ecd0bf008080fb00400620000088b90040
:101b880000017800ebd0bf008080fb0000fd2f0033
:101b980080804000803e20000088b900000141009c
:101ba800edd0bf000080fb006a00b9008000410052
:101bb800eed0bf000080fb008080400000b32e0004
:101bc800008f40001e007800cf80de00b0fa0700ca
:101bd800d2cc2c00c3dc23002dfb0700f082880048
:101be80001838800f0d0bf008080fb004006200001
:101bf8000088b90000017800efd0bf008080fb00aa
:101c080000fd2f0080804000803e20000088b90041
:101c180000014100f1d0bf000080fb006a00b9005c
:101c280080004100f2d0bf000080fb0080804000af
:101c380000b32e00008f40001e007800cf80de0029
:101c480093fa0700d2cc2c00c3dc230010fb07005a
:101c58001083880021838800f5d0bf000080fb0036
:101c68006a00b900000f78001e007800cf80de00ff
:101c780087fa0700d2cc2c00c3dc230004fb070042
:101c880068fa0700308388000080fa000000060028
:101c98000000fa005016800000408800cba2a9007e
:101ca8005116800000ff2f00008060005016880049
:101cb8003116800000ff2f00008060003016880079
:101cc800c7a2a900c782a900c7c2a90051168000ef
:101cd80000ff2f000080600050168800501680001a
:101ce8003000b3005016880074000700490107004f
:101cf8005116800000ff2f000080600050168800f9
:101d0800501680003000b300501688006b000700a2
:101d1800400107005116800000ff2f00008060007e
:101d280050168800501680003000b3005016880006
:101d380062000700370107005116800000ff2f00de
:101d48000080600050168800501680000010a00027
:101d580050168800590007002e01070080c2b30002
:101d68000e00070036010700c0c0b3000b000700d3
:101d78003301070060c0b300080007003001070006
:101d880010c0b300050007002201070000408000d2
:101d9800501688000080fa00000006000200fa00d1
:101da800004f780050168000004088009e80fb009d
:101db800000f2000008060004480de0002e8b700c9
:101dc8005116800000ff2f008080600002c8bf000d
:101dd8000080fb0000807000501688003700070064
:101de8009e4078006fc0600002e8b700511680007e
:101df80000ff2f008080600002c8bf000080fb0049
:101e080000807000501688002c00070000408000f9
:101e1800501688000a0107000080fa00000006003a
:101e28000200fa00004f7800501680000040880039
:101e38009e80fb00000f2000008060004480de00d0
:101e480002e8b7005116800000ff2f008080600074
:101e580002c8bf000080fb00008070005016880098
:101e6800230007009e4078006fc0600002e8b700ba
:101e78005116800000ff2f008080600002c8bf005c
:101e88000080fb00008070005016880018000700d2
:101e98000040800050168800e90007000080fa0022
:101ea800000006000200fa00004f78001e4078008b
:101eb800dbff07000080fa00000006000000fa00bf
:101ec800e202a90000000000cbc2a9000000000047
:101ed800cba2a800000000000000000000000000e5
:101ee80000000000cba2a9000080fa000000060054
:101ef8000000fa00e202a80000000000cbc2a9001e
:101f080000000000cba2a8000000000000000000b4
:101f18000000000000000000cba2a9000080fa0029
:101f2800000006000400fa00004f780011479800ee
:101f38001e4090000080fb00100798001e009000d3
:101f4800e10f5000130032001e009000e10f500016
:101f580004003c001e0090000000e0000800320071
:101f68001a0037001e009000e20f50000e003200e9
:101f78001e009000e30f50001000320013003700dd
:101f88009e40780000c8b30000c0400083ff0700ef
:101f98000e0037009e40780000ccb30000c040001f
:101fa8007eff0700090037009e40780000c9b30093
:101fb80000c0400079ff0700040037009e40780009
:101fc80000cdb30000c0400074ff07009c0007006c
:101fd8000080fa00000006000200fa00000f7800f6
:101fe8001e0078001040780003e8b70003c8bf005f
:101ff8000004e0000400320003c8bf0088ff0700a7
:102008001e0fe800f6ff37000080fa000000060007
:102018000200fa00000f78001e00780010407800d7
:1020280003e8b70003c8bf000004e0000400320062
:1020380003c8bf007aff07001e0fe800f6ff37004d
:102048000080fa00000006000400fa00204798000b
:102058002e4090000080fb004400de006f4f6000bf
:1020680090c0b3009e4f1000040036001e40780058
:102078007043b000004f7800030037001e4078001e
:102088000043b000004f78001e40780064ff07004e
:102098002e4090006f4f600090c0b3009e4f10001c
:1020a800040036001e4078007043b000004f7800ee
:1020b800030037001e4078000043b000004f78004e
:1020c8001e40780056ff07000080fa000000060056
:1020d8000600fa00404798004e4090000080fb0040
:1020e80042062000110009000280d800204798000d
:1020f8004e4090000081fb002e4090008080fb0045
:10210800400620000088b90000005100a20020000d
:10211800110009000200d800104798001e409000e6
:102128000043b0005fff0700ce4190002e409000b2
:102138008080fb00400620000088b900004178003c
:102148001e4090000080fb006a00b900004041007a
:1021580000c05100004f78001e4078000043b000d6
:1021680050ff07000080fa00000006000600fa0091
:10217800200798002e009000420620001100090058
:102188000280d800204798002e4090000043b000fd
:1021980044ff07002e009000004178002e40900078
:1021a8008080fb00400620000088b90000405100f4
:1021b8000080fb00a2002000110009000280d80066
:1021c800104798001e4090000043b00035ff0700fc
:1021d8002e009000804178002e4090008080fb0007
:1021e800400620000088b900004178001e40900099
:1021f8000080fb006a00b9000040410000cf510098
:102208001e4078000043b00026ff07000080fa0057
:10221800000006000200fa000000eb00000f780042
:1022280002003700060007001e0fe80030062000f5
:102238009e0f1000fbff34000080fa00000006002b
:102248000400fa000000eb001007980004003700b3
:102258001e0fe8001e0090000000e800100798001c
:102268009e009000700c2000808f5000f8ff340012
:102278000080fa00000006000600fa0020479800d7
:10228800210798002e409000e74f500012003e00b2
:102298002e4090000080fb004300dd000044b000a9
:1022a800befe07000040eb00004f78000700370033
:1022b8001e80fb00800078002e0090000080400007
:1022c80010407800d6fe07001e4fe80070c0b3002b
:1022d8009e4f1000f6ff360000c8b300affe07009f
:1022e8000080fa00000006000000fa001ecfbf00c0
:1022f800e14f500012003a0079cfbf00e14f500083
:102308000f003a00ced0bf00f44f50000100360055
:10231800d682a900e10c21009140780080c2b30068
:1023280080cf5000030036000040eb00cef0b7002d
:10233800d682a8000040eb0079efb7000b00370009
:102348001ecfbf000004e00007003a0079cfbf00ad
:10235800e14f500004003a000040eb0079efb7006d
:10236800d682a90001003700d682a9000080fa00b1
:10237800000006000400fa001fcfbf000080fb0029
:102388006101b9000080eb008080eb000201400091
:1023980083814800028fbe00b002200001002000a7
:1023a8001e01be00800f5100818f590066003e005b
:1023b8001e00be00006001002b0037002c00370013
:1023c8002d0037002e003700450037004600370043
:1023d8005d0037005c0037005b0037002a003700db
:1023e8002b0037002e00370041003700300037003f
:1023f80033003700360037005300370052003700eb
:102408005100370024003700270037002a00370022
:102418002d003700300037004b0037004a003700e6
:1024280049003700480037004700370032003700be
:1024380035003700380037003b0037003e003700d2
:1024480041003700400037003f0037003e003700aa
:102458003d0037002a0037002d00370030003700d4
:1024680033003700360037003a00070037003700de
:102478005e000700350037006b01070033003700a6
:102488007302070031003700b30207002f0037003e
:10249800de0607002d003700980707002b003700dd
:1024a800c00e070029003700050f07002700370076
:1024b8007e0f070025003700be0f070023003700f6
:1024c8003510070021003700851007001f0037006e
:1024d800241207001d003700691207001b0037008f
:1024e800de12070019003700d81a07001700370056
:1024f800761b0700150037008d040700130037000e
:10250800ce04070011003700b31307000f0037008f
:10251800051407000d003700311507000b003700c0
:102528007d15070009003700d4150700070037009c
:10253800241607000500370080160700030037003f
:10254800d016070001003700020007000080fa00db
:10255800000006000200fa008040eb000040eb009b
:1025680070fe0700f05328009bfe070011c0b3005f
:102578000040eb006bfe07000055280096fe0700a0
:1025880021c0b3000040eb0066fe0700105628008b
:1025980091fe070031c0b3000040eb0061fe070068
:1025a800205728008cfe07001e2d07000080fb0026
:1025b800000f78001e007800e30f5000040032007e
:1025c8001e007800e50f50000400320005003700b7
:1025d80060c0b3001fefb7000200370020c0b3008f
:1025e8001fefb7000080fa00000006000c00fa0098
:1025f800889fbe003058280009000900305f780025
:10260800ae00b1007082800081828000020020004c
:10261800031224009ef8070002002000a3472400ac
:102628009df70700fff70700004f780070828000d1
:1026380081828000020020000312240094f8070021
:102648000004be001e4078008080fb00803e200011
:102658000088b900cf80de000df807000001be0039
:102668000800be002ef7070002002000832c24007b
:1026780089f70700ebf70700104798007082800081
:1026880081828000020020000312240080f80700e5
:102698000004be001e4078008080fb00803e2000c1
:1026a8000088b900cf80de00f9f707000001be00fe
:1026b8000800be001af707000004be001e40900084
:1026c8008080fb00400620000088b900cf80de0033
:1026d800eff707000001be000800be0010f7070072
:1026e80002002000031224006bf70700cdf7070053
:1026f80020479800708280008182800002002000bc
:102708000312240062f807000004be001e4078008f
:102718008080fb00803e20000088b900cf80de006a
:10272800dbf707000001be000800be00fcf607004a
:102738000004be001e4090008080fb004006200080
:102748000088b900cf80de00d1f707000001be0085
:102758000800be00f2f607000004be002e409000fc
:102768000080fb006a00b900cf80de00c8f70700d0
:102778000001be000800be00e9f60700a9f707003f
:102788003047980090828000a182800002002000db
:10279800031224003ef8070002002000a34724008b
:1027a8003df707009ff70700404798009082800098
:1027b800a1828000020020000312240034f80700e0
:1027c8000004be004e4090008080fb00803e200048
:1027d8000088b900cf80de00adf707000001be0019
:1027e8000800be00cef6070002002000832c24005b
:1027f80029f707008bf70700504798009082800060
:10280800a1828000020020000312240020f80700a3
:102818000004be004e4090008080fb00803e2000f7
:102828000088b900cf80de0099f707000001be00dc
:102838000800be00baf607000004be005e40900023
:102848008080fb00400620000088b900cf80de00b1
:102858008ff707000001be000800be00b0f60700b1
:1028680002002000031224000bf707006df7070091
:102878006047980090828000a182800002002000ba
:102888000312240002f807000004be004e40900026
:102898008080fb00803e20000088b900cf80de00e9
:1028a8007bf707000001be000800be009cf6070089
:1028b8000004be005e4090008080fb0040062000bf
:1028c8000088b900cf80de0071f707000001be0064
:1028d8000800be0092f607000004be006e4090009b
:1028e8000080fb006a00b900cf80de0068f70700af
:1028f8000001be000800be0089f6070049f707007e
:10290800704798008040eb000040eb0085fd070011
:10291800d0582800b0fd070011c0b3000040eb00fc
:1029280080fd0700e0592800abfd070021c0b30077
:102938000040eb007bfd0700f05a2800a6fd0700c9
:1029480021c0b30050c0b30076fd07001e407800d8
:102958000043b00053fd07001e4090000043b00044
:1029680050fd07002e4090000043b0004dfd0700c9
:1029780021c0b30090c0b3006afd07003e4090003c
:102988000043b00047fd070021c0b300b0c0b3004a
:1029980064fd070097cfbf0042fd070021c0b300c8
:1029a800c0c0b3005ffd07004e4090000043b00078
:1029b8003cfd07005e4090000043b00039fd070071
:1029c8006e4090000043b00036fd070031c0b300f0
:1029d8000040eb0053fd0700e05928007efd07008a
:1029e800102c07000080fb00500798005e00900044
:1029f800e30f5000040032005e009000e50f500025
:102a0800040032000500370010c0b3001fefb70004
:102a18000200370030c0b3001fefb7004f04be00fc
:102a28000080fa00000006000c00fa00889fbe0033
:102a3800005c280009000900305f7800ae00b10092
:102a4800b0828000c18280000200200003122400ae
:102a58008ff7070002002000a34724008ef6070026
:102a6800f0f60700004f7800b0828000c182800035
:102a7800020020000312240085f707000004be00ae
:102a88001e4078008080fb00803e20000088b9004e
:102a9800cf80de00fef607000001be000800be0081
:102aa8001ff6070002002000832c24007af6070096
:102ab800dcf6070010479800b0828000c1828000d1
:102ac800020020000312240071f707000004be0072
:102ad8001e4078008080fb00803e20000088b900fe
:102ae800cf80de00eaf607000001be000800be0045
:102af8000bf607000004be001e4090008080fb001b
:102b0800400620000088b900cf80de00e0f607000c
:102b18000001be000800be0001f607000200200008
:102b2800031224005cf60700bef607002047980051
:102b3800b0828000c18280000200200003122400bd
:102b480053f707000004be001e4078008080fb0099
:102b5800803e20000088b900cf80de00ccf6070058
:102b68000001be000800be00edf507000004be002d
:102b78001e4090008080fb00400620000088b900bd
:102b8800cf80de00c2f607000001be000800be00cc
:102b9800e3f507000004be002e4090000080fb0013
:102ba8006a00b900cf80de00b9f607000001be0058
:102bb8000800be00daf507009af6070030479800cb
:102bc800d0828000e18280000200200003122400ed
:102bd8002ff7070002002000a34724002ef6070065
:102be80090f6070040479800d0828000e18280007c
:102bf800020020000312240025f707000004be008d
:102c08004e4090008080fb00803e20000088b90084
:102c1800cf80de009ef607000001be000800be005f
:102c2800bff5070002002000832c24001af60700d5
:102c38007cf6070050479800d0828000e18280002f
:102c4800020020000312240011f707000004be0050
:102c58004e4090008080fb00803e20000088b90034
:102c6800cf80de008af607000001be000800be0023
:102c7800abf507000004be005e4090008080fb00ba
:102c8800400620000088b900cf80de0080f60700eb
:102c98000001be000800be00a1f5070002002000e8
:102ca80003122400fcf507005ef607006047980051
:102cb800d0828000e18280000200200003122400fc
:102cc800f3f607000004be004e4090008080fb0031
:102cd800803e20000088b900cf80de006cf6070037
:102ce8000001be000800be008df507000004be000c
:102cf8005e4090008080fb00400620000088b900fc
:102d0800cf80de0062f607000001be000800be00aa
:102d180083f507000004be006e4090000080fb00b1
:102d28006a00b900cf80de0059f607000001be0036
:102d38000800be007af507003af6070070479800c9
:102d48008040eb000040eb0076fc0700a05c280008
:102d5800a1fc070011c0b3000040eb0071fc0700a4
:102d6800e05928009cfc070021c0b3000040eb009c
:102d78006cfc0700b05d280097fc070021c0b30079
:102d880050c0b30067fc07001e4078000043b00045
:102d980044fc07001e4090000043b00041fc0700bf
:102da8002e4090000043b0003efc070021c0b30055
:102db80090c0b3005bfc07003e4090000043b000a9
:102dc80038fc070021c0b300c0c0b30055fc0700a1
:102dd8004e4090000043b00032fc07005e40900077
:102de8000043b0002ffc07006e4090000043b00085
:102df8002cfc070031c0b3000040eb0049fc070081
:102e0800e059280074fc0700062b07000080fb002f
:102e1800500798005e009000e30f50000400320055
:102e28005e009000e50f50000400320005003700f6
:102e380020c0b3001fefb7000200370040c0b30046
:102e48001fefb7004f04be000080fa000000060024
:102e58000200fa000040eb001defb7008040eb00d5
:102e68000040eb002ffc0700c05e28005afc07005a
:102e780011c0b3000040eb002afc0700d05f280017
:102e880055fc070021c0b3000040eb0025fc0700fb
:102e9800e059280050fc070031c0b3000040eb00a7
:102ea80020fc0700e05928004bfc0700dd2a07003a
:102eb8000080fb00000f78001e007800e40f50002f
:102ec800230032001e007800e40f50000a003c0086
:102ed8001e007800e20f50001d0032001e0078002e
:102ee800e20f50000e003c001e007800e10f500079
:102ef80011003200160037001e007800e90f50005c
:102f0800130032001e007800f20f5000100032004b
:102f18001e007800e50f5000040032000c00370056
:102f280030c0b3001fefb7000900370050c0b3002e
:102f38001fefb70006003700a0c0b3001fefb700af
:102f48000040eb0020efb70000c3b30021efb7004b
:102f58000080fa00000006000600fa008040eb003e
:102f68000040eb00effb0700c05e28001afc0700da
:102f780011c0b3000040eb00eafb0700d05f280057
:102f880015fc070021c0b3000040eb00e5fb07007b
:102f9800e059280010fc070031c0b3000040eb00e6
:102fa800e0fb0700e05928000bfc070020cfbf001a
:102fb8000080fb00200798002e009000e40f5000ce
:102fc800390032002e009000e40f500011003c0040
:102fd8002e009000e10f5000210032002e009000da
:102fe800e10f500004003c002e0090000000e000bb
:102ff80015003200490037002e009000e20f500003
:103008001d0032002e009000e30f50002000320017
:10301800420037002e009000e60f50002e003200cc
:103028002e009000e60f5000250035002e0090007d
:10303800e70f50002e0032002e009000e80f5000dd
:10304800310032003500370011c0b30030c0b30082
:10305800b4fb070023cfbf0092fb07002f00370007
:1030680011c0b30040c0b300aefb070024cfbf00bf
:103078008cfb07002900370011c0b30050c0b30013
:10308800a8fb070025cfbf0086fb070023003700f9
:1030980011c0b30060c0b300a2fb070026cfbf0079
:1030a80080fb07001d00370011c0b30070c0b300db
:1030b8009cfb070027cfbf007afb070017003700eb
:1030c80011c0b30080c0b30096fb070028cfbf0033
:1030d80074fb07001100370011c0b30090c0b300a3
:1030e80090fb070029cfbf006efb07000b003700dd
:1030f80011c0b300a0c0b3008afb07002acfbf00ed
:1031080068fb07000500370011c0b300b0c0b3006a
:1031180084fb07002bcfbf0062fb0700412a070092
:103128000080fb00100798001e009000e50f50007b
:10313800190032001e009000e50f500007003c0007
:103148001e009000e10f50001b0032001e0090008e
:10315800e30f5000080032005d0037001e009000a9
:10316800ec0f5000080032001e009000ee0f5000d7
:103178000d0032005600370021cfbf000040e800a4
:1031880021efb7005200370021cfbf000040e80010
:1031980021efb7004e00370021cfbf000040e90003
:1031a80021efb7004a00370021cfbf000040e900f7
:1031b80021efb7004600370020cfbf00e84f50008e
:1031c80003003a0010c0b30022efb70056013700e1
:1031d80020cfbf00e74f500005003a002bcfbf00bb
:1031e80021efb70080c0b30020efb7004e013700d1
:1031f80020cfbf00e64f500005003a002acfbf009d
:1032080021efb70070c0b30020efb70046013700c8
:1032180020cfbf00e54f500005003a0029cfbf007e
:1032280021efb70060c0b30020efb7003e013700c0
:1032380020cfbf00e44f500005003a0028cfbf0060
:1032480021efb70050c0b30020efb70036013700b8
:1032580020cfbf00e34f500005003a0027cfbf0042
:1032680021efb70040c0b30020efb7002e013700b0
:1032780020cfbf00e24f500005003a0026cfbf0024
:1032880021efb70030c0b30020efb70026013700a8
:1032980020cfbf00e14f500005003a0025cfbf0006
:1032a80021efb70020c0b30020efb7001e013700a0
:1032b80020cfbf000004e0001b013a0024cfbf006c
:1032c80021efb70010c0b30020efb7001601370098
:1032d80020cfbf000004e00011003a0011f22000e6
:1032e8009140780090c3b30080cf500002003400b2
:1032f80000c3b30021efb70011f22000914078001d
:10330800f0c2b30080cf500002003c0090c3b3006d
:1033180021efb70021cfbf0023efb7009f00370090
:1033280020cfbf00e14f500011003a0011f22000f9
:103338009140780090c3b30080cf50000200340061
:1033480000c3b30021efb70011f2200091407800cc
:10335800f0c2b30080cf500002003c0090c3b3001d
:1033680021efb70021cfbf0024efb7008b00370053
:1033780020cfbf00e24f500011003a0011f22000a8
:103388009140780090c3b30080cf50000200340011
:1033980000c3b30021efb70011f22000914078007c
:1033a800f0c2b30080cf500002003c0090c3b300cd
:1033b80021efb70021cfbf0025efb7007700370016
:1033c80020cfbf00e34f500011003a0011f2200057
:1033d8009140780090c3b30080cf500002003400c1
:1033e80000c3b30021efb70011f22000914078002c
:1033f800f0c2b30080cf500002003c0090c3b3007d
:1034080021efb70021cfbf0026efb70063003700d8
:1034180020cfbf00e44f500011003a0011f2200005
:103428009140780090c3b30080cf50000200340070
:1034380000c3b30021efb70011f2200091407800db
:10344800f0c2b30080cf500002003c0090c3b3002c
:1034580021efb70021cfbf0027efb7004f0037009b
:1034680020cfbf00e54f500011003a0011f22000b4
:103478009140780090c3b30080cf50000200340020
:1034880000c3b30021efb70011f22000914078008b
:10349800f0c2b30080cf500002003c0090c3b300dc
:1034a80021efb70021cfbf0028efb7003b0037005e
:1034b80020cfbf00e64f500011003a0011f2200063
:1034c8009140780090c3b30080cf500002003400d0
:1034d80000c3b30021efb70011f22000914078003b
:1034e800f0c2b30080cf500002003c0090c3b3008c
:1034f80021efb70021cfbf0029efb7002700370021
:1035080020cfbf00e74f500011003a0011f2200011
:103518009140780090c3b30080cf5000020034007f
:1035280000c3b30021efb70011f2200091407800ea
:10353800f0c2b30080cf500002003c0090c3b3003b
:1035480021efb70021cfbf002aefb70013003700e3
:1035580020cfbf00e84f500010003a0011f22000c1
:103568009140780090c3b30080cf5000020034002f
:1035780000c3b30021efb70011f22000914078009a
:10358800f0c2b30080cf500002003c0090c3b300eb
:1035980021efb70021cfbf002befb70022cfbf002c
:1035a800e14f50005b003a000040eb00004f78000c
:1035b8000040eb0064f1b7001400370064d1bf008d
:1035c8008080fb00700d21000080400010407800d2
:1035d8005af1b70064d1bf008080fb0030f22000b0
:1035e80000804000104078005cf1b700a115210070
:1035f800914078005cd1bf0000c068001e4f4000b9
:1036080064d1bf000040e80064f1b70064d1bf0096
:10361800e84f5000e9ff36001e04e00009003a00b8
:1036280010c0b3001defb7000040eb0020efb7005b
:103638000040eb0022efb700b0c0b3001fefb700a7
:103648003400370040868000e10f50002200360029
:103658000000eb00408688000040eb0064f1b700f2
:103668000900370064d1bf008080fb00d0f2200041
:103678008080400000c3b3008048780064d1bf0058
:103688000040e80064f1b70064d1bf00e84f500083
:10369800f4ff36000000eb00408688000040eb0095
:1036a80022efb70040c0b3001fefb70021c0b3003e
:1036b8000040eb001bfa0700e059280046fa070013
:1036c80031c0b3000040eb0016fa0700e0592800ab
:1036d80041fa07000f00370011c0b3000040eb00ab
:1036e80010fa0700d05f28003bfa070021c0b3009a
:1036f8000040eb000bfa0700e060280036fa0700ec
:1037080031c0b3000040eb0006fa0700f061280062
:1037180031fa070060868000e10f50000200360091
:103728000000eb00608688000080fa0000000600b8
:103738000200fa008040eb000040eb00f9f90700b6
:103748000063280024fa070011c0b3000040eb0012
:10375800f4f90700d05f28001ffa070021c0b30062
:103768000040eb00eff90700e05928001afa0700bb
:1037780031c0b3000040eb00eaf90700e059280027
:1037880015fa0700a72807000080fb00000f780043
:103798001e007800e40f5000260032001e0078005a
:1037a800e40f50000a003c001e007800e20f5000b1
:1037b800170032001e007800e20f50000e003c0097
:1037c8001e007800e10f5000140032001900370085
:1037d8001e007800e90f5000160032001e00780025
:1037e800f20f5000130032001e007800e50f500061
:1037f800040032000f00370000c1b3001fefb7000c
:103808000c003700b0c0b3001fefb7000900370045
:1038180040c0b3001fefb7000600370080c2b300f6
:103828001fefb7000040eb0020efb70000c3b30064
:1038380021efb7000080fa00000006000600fa0039
:103848008040eb000040eb00b6f907000063280059
:10385800e1f9070011c0b3000040eb00b1f907001f
:10386800d05f2800dcf9070021c0b3000040eb005e
:10387800acf90700e0592800d7f9070031c0b300b8
:103888000040eb00a7f90700e0592800d2f907002b
:1038980020cfbf000080fb00200798002e0090007a
:1038a800e40f5000390032002e009000e40f500061
:1038b80011003c002e009000e10f50002100320062
:1038c8002e009000e10f500004003c002e009000f4
:1038d8000000e00015003200490037002e0090007b
:1038e800e20f50001d0032002e009000e30f500040
:1038f80020003200420037002e009000e60f5000f2
:103908002e0032002e009000e60f500025003500f2
:103918002e009000e70f50002e0032002e0090007d
:10392800e80f5000310032003500370011c0b300f5
:1039380030c0b3007bf907002dcfbf0059f907004d
:103948002f00370011c0b30040c0b30075f907005d
:103958002ecfbf0053f907002900370011c0b3006c
:1039680050c0b3006ff907002fcfbf004df9070013
:103978002300370011c0b30060c0b30069f9070025
:1039880030cfbf0047f907001d00370011c0b30052
:1039980070c0b30063f9070031cfbf0041f90700d9
:1039a8001700370011c0b30080c0b3005df90700ed
:1039b80032cfbf003bf907001100370011c0b30038
:1039c80090c0b30057f9070033cfbf0035f907009f
:1039d8000b00370011c0b300a0c0b30051f90700b5
:1039e80034cfbf002ff907000500370011c0b3001e
:1039f800b0c0b3004bf9070035cfbf0029f9070065
:103a0800082807000080fb00100798001e0090009f
:103a1800e50f5000190032001e009000e50f50001d
:103a280007003c001e009000e10f50001b00320010
:103a38001e009000e30f5000080032005d003700c0
:103a48001e009000ec0f5000080032001e0090008d
:103a5800ee0f50000d0032005600370021cfbf0096
:103a68000040e80021efb7005200370021cfbf0027
:103a78000040e80021efb7004e00370021cfbf001b
:103a88000040e90021efb7004a00370021cfbf000e
:103a98000040e90021efb7004600370020cfbf0003
:103aa800e84f500003003a0010c0b30022efb700ff
:103ab8005401370020cfbf00e74f500005003a00ff
:103ac80035cfbf0021efb70080c0b30020efb700ab
:103ad8004c01370020cfbf00e64f500005003a00e8
:103ae80034cfbf0021efb70070c0b30020efb7009c
:103af8004401370020cfbf00e54f500005003a00d1
:103b080033cfbf0021efb70060c0b30020efb7008c
:103b18003c01370020cfbf00e44f500005003a00b9
:103b280032cfbf0021efb70050c0b30020efb7007d
:103b38003401370020cfbf00e34f500005003a00a2
:103b480031cfbf0021efb70040c0b30020efb7006e
:103b58002c01370020cfbf00e24f500005003a008b
:103b680030cfbf0021efb70030c0b30020efb7005f
:103b78002401370020cfbf00e14f500005003a0074
:103b88002fcfbf0021efb70020c0b30020efb70050
:103b98001c01370020cfbf000004e00019013a00e3
:103ba8002ecfbf0021efb70010c0b30020efb70041
:103bb8001401370020cfbf000004e00011003a00d4
:103bc80011f220009140780090c3b30080cf5000dc
:103bd8000200340000c3b30021efb70011f2200047
:103be80091407800f0c2b30080cf500002003c0042
:103bf80090c3b30021efb70021cfbf002defb7006e
:103c08009f00370020cfbf00e14f500011003a005d
:103c180011f220009140780090c3b30080cf50008b
:103c28000200340000c3b30021efb70011f22000f6
:103c380091407800f0c2b30080cf500002003c00f1
:103c480090c3b30021efb70021cfbf002eefb7001c
:103c58008b00370020cfbf00e24f500011003a0020
:103c680011f220009140780090c3b30080cf50003b
:103c78000200340000c3b30021efb70011f22000a6
:103c880091407800f0c2b30080cf500002003c00a1
:103c980090c3b30021efb70021cfbf002fefb700cb
:103ca8007700370020cfbf00e34f500011003a00e3
:103cb80011f220009140780090c3b30080cf5000eb
:103cc8000200340000c3b30021efb70011f2200056
:103cd80091407800f0c2b30080cf500002003c0051
:103ce80090c3b30021efb70021cfbf0030efb7007a
:103cf8006300370020cfbf00e44f500011003a00a6
:103d080011f220009140780090c3b30080cf50009a
:103d18000200340000c3b30021efb70011f2200005
:103d280091407800f0c2b30080cf500002003c0000
:103d380090c3b30021efb70021cfbf0031efb70028
:103d48004f00370020cfbf00e54f500011003a0068
:103d580011f220009140780090c3b30080cf50004a
:103d68000200340000c3b30021efb70011f22000b5
:103d780091407800f0c2b30080cf500002003c00b0
:103d880090c3b30021efb70021cfbf0032efb700d7
:103d98003b00370020cfbf00e64f500011003a002b
:103da80011f220009140780090c3b30080cf5000fa
:103db8000200340000c3b30021efb70011f2200065
:103dc80091407800f0c2b30080cf500002003c0060
:103dd80090c3b30021efb70021cfbf0033efb70086
:103de8002700370020cfbf00e74f500011003a00ee
:103df80011f220009140780090c3b30080cf5000aa
:103e08000200340000c3b30021efb70011f2200014
:103e180091407800f0c2b30080cf500002003c000f
:103e280090c3b30021efb70021cfbf0034efb70034
:103e38001300370020cfbf00e84f500010003a00b1
:103e480011f220009140780090c3b30080cf500059
:103e58000200340000c3b30021efb70011f22000c4
:103e680091407800f0c2b30080cf500002003c00bf
:103e780090c3b30021efb70021cfbf0035efb700e3
:103e880022cfbf00e14f500059003a000040eb003c
:103e9800004f78000040eb0064f1b70014003700d1
:103ea80064d1bf008080fb00100e2100008040001c
:103eb800104078005af1b70064d1bf008080fb0041
:103ec800d0f2200000804000104078005cf1b7007c
:103ed800a1152100914078005cd1bf0000c06800a6
:103ee8001e4f400064d1bf000040e80064f1b700f5
:103ef80064d1bf00e84f5000e9ff36001e04e0001f
:103f080007003a000040eb0020efb7000040eb004c
:103f180022efb700f0c1b3001fefb700340037003d
:103f280040868000e10f5000220036000000eb00c0
:103f3800408688000040eb0064f1b70009003700b4
:103f480064d1bf008080fb00d0f220008080400058
:103f580000c3b3008048780064d1bf000040e80087
:103f680064f1b70064d1bf00e84f5000f4ff360099
:103f78000000eb00408688000040eb0022efb7000d
:103f8800e0c1b3001fefb70021c0b3000040eb0051
:103f9800e4f70700e05928000ff8070031c0b30024
:103fa8000040eb00dff70700e05928000af8070097
:103fb8000f00370011c0b3000040eb00d9f707002d
:103fc800d05f280004f8070021c0b3000040eb00d0
:103fd800d4f70700e0602800fff7070031c0b300fe
:103fe8000040eb00cff70700f0612800faf7070060
:103ff80060868000e10f5000020036000000eb00f0
:10400800608688000080fa00000006000200fa00be
:1040180000002f0064004000972707000000e00020
:1040280027003a008040eb000040eb00bdf7070096
:1040380010642800e8f7070011c0b3000040eb0047
:10404800b8f70700e0592800e3f7070021c0b300dc
:104058000040eb00b3f7070020652800def70700f3
:1040680021c0b30080c0b300aef70700ebd0bf009b
:104078008cf70700ecd0bf008af70700edd0bf002f
:1040880088f7070031c0b3000040eb00a5f7070030
:1040980030662800d0f7070031c0b30080c0b300f5
:1040a800a0f70700efd0bf007ef70700f0d0bf00f1
:1040b8007cf70700f1d0bf007af7070061003700ee
:1040c80000002f00640040006b270700e10f50003c
:1040d80027003a008040eb000040eb0091f7070012
:1040e80010642800bcf7070011c0b3000040eb00c3
:1040f8008cf70700e0592800b7f7070021c0b30084
:104108000040eb0087f7070020652800b2f707009a
:1041180021c0b30080c0b30082f70700ebd0bf0016
:1041280060f70700ecd0bf005ef70700edd0bf00d6
:104138005cf7070031c0b3000040eb0079f70700d7
:1041480030662800a4f7070031c0b30080c0b30070
:1041580074f70700efd0bf0052f70700f0d0bf0098
:1041680050f70700f1d0bf004ef7070035003700c1
:1041780000002f00640040003f270700e20f5000b6
:1041880030003a008040eb000040eb0065f7070084
:104198001064280090f7070011c0b3000040eb003e
:1041a80060f70700e05928008bf7070021c0b3002b
:1041b8000040eb005bf707004067280086f7070020
:1041c80021c0b30080c0b30056f70700ebd0bf0092
:1041d80034f70700ecd0bf0032f70700edd0bf007e
:1041e80030f7070021c0b300c0c0b3004df7070087
:1041f800eed0bf002bf7070031c0b3000040eb0042
:1042080048f707005068280073f7070031c0b3006b
:1042180080c0b30043f70700efd0bf0021f70700c5
:10422800f0d0bf001ff70700f1d0bf001df707004f
:1042380031c0b300c0c0b3003af70700f2d0bf00e6
:1042480018f70700f72507000080fb00000f78002b
:104258001e007800e40f5000260032001e0078008f
:10426800e40f50000a003c001e007800e20f5000e6
:10427800170032001e007800e20f50000e003c00cc
:104288001e007800e10f50001400320019003700ba
:104298001e007800e90f5000160032001e0078005a
:1042a800f20f5000130032001e007800e50f500096
:1042b800040032000f003700e0c1b3001fefb70061
:1042c8000c003700c0c0b3001fefb700090037006b
:1042d80040c0b3001fefb7000600370040c1b3006d
:1042e8001fefb7000040eb0020efb700ebd0bf0096
:1042f80021efb7000080fa00000006001000fa0065
:104308000000eb00000f780000002f006400400060
:10431800d92607000000e00025023a008040eb00a3
:104328000040eb00fff60700106428002af707009a
:1043380011c0b3000040eb00faf60700e05928006e
:1043480025f7070021c0b3000040eb00f5f6070091
:104358002065280020f7070021c0b30080c0b30003
:10436800f0f60700ebd0bf00cef60700ecd0bf0098
:10437800ccf60700edd0bf00caf6070031c0b30085
:104388000040eb00e7f607003066280012f7070048
:1043980031c0b30080c0b300e2f60700efd0bf0021
:1043a800c0f60700f0d0bf00bef60700f1d0bf008e
:1043b800bcf6070020cfbf000080fb007007980004
:1043c8007e009000e20f50003a0032007e0090001c
:1043d800e20f500007003c007e0090000000e00063
:1043e8000e0032007e009000e10f50001e003200e7
:1043f8007b0037007e009000e40f5000530032002d
:104408007e009000e40f50003d0035007e009000d3
:10441800e50f5000600032007100370050868000c0
:104428000000e0000500320021c0b30080c0b300e6
:10443800bcf60700ebd0bf009af607005086800054
:10444800e10f5000660036000000eb00508688003f
:1044580021c0b30080c0b300b2f60700606928002d
:10446800ddf607005e003700508680000000e0009f
:104478000500320021c0b30090c0b300a9f60700c0
:10448800ecd0bf0087f6070050868000e10f50008f
:10449800530036000000eb005086880021c0b300ae
:1044a80090c0b3009ff6070060692800caf60700ad
:1044b8004b003700508680000000e0000500320005
:1044c80021c0b300a0c0b30096f60700edd0bf002e
:1044d80074f6070050868000e10f50004000360057
:1044e8000000eb005086880021c0b300a0c0b300d4
:1044f8008cf6070060692800b7f607003800370017
:10450800508680000000e0000500320031c0b30092
:1045180080c0b30083f60700efd0bf0061f6070044
:1045280050868000e10f50002d0036000000eb009f
:104538005086880031c0b30080c0b30079f6070008
:1045480060692800a4f6070025003700508680001f
:104558000000e0000500320031c0b30090c0b30095
:1045680070f60700f0d0bf004ef6070050868000b6
:10457800e10f50001a0036000000eb00508688005a
:1045880031c0b30090c0b30066f607006069280028
:1045980091f6070012003700508680000000e00006
:1045a8000500320031c0b300a0c0b3005df60700bb
:1045b800f1d0bf003bf6070050868000e10f5000a5
:1045c800070036000000eb005086880031c0b300b9
:1045d800a0c0b30053f60700606928007ef6070004
:1045e800102507000080fb00600798006e0090000f
:1045f800e30f5000140032006e009000e30f5000eb
:1046080007003c006e009000e10f500021003200ce
:104618006e009000e20f50001b0032009d00370032
:104628006e009000ec0f50000b0032006e009000fe
:10463800ee0f5000100032006e009000e50f5000a1
:10464800090032009300370021cfbf000040e80086
:1046580021efb7008f00370021cfbf000040e800ee
:1046680021efb7008b00370021cfbf000040e900e1
:1046780021efb7008700370021cfbf000040e900d5
:1046880021efb70083003700b0c0b3001fefb700b9
:104698008000370020cfbf00e54f500055003a009a
:1046a8000040eb0020479800100037002e40900093
:1046b8008080fb00b00e2100008040001040780090
:1046c8008080fb0002002f002e4090000080fb003d
:1046d80000004000000041008002b000e92507000a
:1046e8002e4090000040e800204798002e4090009f
:1046f800e74f5000edff3600b0c0b3001fefb70022
:10470800ecd0bf008080fb00400620000088b90084
:1047180000017800ebd0bf008080fb0000fd2f0077
:1047280080804000803e20000088b90000014100e0
:10473800edd0bf000080fb006a00b9008000410096
:10474800eed0bf000080fb008080400000b32e0048
:10475800008f40001e007800cf80de00ccef0700fd
:10476800d2cc2c00c3dc230049f00700f08288007b
:1047780001838800f0d0bf008080fb004006200045
:104788000088b90000017800efd0bf008080fb00ee
:1047980000fd2f0080804000803e20000088b90086
:1047a80000014100f1d0bf000080fb006a00b900a1
:1047b80080004100f2d0bf000080fb0080804000f4
:1047c80000b32e00008f40001e007800cf80de006e
:1047d800afef0700d2cc2c00c3dc23002cf007007d
:1047e800108388002183880010c0b300faefb70057
:1047f800ea05370020cfbf00e44f500005003a001b
:10480800f1d0bf0021efb70050c0b30020efb700d0
:10481800e205370020cfbf00e34f500005003a0003
:10482800f0d0bf0021efb70040c0b30020efb700c1
:10483800da05370020cfbf00e24f500005003a00ec
:10484800efd0bf0021efb70030c0b30020efb700b2
:10485800d205370020cfbf00e14f500005003a00d5
:10486800edd0bf0021efb70020c0b30020efb700a4
:10487800ca05370020cfbf000004e000c7053a0092
:10488800ecd0bf0021efb70010c0b30020efb70095
:10489800c205370020cfbf000004e00005003a0041
:1048a80010c3b30021efb70021cfbf00ebf0b70072
:1048b800ba05370020cfbf00e14f500011003a0081
:1048c80011f220009140780050c3b30080cf50000f
:1048d8000200340020c3b30021efb70011f220001a
:1048e8009140780010c3b30080cf500002003c0014
:1048f80050c3b30021efb70021cfbf00ecf0b700e1
:10490800a605370020cfbf00e24f50002d003a0027
:10491800c10e21009140780020c3b30080cf500021
:104928000f003e0011f220009140780090c3b300c0
:1049380080cf50000200340070c3b30021efb700ed
:1049480011f220009140780060c3b30080cf50007e
:1049580019003c0090c3b30021efb70016003700e0
:10496800c10e21009140780040c3b30080cf5000b1
:104978000300360000c3b30021efb7000e00370074
:1049880011f220009140780090c3b30080cf50000e
:104998000200340000c3b30021efb70011f2200079
:1049a80091407800f0c2b30080cf500002003c0074
:1049b80090c3b30021efb70021cfbf00edf0b700df
:1049c8007605370020cfbf00e34f500011003a00b2
:1049d80011f220009140780010c3b30080cf50003e
:1049e8000200340000c3b30021efb70011f2200029
:1049f80091407800f0c2b30080cf500002003c0024
:104a080010c3b30021efb70021cfbf00eff0b7000c
:104a18006205370020cfbf00e44f50001e003a0067
:104a2800f10e21009140780000c3b30080cf500000
:104a380003003e0090c3b30021efb7001300370016
:104a4800f10e21009140780000c3b30080cf5000e0
:104a58000e00360011f220009140780030c3b300f8
:104a680080cf50000200340000c3b30021efb7002c
:104a780011f2200091407800f0c2b30080cf5000be
:104a880002003c0030c3b30021efb70021cfbf00c4
:104a9800f0f0b7004105370020cfbf00e54f5000c8
:104aa8003e053a00f10e21009140780000c3b300a2
:104ab80080cf500014003600010f2100914078008b
:104ac80020c3b30080cf50000f00360011f2200041
:104ad8009140780020c3b30080cf5000020034001a
:104ae80000c3b30021efb70011f220009140780015
:104af800f0c2b30080cf50002a003c0020c3b300ae
:104b080021efb70027003700f10e2100914078000f
:104b180000c3b30080cf500014003e00010f2100f5
:104b28009140780090c3b30080cf50000f003e0042
:104b380011f220009140780090c3b30080cf50005c
:104b48000200340080c3b30021efb70011f2200047
:104b58009140780070c3b30080cf500011003c0032
:104b680090c3b30021efb7000e00370011f2200008
:104b78009140780090c3b30080cf50000200340009
:104b880000c3b30021efb70011f220009140780074
:104b9800f0c2b30080cf500002003c0090c3b300c5
:104ba80021efb70021cfbf00f1f0b700fb043700b9
:104bb80000002f0064004000af240700e10f500000
:104bc80005023a008040eb000040eb00d5f40700f6
:104bd8001064280000f5070011c0b3000040eb0086
:104be800d0f40700e0592800fbf4070021c0b30007
:104bf8000040eb00cbf4070020652800f6f407001e
:104c080021c0b30080c0b300c6f40700ebd0bf00da
:104c1800a4f40700ecd0bf00a2f40700edd0bf0059
:104c2800a0f4070031c0b3000040eb00bdf407005a
:104c380030662800e8f4070031c0b30080c0b30034
:104c4800b8f40700efd0bf0096f40700f0d0bf001b
:104c580094f40700f1d0bf0092f4070020cfbf0002
:104c68000080fb00500798005e009000e20f5000a3
:104c78003a0032005e009000e20f500007003c004e
:104c88005e0090000000e0000e0032005e00900020
:104c9800e10f50001e0032007b0037005e009000dc
:104ca800e40f5000530032005e009000e40f500003
:104cb8003d0035005e009000e50f500060003200b6
:104cc80071003700508680000000e00005003200c7
:104cd80021c0b30080c0b30092f40700ebd0bf003e
:104ce80070f4070050868000e10f5000660036001f
:104cf8000000eb005086880021c0b30080c0b300dc
:104d080088f4070060692800b3f407005e003700e4
:104d1800508680000000e0000500320021c0b3008a
:104d280090c0b3007ff40700ecd0bf005df407002b
:104d380050868000e10f5000530036000000eb0061
:104d48005086880021c0b30090c0b30075f40700f6
:104d580060692800a0f407004b00370050868000e7
:104d68000000e0000500320021c0b300a0c0b3007d
:104d78006cf40700edd0bf004af4070050868000ad
:104d8800e10f5000400036000000eb00508688001c
:104d980021c0b300a0c0b30062f407006069280016
:104da8008df4070038003700508680000000e000ce
:104db8000500320031c0b30080c0b30059f40700c9
:104dc800efd0bf0037f4070050868000e10f500095
:104dd8002d0036000000eb005086880031c0b3007b
:104de80080c0b3004ff40700606928007af4070018
:104df80025003700508680000000e00005003200e2
:104e080031c0b30090c0b30046f40700f0d0bf0033
:104e180024f4070050868000e10f50001a00360085
:104e28000000eb005086880031c0b30090c0b3008a
:104e38003cf407006069280067f407001200370097
:104e4800508680000000e0000500320031c0b30049
:104e5800a0c0b30033f40700f1d0bf0011f407007d
:104e680050868000e10f5000070036000000eb007c
:104e78005086880031c0b300a0c0b30029f40700f1
:104e88006069280054f40700e62207000080fb0050
:104e9800400798004e009000e30f500014003200c5
:104ea8004e009000e30f500007003c004e009000b9
:104eb800e10f5000210032004e009000e20f500038
:104ec8001b0032009d0037004e009000ec0f500090
:104ed8000b0032004e009000ee0f50001000320020
:104ee8004e009000e50f5000090032009300370093
:104ef80021cfbf000040e80021efb7008f00370046
:104f080021cfbf000040e80021efb7008b00370039
:104f180021cfbf000040e90021efb700870037002c
:104f280021cfbf000040e90021efb7008300370020
:104f3800b0c0b3001fefb7008000370020cfbf001c
:104f4800e54f500055003a000040eb00204798001c
:104f5800100037002e4090008080fb00b00e21002a
:104f680000804000104078008080fb0002002f0085
:104f78002e4090000080fb0000004000000041002f
:104f88008002b000bf2307002e4090000040e800d8
:104f9800204798002e409000e74f5000edff360064
:104fa800b0c0b3001fefb700ecd0bf008080fb009b
:104fb800400620000088b90000017800ebd0bf004f
:104fc8008080fb0000fd2f0080804000803e200094
:104fd8000088b90000014100edd0bf000080fb004f
:104fe8006a00b90080004100eed0bf000080fb00dd
:104ff8008080400000b32e00008f40001e00780023
:10500800cf80de00a2ed0700d2cc2c00c3dc230049
:105018001fee0700f082880001838800f0d0bf00ef
:105028008080fb00400620000088b900000178005d
:10503800efd0bf008080fb0000fd2f008080400083
:10504800803e20000088b90000014100f1d0bf0077
:105058000080fb006a00b90080004100f2d0bf0068
:105068000080fb008080400000b32e00008f4000cd
:105078001e007800cf80de0085ed0700d2cc2c0022
:10508800c3dc230002ee0700108388002183880018
:1050980010c0b300faefb700c003370020cfbf003d
:1050a800e44f500005003a00f1d0bf0021efb700ef
:1050b80050c0b30020efb700b803370020cfbf00bf
:1050c800e34f500005003a00f0d0bf0021efb700d1
:1050d80040c0b30020efb700b003370020cfbf00b7
:1050e800e24f500005003a00efd0bf0021efb700b3
:1050f80030c0b30020efb700a803370020cfbf00af
:10510800e14f500005003a00edd0bf0021efb70095
:1051180020c0b30020efb700a003370020cfbf00a6
:105128000004e0009d033a00ecd0bf0021efb70077
:1051380010c0b30020efb7009803370020cfbf009e
:105148000004e00005003a0010c3b30021efb700e7
:1051580021cfbf00ebf0b7009003370020cfbf008e
:10516800e14f500011003a0011f220009140780000
:1051780050c3b30080cf50000200340020c3b300f6
:1051880021efb70011f220009140780010c3b3005e
:1051980080cf500002003c0050c3b30021efb7009d
:1051a80021cfbf00ecf0b7007c03370020cfbf0051
:1051b800e24f50002d003a00c10e210091407800c6
:1051c80020c3b30080cf50000f003e0011f2200032
:1051d8009140780090c3b30080cf500002003400a3
:1051e80000c3b30021efb70011f22000914078000e
:1051f800f0c2b30080cf500019003c0090c3b30048
:1052080021efb70016003700c10e21009140780049
:1052180040c3b30080cf50000300360000c3b30082
:1052280021efb7000e00370011f2200091407800fe
:1052380090c3b30080cf50000200340000c3b30015
:1052480021efb70011f2200091407800f0c2b300be
:1052580080cf500002003c0090c3b30021efb7009c
:1052680021cfbf00edf0b7004c03370020cfbf00bf
:10527800e34f500005003a0010c3b30021efb70018
:1052880021cfbf00eff0b7004403370020cfbf00a5
:10529800e44f500016003a00f10e210091407800ca
:1052a80000c3b30080cf50000e00360011f220007a
:1052b8009140780020c3b30080cf50000200340032
:1052c80000c3b30021efb70011f22000914078002d
:1052d800f0c2b30080cf500002003c0020c3b300ee
:1052e80021efb70021cfbf00f0f0b7002b03370044
:1052f80020cfbf00e54f500028033a00f10e2100ef
:105308009140780000c3b30080cf500008003600f9
:10531800010f21009140780010c3b30080cf5000e6
:105328000300360000c3b30021efb70027003700a1
:10533800f10e21009140780010c3b30080cf5000d7
:1053480014003e00010f21009140780000c3b30013
:1053580080cf50000f003e0011f2200091407800ed
:1053680090c3b30080cf50000200340050c3b30094
:1053780021efb70011f220009140780040c3b3003c
:1053880080cf500011003c0050c3b30021efb7009c
:105398000e00370011f220009140780090c3b3004e
:1053a80080cf50000200340000c3b30021efb700e3
:1053b80011f2200091407800f0c2b30080cf500075
:1053c80002003c0090c3b30021efb70021cfbf001b
:1053d800f1f0b700f102370000002f006400400030
:1053e800a5220700e20f5000ec023a008040eb00d3
:1053f8000040eb00cbf2070010642800f6f207002b
:1054080011c0b3000040eb00c6f20700e0592800c5
:10541800f1f2070021c0b3000040eb00c1f2070021
:1054280040672800ecf2070021c0b30080c0b30039
:10543800bcf20700ebd0bf009af20700ecd0bf0027
:1054480098f20700edd0bf0096f2070021c0b30024
:10545800c0c0b300b3f20700eed0bf0091f207005e
:1054680031c0b3000040eb00aef2070050682800de
:10547800d9f2070031c0b30080c0b300a9f2070019
:10548800efd0bf0087f20700f0d0bf0085f2070019
:10549800f1d0bf0083f2070031c0b300c0c0b30031
:1054a800a0f20700f2d0bf007ef2070020cfbf00b5
:1054b8000080fb00300798003e009000e30f50008a
:1054c800530032003e009000e30f50000a003c00f9
:1054d8003e009000e10f5000270032003e0090008f
:1054e800e10f500037003c003e0090000000e00053
:1054f8000e003200a40037003e009000e50f500077
:10550800690032003e009000e50f5000530035005e
:105518003e009000e60f5000760032003e009000fa
:10552800e70f500086003200970037005086800051
:105538000000e0000500320021c0b30080c0b300c5
:1055480078f20700ebd0bf0056f2070050868000c3
:10555800e10f50008c0036000000eb0050868800f8
:1055680021c0b30080c0b3006ef207006069280054
:1055780099f2070084003700508680000000e000a0
:105588000500320021c0b30090c0b30065f20700e7
:10559800ecd0bf0043f2070050868000e10f5000b6
:1055a800790036000000eb005086880021c0b30067
:1055b80090c0b3005bf207006069280086f207001c
:1055c80071003700508680000000e00005003200be
:1055d80021c0b300a0c0b30052f20700edd0bf0055
:1055e80030f2070050868000e10f50006600360058
:1055f8000000eb005086880021c0b300a0c0b300b3
:1056080048f207006069280073f207005e0037005f
:10561800508680000000e0000500320021c0b30081
:10562800c0c0b3003ff20700eed0bf001df2070074
:1056380050868000e10f5000530036000000eb0058
:105648005086880021c0b300c0c0b30035f20700ff
:105658006069280060f207004b0037005086800020
:105668000000e0000500320031c0b30080c0b30084
:105678002cf20700efd0bf000af207005086800026
:10568800e10f5000400036000000eb005086880013
:1056980031c0b30080c0b30022f20700606928005f
:1056a8004df2070038003700508680000000e00007
:1056b8000500320031c0b30090c0b30019f20700f2
:1056c800f0d0bf00f7f1070050868000e10f5000ce
:1056d8002d0036000000eb005086880031c0b30072
:1056e80090c0b3000ff20700606928003af2070083
:1056f80025003700508680000000e00005003200d9
:1057080031c0b300a0c0b30006f20700f1d0bf005b
:10571800e4f1070050868000e10f50001a003600bf
:105728000000eb005086880031c0b300a0c0b30071
:10573800fcf107006069280027f207001200370013
:10574800508680000000e0000500320031c0b30040
:10575800c0c0b300f3f10700f2d0bf00d1f10700d9
:1057680050868000e10f5000070036000000eb0073
:105778005086880031c0b300c0c0b300e9f107000b
:105788006069280014f20700a62007000080fb00cb
:10579800200798002e009000e30f500014003200fc
:1057a8002e009000e30f500007003c002e009000f0
:1057b800e10f5000210032002e009000e20f50004f
:1057c8001b003200ad0037002e009000ec0f500097
:1057d8000b0032002e009000ee0f50001000320037
:1057e8002e009000e50f500009003200a30037009a
:1057f80021cfbf000040e80021efb7009f0037002d
:1058080021cfbf000040e80021efb7009b00370020
:1058180021cfbf000040e90021efb7009700370013
:1058280021cfbf000040e90021efb7009300370007
:10583800b0c0b3001fefb7009000370020cfbf0003
:10584800e74f500055003a000040eb002047980011
:10585800100037002e4090008080fb00b00e210021
:1058680000804000104078008080fb0002002f007c
:105878002e4090000080fb00000040000000410026
:105888008002b0007f2107002e4090000040e80011
:10589800204798002e409000e74f5000edff36005b
:1058a800b0c0b3001fefb700ecd0bf008080fb0092
:1058b800400620000088b90000017800ebd0bf0046
:1058c8008080fb0000fd2f0080804000803e20008b
:1058d8000088b90000014100edd0bf000080fb0046
:1058e8006a00b90080004100eed0bf000080fb00d4
:1058f8008080400000b32e00008f40001e0078001a
:10590800cf80de0062eb0700d2cc2c00c3dc230082
:10591800dfeb0700f082880001838800f0d0bf0029
:105928008080fb00400620000088b9000001780054
:10593800efd0bf008080fb0000fd2f00808040007a
:10594800803e20000088b90000014100f1d0bf006e
:105958000080fb006a00b90080004100f2d0bf005f
:105968000080fb008080400000b32e00008f4000c4
:105978001e007800cf80de0045eb0700d2cc2c005b
:10598800c3dc2300c2eb0700108388002183880052
:1059980010c0b300faefb7008001370020cfbf0076
:1059a800e64f500005003a00f2d0bf0021efb700e3
:1059b80070c0b30020efb7007801370020cfbf00d8
:1059c800e54f500005003a00f1d0bf0021efb700c5
:1059d80060c0b30020efb7007001370020cfbf00d0
:1059e800e44f500005003a00f0d0bf0021efb700a7
:1059f80050c0b30020efb7006801370020cfbf00c8
:105a0800e34f500005003a00efd0bf0021efb70088
:105a180040c0b30020efb7006001370020cfbf00bf
:105a2800e24f500005003a00eed0bf0021efb7006a
:105a380030c0b30020efb7005801370020cfbf00b7
:105a4800e14f500005003a00edd0bf0021efb7004c
:105a580020c0b30020efb7005001370020cfbf00af
:105a68000004e0004d013a00ecd0bf0021efb70080
:105a780010c0b30020efb7004801370020cfbf00a7
