:020000040000fa
:080000000001040000000000f3
:020000040000fa
:100200006faa20000e7f22000e018800000000006f
:100210000c000700206027001100200011000700db
:10022000000020000000e000020032000000020098
:10023000000000004c770200000000000040da00df
:100240000000fe004440a900202427000000e00038
:100250000300320000002000a00188004440a800f4
:100260000000060091018800800078000000eb008b
:1002700015003700e280400032a0b4009101ba00be
:10028000e280400032a0b4009102ba00e280400057
:1002900032a0b4000002eb00472bde00f507b200ed
:1002a000602ce10004003a000059eb008301e900f2
:1002b000fdff3e00040037006128e100010032002c
:1002c0000082eb00040007001101ba000200e00008
:1002d000e8ff3a00000006003159ba008301e90046
:1002e0000c0032002159ba008301e90008003200f5
:1002f0000400e00003003a00e280400032a0b400b5
:10030000f5ff370011d9ba008301e900faff3a007e
:100310008100e800e180400032a0b4000000060047
:100320000040da000000fe0003f0a200889fbe003b
:100330008a9fbe008c1f7800430107004a013300ea
:100340006450e1004f0032006420e10052003200ae
:1003500003826c0007003b000905d0000306d000b3
:10036000820f54000c065d000200390002003200ca
:1003700089017800030678008582550004003d005d
:100380000003fd008103fd008502ea008b85420029
:10039000840f720002003b0060001000e080180033
:1003a0006011b8000005eb007a28e1000a0039006e
:1003b00006007800c75ddd00f707b2008780750092
:1003c0002d003700828171000a017800610560000c
:1003d0008180d1000080d3008502e900f9ff3b0055
:1003e000060440008784480002003b0060041400bb
:1003f000e0841c000988a300070032008a81710094
:1004000082817100610164008904d1000884d300f5
:100410008b05e800170037000978a30013003a00a5
:100420000b00e000130034008b05e90008044400d1
:1004300089844c000a4474000978a3000d003a0036
:100440000b00e000070034008b05e90008044400bd
:1004500089844c0001003a000b0020000978a300b9
:10046000f7ff32000001eb000200370082817100cb
:100470000a017800b90007000cf0a70001f0a00005
:10048000020137006420e10002003a00838f6c0013
:10049000020133000801be000200be00fb0037006d
:1004a000889fbe008a9fbe008c1f7800e600070070
:1004b000ed00330003866c006450e1002e00320032
:1004c0006420e100330032006150e1002f0032006f
:1004d0006120e1003100320085855500eb07b00056
:1004e000090020000804200005003700080444002b
:1004f00089844c000a0031000603430087834b00c7
:100500000001530081815b00f8ff33000203be004d
:100510000800a0000804440089844c00f6ff39005c
:10052000c639dd0083017300010032001300200092
:100530008904d1000884d3000998a3000500320083
:100540000800a7000300a0008904d1000884d3009c
:100550008b05e8008904d1000884d3000001eb007a
:100560000281d2007d00070001f0a1000cf0a7007d
:1005700001f0a000c50037006420e100c700320090
:100580000801be000200be00f7ff37006120e10055
:10059000c20032006000b800f3ff37000000200006
:1005a00001f82700f0ff370014002000f2003700a8
:1005b000f4ff2f00f00037000001be008d0007009f
:1005c0000470a70003f0a1006509b1001600320015
:1005d0000d0035006828e10006003500f0ff2f000f
:1005e000f1ff27000300e00013003b00010028009a
:1005f0000000050000004000818048008502e900fd
:10060000fcff3a0008003700f88f420002003c006f
:100610008000eb00000005008100d1000080d300c5
:100620008502e800fcff3a000300e00002003b0006
:1006300060001000e0801800000006000001be000d
:100640006c0007000470a70003f0a10003f8a300ea
:1006500013003a006509b1001000320009003500ae
:100660006928e100020035000100280000000500b3
:1006700000004000818048008502e900fcff3a004c
:1006800000000600f88f4200050035008100d1000f
:100690000080d3008502e800fcff3a00000006005d
:1006a0008000eb0000000500889fbe008a9fbe000e
:1006b000010578000100e0000400350008003c005e
:1006c0000000e0002000320005003700600010004c
:1006d000e080180002003b0001f02c001a003700f7
:1006e0000004be006011b8006b0920000982cf0031
:1006f000020039000882cf000441b0006942520074
:100700000e00320008003b0082817100610164002c
:100710008904d1000884d3008b05e8000442e80076
:10072000f9ff3a00050037000804440089844c00b2
:100730008b05e9000442e900fbff3a0007000700cf
:100740000af0a70001f0a0004f05be004f04be0054
:100750000000060004002000870037008100200010
:10076000618055000b003d000b00200061fe2f0052
:100770000100e1001d00340082817100610164000c
:100780008904d1000884d3000000e800faff3a0091
:10079000710020006100640003007000020060002e
:1007a0000900320061044400e0844c000988a5007f
:1007b000050032008b05e8006808e10002003a00fd
:1007c0008904d1000884d300f20f20000258e10010
:1007d00005003d00c75ddd00f907b20089807500a6
:1007e00008007800000006000bf827008b00780056
:1007f00000000500c70ade00f107b200f50fb200e5
:1008000008003200e1cf4200020032000170a00077
:1008100024000500810f700001003200040805006b
:1008200044000500810f700002003a00140005002a
:100830008502e9000000400081c04800fcff3b0049
:100840000170a000240005000004be00e9ff0700bd
:100850000003be000405be000200be00e5ff070065
:10086000844f7500000006000200be006450e100e5
:10087000050036006420e100020036000968a3008c
:1008800001003a000800be000160a0004f06780099
:100890004f05be004f04be0000000600f0ff2f0011
:1008a000f1ff2700f9ff3700889fbe008a9fbe0036
:1008b0008c1f7800e4ff0700ebff330003866c0019
:1008c0006450e100240032006420e100270032007f
:1008d0006150e100220032006120e100210032007d
:1008e0008b854200eb07b1000134b800003ab80034
:1008f0000804420089844a00013ab8000030b80078
:100900008880400009014a000400330000004000d4
:1009100081804800020149008b05e900c909dd001a
:10092000830170000100320013002000c814de00b3
:100930004814dd004709de001200b200c808de00de
:100940000884700085ff070001f0a1000cf0a700eb
:1009500001f0a000cdff37006120e100cfff3200a1
:100960000801be000200be00f7ff37006150e10041
:10097000fcff3a00c9ff3700889fbe008a9fbe0077
:10098000841f7800b0ff07004f007800110033008b
:10099000f0ff2f00838f6c0006003b00040565000c
:1009a0000a00a7000800370009f0a6001000200088
:1009b00008003700820f5400838f5c000300390069
:1009c0001000200001003e000000200009f0a700f8
:1009d0000000ea004f05be004f04be000000e0002a
:0409e000000006000d
:020000040000fa
:0200000401f009
:04000000f1bf00004c
:020000040000fa
:0200000401f009
:04000400ff7f00007a
:020000040000fa
:0200000401f009
:04000800cfff000026
:020000040000fa
:1000080090010000900100009001000090010000a4
:100018009001000090010000900100009001000094
:100028009001000090010000900100001c79000080
:1000380090010000900100009279000090010000fa
:100048009001000008790000900100007c78010010
:100058009001000090010000900100009001000054
:100068009001000090010000900100009001000044
:100078009001000090010000900100009001000034
:100088001a6f0100e66f0100900100009001000066
:100098009001000090010000900100009001000014
:1000a8009001000090010000900100009001000004
:1000b80090010000900100009001000090010000f4
:1000c80090010000900100009001000090010000e4
:1000d80090010000900100009001000090010000d4
:1000e80090010000900100009001000090010000c4
:0800f8009001000090010000de
:020000040000fa
:1001080090010000900100009001000090010000a3
:100118009001000090010000900100009001000093
:100128009001000090010000900100001c7900007f
:1001380090010000900100009279000090010000f9
:100148009001000008790000900100007c7801000f
:100158009001000090010000900100009001000053
:100168009001000090010000900100009001000043
:100178009001000090010000900100009001000033
:100188001a6f0100e66f0100900100009001000065
:100198009001000090010000900100009001000013
:1001a8009001000090010000900100009001000003
:1001b80090010000900100009001000090010000f3
:1001c80090010000900100009001000090010000e3
:1001d80090010000900100009001000090010000d3
:1001e80090010000900100009001000090010000c3
:0801f8009001000090010000dd
:020000040000fa
:1009e4000000000000000000000000000000000003
:1009f40000000000000000000000000000000000f3
:100a040000000000000000000000000080800000e2
:100a140080c00000c0c000006060000060300000c2
:100a2400303000001818000018180000188c00005e
:100a34008c8c00008c8c0000c6c60000c6c600006a
:100a4400c6c60000c6c60000e3e30000e3e30000fe
:100a5400e3e30000e3e30000e3e30000e3e300007a
:100a6400e3e30000e3e30000e3e30000e3e300006a
:100a7400e3e30000e3c30000c6c60000c6c60000ee
:100a8400c6c60000c68600008c8c00008c8c00005a
:100a94000c1800001818000018180000303000006e
:100aa4003060000060600000c0c00000c080000032
:100ab4008080000000000000000000000000000032
:100ac4000000000000000000000000000000000022
:100ad4000000000000000000000000000000000012
:100ae4000000000000000000000000000000000002
:100af40000800000c0e000006030000030180000fa
:100b04001c0c000006060000436300006371000033
:100b140071780000787800007c7c00007c7e000006
:100b24007e7e00007f7f00007f7f00007f7f0000cb
:100b34007f7f00007f7f00007f7f00007f7f0000b9
:100b44007f7f00007f7f00007f7f00007f7f0000a9
:100b54007f7f00007f7f00007f7f00007f7f000099
:100b64007f7f00007f7f00007f7f00007f7f000089
:100b74007f7f00007f7f00007f7f00007f7f000079
:100b84007f7f00007f7f00007f7f00007f7f000069
:100b94007f7f00007f7f00007f7e00007e7e00005c
:100ba4007c7c00007c780000787800007071000084
:100bb4006143000043030000060600000c1c000013
:100bc4001830000030600000e0c000008000000029
:100bd4000000000000000000000000000000000011
:100be4000000000080e00000703800001c060000d7
:100bf40003030000010000000000000000000000ea
:100c040000000000000000000000000000000000e0
:100c1400000000000000000000800000e0f0000080
:100c240038180000080c0000040400000c08000040
:100c340008180000183c0000fce0000080000000e0
:100c440000000000000800000808000008f8000088
:100c5400f8f80000f8180000080800000808000070
:100c640008080000081800001838000078f8000090
:100c7400f0800000000000000000000080e00000a0
:100c8400f0380000180800000c040000040c0000f8
:100c940008080000181800003cfc0000e080000078
:100ca4000000000000000000000000000000000040
:100cb4000000000000000000000000000000000030
:100cc4000000000000000000000100000303000019
:100cd400061c000038700000e080000000000000e6
:100ce400f0fe00000f010000000000000000000002
:100cf40000000000000000000000000000000000f0
:100d040000000000000000000000000000000000df
:100d14000000000000000000000700001f3f00006a
:100d24003c78000070700000e0e00000e0c00000cb
:100d3400c0c00000c080000080010000010000006d
:100d440000000000000000000000000000ff0000a0
:100d5400ffff0000ff800000808000008080000012
:100d6400c0c00000f0fc0000fc0000000000000017
:100d7400010100000000000000000000071f000047
:100d84003f3c00007870000070e00000e0e00000ec
:100d9400c0c00000c0c0000080800000010100004d
:100da400000000000000000000000000000000003f
:100db400000000000000000000000000000000002f
:100dc400000000000000000000000000000000001f
:100dd4000000000000000000010f0000fef0000011
:100de4000f7f0000f0800000000000000000000001
:100df40000000000000000000000000000000000ef
:100e040000000000000000000000000000000000de
:100e1400000000000000000020e00000c08000008e
:100e240000000000000000000000000000000000be
:100e3400010100000103000007ff0000fefc0000a8
:100e440000000000000000000000000000ff00009f
:100e5400ffff0000ff000000000000000000000091
:100e640000010000030f00000f000000000000005c
:100e740080c000004000000000200000e0c000002e
:100e840080000000000000000000000000000000de
:100e9400000100000101000003070000fffe000044
:100ea400fc00000000000000000000000000000042
:100eb400000000000000000000000000000000002e
:100ec400000000000000000000000000000000001e
:100ed400000000000000000080f000007f0f000010
:100ee40000000000010700000e1c00003860000034
:100ef400c0c00000800000000000000000000000ee
:100f040000000000000000000000000000000000dd
:100f1400000000000000000000000000070f0000b7
:100f24000f0e00000c08000008180000101000004c
:100f340010180000080c0000060700000300000061
:100f4400000000000008000008080000080f00006e
:100f54000f0f00000f0c0000080800000808000034
:100f640008080000080800000c0c00000e0f000028
:100f74000f01000000000000000000000007000056
:100f84000f0f00000e0c00000808000018100000ed
:100f940010100000180800000c06000007030000f1
:100fa400000000000000000000000000000000003d
:100fb400000000000000000000000000000000002d
:100fc400000000000000000000800000c0c000001d
:100fd400603800001c0e0000070100000000000043
:100fe40000000000000000000000000000000000fd
:100ff4000001000003070000060c00000c180000ac
:101004003830000060600000c2c60000c68e0000d8
:101014008e1e00001e1e00003e3e00003e7e0000ac
:101024007e7e0000fefe0000fefe0000fefe0000cc
:10103400fefe0000fefe0000fefe0000fefe0000bc
:10104400fefe0000fefe0000fefe0000fefe0000ac
:10105400fefe0000fefe0000fefe0000fefe00009c
:10106400fefe0000fefe0000fefe0000fefe00008c
:10107400fefe0000fefe0000fefe0000fefe00007c
:10108400fefe0000fefe0000fefe0000fefe00006c
:10109400fefe0000fefe0000fe7e00007e7e0000dc
:1010a4003e3e00003e1e00001e1e00000e8e00008c
:1010b40086c60000c2c00000606000003038000036
:1010c400180c00000c0600000703000001000000db
:1010d400000000000000000000000000000000000c
:1010e40000000000000000000000000000000000fc
:1010f40000000000000000000000000000000000ec
:1011040000000000000000000000000001010000d9
:10111400010300000303000006060000060c0000a3
:101124000c0c0000181800001818000018310000fa
:10113400313100003131000063630000636300005b
:101144006363000063630000c7c70000c7c70000f3
:10115400c7c70000c7c70000c7c70000c7c7000053
:10116400c7c70000c7c70000c7c70000c7c7000043
:10117400c7c70000c7c300006363000063630000c7
:10118400636300006361000031310000313100000d
:101194003018000018180000181800000c0c00008b
:1011a4000c06000006060000030300000301000013
:1011b4000101000000000000000000000000000029
:1011c400000000000000000000000000000000001b
:1011d400000000000000000000000000000000000b
:1011e40000000000c02000001010000000100000eb
:1011f40030f00000f0f00000f0e0000000f8000023
:101204000ce40000149400009494000094940000f2
:1012140094940000949400009494000094140000aa
:10122400e4040000040400000404000004a400001a
:10123400a4a400006474000064a40000a4a400003a
:10124400040400000404000004240000242400001a
:10125400e424000024a4000084e40000040400004a
:1012640004040000042400002424000024240000ba
:1012740024e4000004e4000004040000040400006a
:101284000424000024a4000064a40000242400001a
:1012940084e400000404000004040000e48400006a
:1012a400848400008484000084840000e40400003a
:1012b4000404000004040000040400000cf800000e
:1012c40000e00000f0f00000f0f00000301000003a
:1012d4000010000010200000c0000000000000000a
:1012e40000000000ff0000000000000000000000fb
:1012f40000000000030f00003fff000000ff00009b
:10130400007f00008089000081890000898100003d
:10131400898900008189000089810000898000009a
:101324007f000000000000000000000000720000c8
:101334008a8a00008a8e00008a8a00008a7200006d
:101344000000000000000000007400008281000022
:10135400808100008284000080870000000000007b
:101364000000000000800000804000002010000009
:101374000807000000ff000000000000000000005b
:10138400007200008988000088880000898a0000b3
:101394008873000000000000000000008384000047
:1013a40084840000e484000084840000870000003a
:1013b40000000000000000000000000000ff00002a
:1013c40000ff00003f0f00000300000000000000c9
:1013d4000000000000000000ff000000000000000a
:1013e40000000000ff0000000000000000000000fa
:1013f40000000000000000000000000000010000e8
:1014040003020000020200000202000002020000c7
:1014140002020000020200000202000002020000b8
:1014240002020000020200000202000002020000a8
:101434000202000002020000020200000202000098
:101444000202000002020000020200000202000088
:101454000202000002020000020200000202000078
:101464000202000002020000020200000202000068
:101474000202000002020000020200000202000058
:101484000202000002020000020200000202000048
:101494000202000002020000020200000202000038
:1014a4000202000002020000020200000202000028
:1014b4000202000002020000020200000301000018
:1014c4000000000000000000000000000000000018
:1014d4000000000000000000ff0000000000000009
:1014e40000000000ff000000000000000080000079
:1014f4008080000080c000008080000080800000a8
:1015040000000000808000008080000080800000d7
:101514008000000080000000008000008080000047
:101524008080000080800000008000000000000037
:101534008080000080800000808000008000000027
:101544008000000000000000808000008080000017
:101554008000000000800000000000000000000087
:101564000000000000000000000000000000000077
:101574000000000000000000000000000000000067
:101584000000000000000000000000000000000057
:101594000000000000000000000000000000000047
:1015a4000000000000000000000000000000000037
:1015b4000000000000000000000000000000000027
:1015c4000000000000000000000000000000000017
:1015d4000000000000000000ff0000000000000008
:1015e40000000000ff0000000000000000ca00002e
:1015f4002a2a000029390000292a00002aca0000ea
:1016040000000000d00800000403000004080000eb
:10161400120200001f000000000000000080000013
:1016240040200000100f000000ff00000000000038
:10163400d0080000040300000408000012020000a7
:101644001f00000000e70000484800004848000070
:101654004847000040ef00000200000000000000c6
:101664000000000000000000000000000000000076
:101674000000000000000000000000000000000066
:101684000000000000000000000000000000000056
:101694000000000000000000000000000000000046
:1016a4000000000000000000000000000000000036
:1016b40000000000000000001f2000004020000087
:1016c4001f000000000000000000000000000000f7
:1016d4000000000000000000ff0000000000000007
:1016e40000000000ff000000000000000080000077
:1016f4008181000081c1000081810000818000009f
:1017040000000000808100008181000081810000d0
:101714008101000081000000008100008180000040
:101724008080000080800000008100000000000034
:10173400808100008181000081810000810100001e
:101744008100000000000000818100008181000010
:101754008181000081010000000000000000000001
:101764000000000000000000000000000000000075
:101774000000000000000000000000000000000065
:101784000000000000000000000000000000000055
:101794000000000000000000000000000000000045
:1017a4000000000000000000000000000000000035
:1017b4000000000000000000000000000000000025
:1017c4000000000000000000000000000000000015
:1017d4000000000000000000ff0000000000000006
:1017e40000000000ff0000000000000000ca00002c
:1017f4002a2a000029390000292a00002aca0000e8
:1018040000000000d00800000403000004080000e9
:10181400120200001f000000000000000080000011
:1018240040200000100f000000ff00000000000036
:10183400d0080000040300000408000012020000a5
:101844001f0000000020000026ea00002a2a0000f1
:101854002aea00002b200000000000000000000025
:101864000000000000000000000000000000000074
:101874000000000000000000000000000000000064
:101884000000000000000000000000000000000054
:101894000000000000000000000000000000000044
:1018a4000000000000000000000000000000000034
:1018b40000000000000000007e1100001111000073
:1018c4007e00000000000000000000000000000096
:1018d4000000000000000000ff0000000000000005
:1018e40000000000070800001010000010100000a5
:1018f400111100001111000011110000111000005d
:10190400101000001011000011110000111100004e
:10191400111100001110000010110000111000003e
:101924001010000010100000101100001010000032
:10193400101100001111000011110000111100001c
:101944001110000010100000101100001010000011
:101954001011000010100000101000001010000002
:1019640010100000101000001010000010100000f3
:1019740010100000101000001010000010100000e3
:1019840010100000101000001010000010100000d3
:1019940010100000101000001010000010100000c3
:1019a40010100000101000001010000010100000b3
:1019b40010100000101000001010000010100000a3
:1019c4001010000010100000101000001010000093
:1019d40010100000100800000700000000000000c4
:1019e40000000000c02000001010000000100000e3
:1019f40030f00000f0f00000f0e0000000f800001b
:101a04000ce40000141400009454000054940000ea
:101a14001414000014140000141400001414000022
:101a2400e4040000040400000404000004c40000f2
:101a3400242400002424000024c4000004e4000042
:101a44000404000004040000040400000404000072
:101a540004a40000a4a40000a4e400000404000002
:101a640044e4000004040000040400000404000032
:101a7400040400000404000024240000a464000002
:101a8400a424000024840000e404000004040000f2
:101a9400040400000404000004040000e4840000c2
:101aa400848400008484000084840000e404000032
:101ab4000404000004040000040400000cf8000006
:101ac40000e00000f0f00000f0f000003010000032
:101ad4000010000010200000c00000000000000002
:101ae40000000000ff0000000000000000000000f3
:101af40000000000030f00003fff000000ff000093
:101b0400007f000084870000848400008484000037
:101b1400879c0000a4c40000c4a400009c840000ae
:101b24007f000000000000000000000000790000b9
:101b340092920000929200009291000090fb0000ab
:101b44000000000000000000000000000000000091
:101b54000011000012120000121200001010000008
:101b640011e300000000000000000000000000007d
:101b74000000000000000000728900008888000056
:101b8400888900008a8800007300000000000000bb
:101b9400000000000000000000000000838400003a
:101ba40084840000e4840000848400008700000032
:101bb40000000000000000000000000000ff000022
:101bc40000ff00003f0f00000300000000000000c1
:101bd4000000000000000000ff0000000000000002
:101be40000000000ff0000000000000000000000f2
:101bf40000000000000000000000000000010000e0
:101c040003020000020200000202000002020000bf
:101c140002020000020200000202000002020000b0
:101c240002020000020200000202000002020000a0
:101c3400e2120000d2d20000d2d20000d232000060
:101c4400e202000002820000828200008282000020
:101c54008282000082820000828200008282000070
:101c64008282000082820000828200000202000060
:101c7400e2320000d2d20000d2d20000d2b2000080
:101c8400e2020000028200008282000082820000e0
:101c94008282000082820000828200008282000030
:101ca4008282000082820000828200000202000020
:101cb400e2d20000d2d2000012d20000d3d1000040
:101cc400e000000000000000000000000000000030
:101cd4000000000000000000ff0000000000000001
:101ce40000000000ff000000000000000080000071
:101cf4008080000080800000808000000080000060
:101d040000000000008000008080000080000000cf
:101d1400008000000000000000000000000000003f
:101d240000000000000000000000000000000000af
:101d34000f1000001e1e00001e1c00001a170000d9
:101d44000f00000000030000020200000202000075
:101d5400020200000202000002020000020200006f
:101d64000202000002020000020300000000000062
:101d74000f1b0000161600001616000016190000ae
:101d84000f00000000030000020200000202000035
:101d9400020200000202000002020000020200002f
:101da4000202000002020000020300000000000022
:101db4000f1f00001f1f0000101f00001f1f000046
:101dc4000f00000000000000000000000000000000
:101dd4000000000000000000ff0000000000000000
:101de40000000000ff0000000000000000d0000020
:101df400080400000304000008120000021f000091
:101e040000000000e7480000484800004847000080
:101e140040ef00000200000000000000000000008d
:101e240000000000000000000000000000000000ae
:101e3400000000000000000000000000000000009e
:101e4400000000000000000000000000000000008e
:101e5400000000000000000000000000000000007e
:101e6400000000000000000000000000000000006e
:101e7400000000000000000000000000000000005e
:101e8400000000000000000000000000000000004e
:101e9400000000000000000000000000000000003e
:101ea400000000000000000000000000000000002e
:101eb400000000000000000000000000000000001e
:101ec400000000000000000000000000000000000e
:101ed4000000000000000000ff00000000000000ff
:101ee40000000000ff0000000000000000000000ef
:101ef40001010000010100000101000001010000d6
:101f040000000000000100000101000001010000c8
:101f140001010000000000000000000000000000bb
:101f240000000000000000000000000000000000ad
:101f3400000000000000000000000000000000009d
:101f4400000000000000000000000000000000008d
:101f5400000000000000000000000000000000007d
:101f6400000000000000000000000000000000006d
:101f7400000000000000000000000000000000005d
:101f8400000000000000000000000000000000004d
:101f9400000000000000000000000000000000003d
:101fa400000000000000000000000000000000002d
:101fb400000000000000000000000000000000001d
:101fc400000000000000000000000000000000000d
:101fd4000000000000000000ff00000000000000fe
:101fe40000000000ff0000000000000000000000ee
:101ff40000000000000000000000000000000000dd
:1020040000000000000000000000000000000000cc
:1020140000000000000000000000000000000000bc
:1020240000000000000000000000000000000000ac
:10203400000000000000000000000000000000009c
:10204400000000000000000000000000000000008c
:10205400000000000000000000000000000000007c
:10206400000000000000000000000000000000006c
:10207400000000000000000000000000000000005c
:10208400000000000000000000000000000000004c
:10209400000000000000000000000000000000003c
:1020a400000000000000000000000000000000002c
:1020b400000000000000000000000000000000001c
:1020c400000000000000000000000000000000000c
:1020d4000000000000000000ff00000000000000fd
:1020e400000000000708000010100000101000009d
:1020f400101000001010000010100000101000005c
:10210400101000001010000010100000101000004b
:10211400101000001010000010100000101000003b
:10212400101000001010000010100000101000002b
:10213400101000001010000010100000101000001b
:10214400101000001010000010100000101000000b
:1021540010100000101000001010000010100000fb
:1021640010100000101000001010000010100000eb
:1021740010100000101000001010000010100000db
:1021840010100000101000001010000010100000cb
:1021940010100000101000001010000010100000bb
:1021a40010100000101000001010000010100000ab
:1021b400101000001010000010100000101000009b
:1021c400101000001010000010100000101000008b
:1021d40010100000100800000700000000000000bc
:1021e40000000000c02000001010000000100000db
:1021f40030f00000f0f00000f0e0000000f8000013
:102204000ce40000f4740000b4540000b4b4000002
:10221400d4540000d4b40000b4540000b4740000da
:10222400e40400000404000004040000042400008a
:10223400a4b40000b4a400002404000084e400005a
:10224400040400000404000004040000040400006a
:102254000424000024e400002424000004e400001a
:1022640004e400000404000004040000040400006a
:1022740004040000040400000404000004e400005a
:102284000404000004040000e4040000040400004a
:1022940004040000040400000404000024240000da
:1022a4002424000024240000e4040000e48400004a
:1022b4000404000004040000040400000cf80000fe
:1022c40000e00000f0f00000f0f00000301000002a
:1022d4000010000010200000c000000000000000fa
:1022e40000000000ff0000000000000000000000eb
:1022f40000000000030f00003fff000000ff00008b
:10230400007f0000fff90000b6af0000dfdf00002f
:10231400bdb80000bddd0000ddaf0000b6f900006f
:102324007f000000000000000000000000730000b7
:10233400848400008484000083800000828700007d
:102344000000000000000000000000000000000089
:1023540000f800000403000004f8000000ff00007f
:1023640004ff000000000000000000000000000066
:102374000000000000000000f0080000040300005a
:1023840004080000f0000000ff000000000000004e
:102394000000000000000000000000007484000041
:1023a4008484000084820000818000008700000093
:1023b40000000000000000000000000000ff00001a
:1023c40000ff00003f0f00000300000000000000b9
:1023d4000000000000000000ff00000000000000fa
:1023e40000000000ff0000000000000000000000ea
:1023f40000000000000000000000000000010000d8
:1024040003020000020200000202000002020000b7
:1024140002020000020200000202000002020000a8
:102424000202000002020000020200000202000098
:102434000202000002020000020200000202000088
:102444000202000002020000020200000202000078
:102454000202000002020000020200000202000068
:102464000202000002020000020200000202000058
:102474000202000002020000020200000202000048
:102484000202000002020000020200000202000038
:102494000202000002020000020200000202000028
:1024a4000202000002020000020200000202000018
:1024b4000202000002020000020200000301000008
:1024c4000000000000000000000000000000000008
:1024d4000000000000000000ff00000000000000f9
:1024e40000000000ff000000000000000080000069
:1024f4000000000000000000000000000080000058
:1025040000000000000000000000000000000000c7
:1025140000000000808000008080000080800000b7
:1025240080000000800000000000000000000000a7
:102534000000000000000000000000000000000097
:102544000000000000000000000000000000000087
:102554000000000000000000000000000000000077
:102564000000000000000000000000000000000067
:102574000000000000000000000000000000000057
:102584000000000000000000000000000000000047
:102594000000000000000000000000000000000037
:1025a4000000000000000000000000000000000027
:1025b4000000000000000000000000000000000017
:1025c4000000000000000000000000000000000007
:1025d4000000000000000000ff00000000000000f8
:1025e40000000000ff0000000000000000d3000015
:1025f4005454000054540000545400005077000018
:1026040001000000000000000000000000000000c5
:1026140000000000804000003f8800007f100000a0
:10262400e0000000ff0800000000000000000000bf
:102634000000000000000000000000000000000096
:102644000000000000000000000000000000000086
:102654000000000000000000000000000000000076
:102664000000000000000000000000000000000066
:102674000000000000000000000000000000000056
:102684000000000000000000000000000000000046
:102694000000000000000000000000000000000036
:1026a4000000000000000000000000000000000026
:1026b4000000000000000000000000000000000016
:1026c4000000000000000000000000000000000006
:1026d4000000000000000000ff00000000000000f7
:1026e40000000000ff0000000000000000000000e7
:1026f40001010000810100000101000001810000ce
:1027040000000000000000000000000000000000c5
:1027140000000000818000008081000080800000b3
:1027240081000000810000000000000000000000a3
:102734000000000000000000000000000000000095
:102744000000000000000000000000000000000085
:102754000000000000000000000000000000000075
:102764000000000000000000000000000000000065
:102774000000000000000000000000000000000055
:102784000000000000000000000000000000000045
:102794000000000000000000000000000000000035
:1027a4000000000000000000000000000000000025
:1027b4000000000000000000000000000000000015
:1027c4000000000000000000000000000000000005
:1027d4000000000000000000ff00000000000000f6
:1027e40000000000ff0000000000000000c0000026
:1027f400201000000f10000020c0000000ff0000a7
:1028040000000000000000000000000000000000c4
:1028140000000000d010000010100000100800009c
:10282400070000001f02000000000000000000007c
:102834000000000000000000000000000000000094
:102844000000000000000000000000000000000084
:102854000000000000000000000000000000000074
:102864000000000000000000000000000000000064
:102874000000000000000000000000000000000054
:102884000000000000000000000000000000000044
:102894000000000000000000000000000000000034
:1028a4000000000000000000000000000000000024
:1028b4000000000000000000000000000000000014
:1028c4000000000000000000000000000000000004
:1028d4000000000000000000ff00000000000000f5
:1028e4000000000007080000101000001011000094
:1028f4001010000010100000101100001011000052
:102904001010000010100000101000001010000043
:10291400101000001011000011110000111100002e
:102924001111000011100000101000001010000020
:102934001010000010100000101000001010000013
:102944001010000010100000101000001010000003
:1029540010100000101000001010000010100000f3
:1029640010100000101000001010000010100000e3
:1029740010100000101000001010000010100000d3
:1029840010100000101000001010000010100000c3
:1029940010100000101000001010000010100000b3
:1029a40010100000101000001010000010100000a3
:1029b4001010000010100000101000001010000093
:1029c4001010000010100000101000001010000083
:1029d40010100000100800000700000000000000b4
:1029e40000000000c02000001010000000100000d3
:1029f40030f00000f0f00000f0e0000000f800000b
:102a04000ce4000014d40000d414000094d400009a
:102a1400d454000054940000141400001414000052
:102a2400e4040000040400000404000004040000a2
:102a340004040000c4240000242400002424000012
:102a440024240000c4040000040400000404000062
:102a54000404000004040000040400000404000052
:102a64000404000004040000040400000404000042
:102a74000404000004040000040400000404000032
:102a84000404000004040000040400000404000022
:102a94000404000004040000c424000024240000f2
:102aa4002424000024240000240400000404000062
:102ab4000404000004040000040400000cf80000f6
:102ac40000e00000f0f00000f0f000003010000022
:102ad4000010000010200000c000000000000000f2
:102ae40000000000ff0000000000000000000000e3
:102af40000000000030f00003fff000000ff000083
:102b0400007f000080800000809e0000bfb30000b2
:102b1400a0a00000a0900000808000008080000041
:102b24007f00000000000000000000000000000022
:102b34000000000034450000454500004745000002
:102b440045450000440000000000000000000000b3
:102b54000000000000000000000000000000000071
:102b64000000000000000000000000000000000061
:102b74000000000000000000000000000000000051
:102b84000000000000000000000000000000000041
:102b94000000000000000000434400004444000022
:102ba400744400004444000044000000000000009d
:102bb40000000000000000000000000000ff000012
:102bc40000ff00003f0f00000300000000000000b1
:102bd4000000000000000000ff00000000000000f2
:102be40000000000ff0000000000000000000000e2
:102bf40000000000000000000000000000010000d0
:102c040003020000020200000202000002020000af
:102c140002020000020200000202000002020000a0
:102c24000202000002020000020200000202000090
:102c34000202000002020000020200000202000080
:102c44000202000002020000020200000202000070
:102c54000202000002020000020200000202000060
:102c64000202000002020000020200000202000050
:102c74000202000002020000020200000202000040
:102c84000202000002020000020200000202000030
:102c94000202000002020000020200000202000020
:102ca4000202000002020000020200000202000010
:102cb4000202000002020000020200000301000000
:102cc4000000000000000000000000000000000000
:102cd4000000000000000000ff00000000000000f1
:102ce40000000000ff0000000000000000000000e1
:102cf4000080000080800000808000008080000050
:102d040000000000000000000000000000000000bf
:102d140000000000000000000000000000000000af
:102d2400000000000000000000000000000000009f
:102d3400000000008080000080800000808000008f
:102d4400808000000000000000000000000000007f
:102d5400000000000000000000000000000000006f
:102d6400000000000000000000000000000000005f
:102d7400000000000000000000000000000000004f
:102d8400000000000000000000000000000000003f
:102d9400000000000000000000000000000000002f
:102da400000000000000000000000000000000001f
:102db4000000000000000000c0c00000000000008f
:102dc40000000000000000000000000000000000ff
:102dd4000000000000000000ff00000000000000f0
:102de40000000000ff0000000000000000000000e0
:102df400d3140000141400001c1400001414000068
:102e040013000000000000000000000000000000ab
:102e140000000000000000000000000000000000ae
:102e2400000000000000000000000000000000009e
:102e3400000f00001010000010d00000101000005f
:102e4400101000000000000000000000000000005e
:102e5400000000000000000000000000000000006e
:102e6400000000000000000000000000000000005e
:102e7400000000000000000000000000000000004e
:102e8400000000000000000000000000000000003e
:102e9400000000000000000000000000000000002e
:102ea400000000000000000000000000000000001e
:102eb4000000000000000000000000007c82000010
:102ec40082820000000000000000000000000000fa
:102ed4000000000000000000ff00000000000000ef
:102ee40000000000ff0000000000000000000000df
:102ef40000010000010100000101000001010000c7
:102f040001000000000000000000000000000000bc
:102f140000000000000000000000000000000000ad
:102f2400000000000000000000000000000000009d
:102f34000001000001010000010100000101000086
:102f4400010100000000000000000000000000007b
:102f5400000000000000000000000000000000006d
:102f6400000000000000000000000000000000005d
:102f7400000000000000000000000000000000004d
:102f8400000000000000000000000000000000003d
:102f9400000000000000000000000000000000002d
:102fa400000000000000000000000000000000001d
:102fb400000000000000000000000000000000000d
:102fc40000000000000000000000000000000000fd
:102fd4000000000000000000ff00000000000000ee
:102fe40000000000ff0000000000000000000000de
:102ff40000000000000000000000000000000000cd
:1030040000000000000000000000000000000000bc
:1030140000000000000000000000000000000000ac
:10302400000000000000000000000000000000009c
:10303400000000000000000000000000000000008c
:10304400000000000000000000000000000000007c
:10305400000000000000000000000000000000006c
:10306400000000000000000000000000000000005c
:10307400000000000000000000000000000000004c
:10308400000000000000000000000000000000003c
:10309400000000000000000000000000000000002c
:1030a400000000000000000000000000000000001c
:1030b400000000000000000000000000000000000c
:1030c40000000000000000000000000000000000fc
:1030d4000000000000000000ff00000000000000ed
:1030e400000000000708000010100000101000008d
:1030f400101000001010000010100000101000004c
:10310400101000001010000010100000101000003b
:10311400101000001010000010100000101000002b
:10312400101000001010000010100000101000001b
:10313400101000001010000010100000101000000b
:1031440010100000101000001010000010100000fb
:1031540010100000101000001010000010100000eb
:1031640010100000101000001010000010100000db
:1031740010100000101000001010000010100000cb
:1031840010100000101000001010000010100000bb
:1031940010100000101000001010000010100000ab
:1031a400101000001010000010100000101000009b
:1031b400101000001010000010100000101000008b
:1031c400101000001010000010100000101000007b
:1031d40010100000100800000700000000000000ac
:1031e40000000000c02000001010000000100000cb
:1031f40030f00000f0f00000f0e0000000f8000003
:103204000ce4000014140000141400009454000092
:1032140054540000549400001414000014140000ca
:10322400e40400000404000004040000040400009a
:1032340004040000e40400000404000004e40000aa
:10324400040400000404000004040000040400005a
:1032540004e400000404000004040000040400006a
:103264000404000004e40000a4a40000a40400007a
:1032740084e4000004e400000404000004040000ea
:1032840004040000048400006484000004040000ba
:1032940044e40000040400000404000024240000aa
:1032a400a4640000a424000024840000e4040000ba
:1032b4000404000004040000040400000cf80000ee
:1032c40000e00000f0f00000f0f00000301000001a
:1032d4000010000010200000c000000000000000ea
:1032e40000000000ff0000000000000000000000db
:1032f40000000000030f00003fff000000ff00007b
:10330400007f00008080000080be0000bfbe00007f
:10331400baba0000bebf0000be800000808000007a
:103324007f000000000000000000000000f000002a
:10333400080400000304000008f0000000ff00007f
:10334400000000000000000000b8000084820000bb
:10335400818000008182000084b800000000000029
:1033640000000000007900008a8a00008a880000ba
:10337400888b000088fb00000000000000000000b3
:1033840000690000a9a80000a8a80000a9a90000dd
:10339400a8b90000000000000000000072890000cd
:1033a40088880000888900008a8800007300000073
:1033b40000000000000000000000000000ff00000a
:1033c40000ff00003f0f00000300000000000000a9
:1033d4000000000000000000ff00000000000000ea
:1033e40000000000ff0000000000000000000000da
:1033f40000000000000000000000000000010000c8
:1034040003020000020200000202000002020000a7
:103414000202000002020000020200000202000098
:103424000202000002020000020200000202000088
:103434000202000002020000020200000202000078
:103444000202000002020000020200000202000068
:103454000202000002020000020200000202000058
:103464000202000002020000020200000202000048
:103474000202000002020000020200000202000038
:103484000202000002020000020200000202000028
:103494000202000002020000020200000202000018
:1034a4000202000002020000020200000202000008
:1034b40002020000020200000202000003010000f8
:1034c40000000000000000000000000000000000f8
:1034d4000000000000000000ff00000000000000e9
:1034e40000000000ff0000000000000000000000d9
:1034f40000000000000000000000000000000000c8
:10350400f018000088c80000e868000068e80000bf
:10351400c888000018f0000000000000000000004f
:103524000000000000000000000000000000000097
:103534000000000000000000000000000000000087
:103544000000000000000000000000000000000077
:103554000000000000000000000000000000000067
:103564000000000000000000000000000000000057
:103574000000000000000000000000000000000047
:103584000000000000000000000000000000000037
:103594000000000000000000000000000000000027
:1035a4000000000000000000000000000000000017
:1035b4000000000000000000000000000000000007
:1035c40000000000000000000000000000000000f7
:1035d4000000000000000000ff00000000000000e8
:1035e40000000000ff0000000000000000000000d8
:1035f40000000000000000000000000000000000c7
:103604001f700000e30700000efc0000fc8e0000a9
:103614008723000030ff00000000000000000000cd
:103624000000000000000000000000000000000096
:103634000000000000000000000000000000000086
:103644000000000000000000000000000000000076
:103654000000000000000000000000000000000066
:103664000000000000000000000000000000000056
:103674000000000000000000000000000000000046
:103684000000000000000000000000000000000036
:103694000000000000000000000000000000000026
:1036a4000000000000000000000000000000000016
:1036b4000000000000000000000000000000000006
:1036c40000000000000000000000000000000000f6
:1036d4000000000000000000ff00000000000000e7
:1036e40000000000ff0000000000000000000000d7
:1036f40000000000000000000000000000000000c6
:10370400000000003f600000405f00005f4d0000cb
:103714004d400000603f000000800000c000000039
:10372400c0600000202000002020000020200000b5
:103734002020000020200000202000002020000085
:103744002020000020200000202000002020000075
:103754002020000020200000202000002020000065
:103764002020000020200000202000002020000055
:103774002020000020200000202000002020000045
:103784002020000020200000202000002020000035
:103794002020000020200000202000002020000025
:1037a40020600000c0000000c08000000000000095
:1037b4000000000000000000000000000000000005
:1037c40000000000000000000000000000000000f5
:1037d4000000000000000000ff00000000000000e6
:1037e40000000000ff0000000000000000000000d6
:1037f40000000000000000000000000000000000c5
:1038040000000000000000000000000000000000b4
:1038140000000000000000000000000000000000a4
:103824000000000000000000000000000000000094
:103834000000000000000000000000000000000084
:103844000000000000000000000000000000000074
:103854000000000000000000000000000000000064
:103864000000000000000000000000000000000054
:103874000000000000000000000000000000000044
:103884000000000000000000000000000000000034
:103894000000000000000000000000000000000024
:1038a4000000000000000000000000000000000014
:1038b4000000000000000000000000000000000004
:1038c40000000000000000000000000000000000f4
:1038d4000000000000000000ff00000000000000e5
:1038e4000000000007080000101000001010000085
:1038f4001010000010100000101000001010000044
:103904001010000010100000101000001010000033
:103914001010000010100000101000001010000023
:103924001010000010100000101000001010000013
:103934001010000010100000101000001010000003
:1039440010100000101000001010000010100000f3
:1039540010100000101000001010000010100000e3
:1039640010100000101000001010000010100000d3
:1039740010100000101000001010000010100000c3
:1039840010100000101000001010000010100000b3
:1039940010100000101000001010000010100000a3
:1039a4001010000010100000101000001010000093
:1039b4001010000010100000101000001010000083
:1039c4001010000010100000101000001010000073
:1039d40010100000100800000700000000000000a4
:1039e40000000000000000000000000000000000d3
:1039f40000000000000000000000000000000000c3
:103a040000000000000000000000000000000000b2
:103a140000000000000000000000000000000000a2
:1051e40000000000c02000001010000000100000ab
:1051f40030f00000f0f00000f0e0000000f80000e3
:105204000ce400001414000014540000d4d4000072
:105214005414000014540000d4540000141400006a
:10522400e4040000040400000404000004a40000da
:10523400a4a400006474000064a40000a4a40000fa
:10524400040400002424000024e4000024240000ba
:10525400a4840000e40400000424000024240000ca
:10526400e424000024a4000084e4000004040000fa
:10527400c42400002424000024240000c4040000ea
:10528400e48400000404000004840000648400003a
:105294000404000084e4000004040000242400004a
:1052a400a4640000a424000024840000e40400009a
:1052b4000404000004040000040400000cf80000ce
:1052c40000e00000f0f00000f0f0000030100000fa
:1052d4000010000010200000c000000000000000ca
:1052e40000000000ff0000000000000000000000bb
:1052f40000000000030f00003fff000000ff00005b
:10530400007f00008080000080800000bfa30000b8
:10531400908c000083810000808000008080000069
:105324007f00000000000000000000000072000088
:105334008a8a00008a8e00008a8a00008a7200002d
:10534400000000007482000081800000818200005f
:105354008480000087000000007400008281000047
:10536400808100008284000080870000000000002b
:1053740071a20000a2a20000a2a20000a1a000004d
:10538400f3000000006a0000a9a80000a8a800001b
:10539400a9aa0000a8bb0000000000007289000058
:1053a40088880000888900008a8800007300000053
:1053b40000000000000000000000000000ff0000ea
:1053c40000ff00003f0f0000030000000000000089
:1053d4000000000000000000ff00000000000000ca
:1053e40000000000ff0000000000000000000000ba
:1053f40000000000000000000000000000010000a8
:105404000302000002020000020200000202000087
:105414000202000002020000020200000202000078
:105424000202000002020000020200000202000068
:105434000202000002020000020200000202000058
:105444000202000002020000020200000202000048
:105454000202000002020000020200000202000038
:105464000202000002020000020200000202000028
:105474000202000002020000020200000202000018
:105484000202000002020000020200000202000008
:1054940002020000020200000202000002020000f8
:1054a40002020000020200000202000002020000e8
:1054b40002020000020200000202000003010000d8
:1054c40000000000000000000000000000000000d8
:1054d4000000000000000000ff00000000000000c9
:1054e40000000000ff000000000000000080000039
:1054f4008080000080c00000808000008080000068
:105504000000000080800000808000008080000097
:105514008000000080000000008000008080000007
:1055240080800000808000000080000000000000f7
:1055340000800000808000008080000000000000e7
:1055440080000000000000000000000000000000d7
:105554000000000000000000000000000000000047
:105564000000000000000000000000000000000037
:105574000000000000000000000000000000000027
:105584000000000000000000000000000000000017
:105594000000000000000000000000000000000007
:1055a40000000000000000000000000000000000f7
:1055b40000000000000000000000000000000000e7
:1055c40000000000000000000000000000000000d7
:1055d4000000000000000000ff00000000000000c8
:1055e40000000000ff0000000000000000ca0000ee
:1055f4002a2a000029390000292a00002aca0000aa
:1056040000000000d00800000403000004080000ab
:10561400120200001f00000000d000000804000077
:105624000304000008120000021f00000000000034
:10563400e748000048480000484800004740000090
:10564400ef02000000000000000000000000000065
:105654000000000000000000000000000000000046
:105664000000000000000000000000000000000036
:105674000000000000000000000000000000000026
:105684000000000000000000000000000000000016
:105694000000000000000000000000000000000006
:1056a40000000000000000000000000000000000f6
:1056b40000000000000000001f2000004020000047
:1056c4001f000000000000000000000000000000b7
:1056d4000000000000000000ff00000000000000c7
:1056e40000000000ff0000000000000000000000b7
:1056f400010100000101000001010000010000009f
:105704000000000000010000010100000101000090
:105714000101000001000000000000000101000080
:10572400010100000101000001010000000000006f
:10573400000100000101000001010000010100005e
:105744000100000000000000000000000000000054
:105754000000000000000000000000000000000045
:105764000000000000000000000000000000000035
:105774000000000000000000000000000000000025
:105784000000000000000000000000000000000015
:105794000000000000000000000000000000000005
:1057a40000000000000000000000000000000000f5
:1057b40000000000000000000000000000000000e5
:1057c40000000000000000000000000000000000d5
:1057d4000000000000000000ff00000000000000c6
:1057e40000000000ff0000000000000000000000b6
:1057f40000000000000000000000000000000000a5
:105804000000000000000000000000000000000094
:105814000000000000000000000000000000000084
:105824000000000000000000000000000000000074
:105834000000000000000000000000000000000064
:105844000000000000000000000000000000000054
:105854000000000000000000000000000000000044
:105864000000000000000000000000000000000034
:105874000000000000000000000000000000000024
:105884000000000000000000000000000000000014
:105894000000000000000000000000000000000004
:1058a40000000000000000000000000000000000f4
:1058b40000000000000000000000000000000000e4
:1058c40000000000000000000000000000000000d4
:1058d4000000000000000000ff00000000000000c5
:1058e4000000000007080000101000001010000065
:1058f4001010000010100000101000001010000024
:105904001010000010100000101000001010000013
:105914001010000010100000101000001010000003
:1059240010100000101000001010000010100000f3
:1059340010100000101000001010000010100000e3
:1059440010100000101000001010000010100000d3
:1059540010100000101000001010000010100000c3
:1059640010100000101000001010000010100000b3
:1059740010100000101000001010000010100000a3
:105984001010000010100000101000001010000093
:105994001010000010100000101000001010000083
:1059a4001010000010100000101000001010000073
:1059b4001010000010100000101000001010000063
:1059c4001010000010100000101000001010000053
:1059d4001010000010080000070000000000000084
:1059e40000000000c02000001010000000100000a3
:1059f40030f00000f0f00000f0e0000000f80000db
:105a04000ce400001414000014540000d4d400006a
:105a14005414000014540000d45400001414000062
:105a2400e4040000040400000444000044440000b2
:105a3400c4e40000c4440000444400000404000022
:105a44000424000024240000e424000024a4000012
:105a540084e4000004040000042400002424000062
:105a6400e424000024a4000084e4000004040000f2
:105a740004c400002424000024240000c404000002
:105a8400e4840000040400000404000084640000b2
:105a94008404000004440000e40400000404000042
:105aa40024240000a4640000a42400002484000032
:105ab400e404000004040000040400000cf80000e6
:105ac40000e00000f0f00000f0f0000030100000f2
:105ad4000010000010200000c000000000000000c2
:105ae40000000000ff0000000000000000000000b3
:105af40000000000030f00003fff000000ff000053
:105b0400007f00008080000080800000bfa30000b0
:105b1400908c000083810000808000008080000061
:105b24007f00000000000000002500005555000023
:105b3400545c00005455000055250000000000008e
:105b44000034000042410000404100004244000093
:105b54004047000000000000003400004241000003
:105b640040410000424400004047000000000000a3
:105b740000390000525200005252000051500000ff
:105b84007b00000000000000355500005454000064
:105b940054550000555400005d0000000000000052
:105ba4003249000048480000484900004a480000c3
:105bb40033000000000000000000000000ff0000af
:105bc40000ff00003f0f0000030000000000000081
:105bd4000000000000000000ff00000000000000c2
:105be40000000000ff0000000000000000000000b2
:105bf40000000000000000000000000000010000a0
:105c0400030200000202000002020000020200007f
:105c14000202000002020000020200000202000070
:105c24000202000002020000020200000202000060
:105c34000202000002020000020200000202000050
:105c44000202000002020000020200000202000040
:105c54000202000002020000020200000202000030
:105c64000202000002020000020200000202000020
:105c74000202000002020000020200000202000010
:105c84000202000002020000020200000202000000
:105c940002020000020200000202000002020000f0
:105ca40002020000020200000202000002020000e0
:105cb40002020000020200000202000003010000d0
:105cc40000000000000000000000000000000000d0
:105cd4000000000000000000ff00000000000000c1
:105ce40000000000ff000000000000000080000031
:105cf4000000000000000000000000000080000020
:105d0400000000008080000080800000808000008f
:105d1400808000008000000000800000808000007f
:105d240080800000808000000080000000000000ef
:105d340000800000808000008000000000800000df
:105d4400000000000000000000000000000000004f
:105d5400000000000000000000000000000000003f
:105d6400000000000000000000000000000000002f
:105d7400000000000000000000000000000000001f
:105d8400000000000000000000000000000000000f
:105d940000000000000000000000000000000000ff
:105da40000000000000000000000000000000000ef
:105db40000000000000000000000000000000000df
:105dc40000000000000000000000000000000000cf
:105dd4000000000000000000ff00000000000000c0
:105de40000000000ff000000000000000017000099
:105df4001515000015f50000151500001517000015
:105e040000000000c92a00002a2a00002e2a0000ef
:105e14002a2a0000ca00000000d000000804000084
:105e24000304000008120000021f0000000000002c
:105e3400e7480000484800004847000040ef0000e1
:105e4400020000000000000000000000000000004c
:105e5400000000000000000000000000000000003e
:105e6400000000000000000000000000000000002e
:105e7400000000000000000000000000000000001e
:105e8400000000000000000000000000000000000e
:105e940000000000000000000000000000000000fe
:105ea40000000000000000000000000000000000ee
:105eb40000000000000000001f200000402000003f
:105ec4001f000000000000000000000000000000af
:105ed4000000000000000000ff00000000000000bf
:105ee40000000000ff00000000000000008000002f
:105ef400808000008081000080800000800000001d
:105f04000000000080810000818100008181000088
:105f14008181000080000000008000008181000079
:105f240081810000818100000181000000000000e7
:105f340000810000818100008101000001810000d6
:105f4400000000000000000000000000000000004d
:105f5400000000000000000000000000000000003d
:105f6400000000000000000000000000000000002d
:105f7400000000000000000000000000000000001d
:105f8400000000000000000000000000000000000d
:105f940000000000000000000000000000000000fd
:105fa40000000000000000000000000000000000ed
:105fb40000000000000000000000000000000000dd
:105fc40000000000000000000000000000000000cd
:105fd4000000000000000000ff00000000000000be
:105fe40000000000ff0000000000000000c80000e6
:105ff400083800000808000008380000080b0000fa
:1060040000000000c92a00002a2a00002a2a0000f1
:106014002a2a0000ca00000000d000000804000082
:106024000304000008120000021f0000000000002a
:10603400e7480000484800004847000040ef0000df
:10604400020000000000000000000000000000004a
:10605400000000000000000000000000000000003c
:10606400000000000000000000000000000000002c
:10607400000000000000000000000000000000001c
:10608400000000000000000000000000000000000c
:1060940000000000000000000000000000000000fc
:1060a40000000000000000000000000000000000ec
:1060b40000000000000000001f200000402000003d
:1060c4001f000000000000000000000000000000ad
:1060d4000000000000000000ff00000000000000bd
:1060e400000000000708000010100000101000005d
:1060f4001111000011110000111100001111000014
:106104001010000010110000111100001111000006
:1061140011110000101000001010000011110000f7
:1061240011110000111100001111000010100000e5
:1061340010110000111100001111000011110000d4
:1061440010100000101000001010000010100000cb
:1061540010100000101000001010000010100000bb
:1061640010100000101000001010000010100000ab
:10617400101000001010000010100000101000009b
:10618400101000001010000010100000101000008b
:10619400101000001010000010100000101000007b
:1061a400101000001010000010100000101000006b
:1061b400101000001010000010100000101000005b
:1061c400101000001010000010100000101000004b
:1061d400101000001008000007000000000000007c
:1061e40000000000c020000010100000001000009b
:1061f40030f00000f0f00000f0e0000000f80000d3
:106204000ce40000141400001414000054d4000022
:10621400d414000014940000d4540000141400009a
:10622400e40400000404000004040000040400006a
:1062340004040000846400008404000004040000da
:10624400040400000404000004040000040400002a
:1062540004c40000a4a40000a4a40000a4a400009a
:10626400a4a40000040400000404000004040000ca
:10627400040400000404000004040000846400001a
:106284008404000004840000e4040000040400000a
:10629400040400000404000004040000242400009a
:1062a400a4640000a424000024840000e40400008a
:1062b4000404000004040000040400000cf80000be
:1062c40000e00000f0f00000f0f0000030100000ea
:1062d4000010000010200000c000000000000000ba
:1062e40000000000ff0000000000000000000000ab
:1062f40000000000030f00003fff000000ff00004b
:10630400007f00008080000080980000beb3000081
:10631400b0b000009c8700008180000080800000f5
:106324007f000000000000000000000000140000d6
:106334001211000010f000001011000012140000ef
:106344000000000000000000000000000000000049
:10635400007200008a8a00008a8b00008a8a00008a
:106364008a7200000000000000000000000000002d
:1063740000000000000000006aa90000a8a80000b6
:10638400a8a90000aaa80000bb00000000000000ab
:1063940000000000000000000000000072890000fe
:1063a40088880000888900008a8800007300000043
:1063b40000000000000000000000000000ff0000da
:1063c40000ff00003f0f0000030000000000000079
:1063d4000000000000000000ff00000000000000ba
:1063e40000000000ff0000000000000000000000aa
:1063f4000000000000000000000000000001000098
:106404000302000002020000020200000202000077
:106414000202000002020000020200000202000068
:106424000202000002020000020200000202000058
:106434000202000002020000020200000202000048
:106444000202000002020000020200000202000038
:106454000202000002020000020200000202000028
:106464000202000002020000020200000202000018
:106474000202000002020000020200000202000008
:1064840002020000020200000202000002020000f8
:1064940002020000020200000202000002020000e8
:1064a40002020000020200000202000002020000d8
:1064b40002020000020200000202000003010000c8
:1064c40000000000000000000000000000000000c8
:1064d4000000000000000000ff00000000000000b9
:1064e40000000000ff000000000000000080000029
:1064f4008080000080800000808000000080000018
:106504000000000000800000808000008080000007
:1065140000000000800000000000000000000000f7
:106524008000000000000000008000000000000067
:1065340080800000808000008080000080000000d7
:1065440080000000000000000000000000000000c7
:106554000000000000000000000000000000000037
:106564000000000000000000000000000000000027
:106574000000000000000000000000000000000017
:106584000000000000000000000000000000000007
:1065940000000000000000000000000000000000f7
:1065a40000000000000000000000000000000000e7
:1065b40000000000000000000000000000000000d7
:1065c40000000000000000000000000000000000c7
:1065d4000000000000000000ff00000000000000b8
:1065e40000000000ff0000000000000000d00000d8
:1065f400080400000304000008120000021f000049
:1066040000000000e7480000484800004848000037
:1066140047400000ef02000000d400005452000084
:106624005152000054540000517700000000000053
:10663400c824000022210000222400002822000097
:10664400cf00000000000000000000000000000077
:106654000000000000000000000000000000000036
:106664000000000000000000000000000000000026
:106674000000000000000000000000000000000016
:106684000000000000000000000000000000000006
:1066940000000000000000000000000000000000f6
:1066a40000000000000000000000000000000000e6
:1066b40000000000000000001f2000004020000037
:1066c4001f000000000000000000000000000000a7
:1066d4000000000000000000ff00000000000000b7
:1066e40000000000ff000000000000000080000027
:1066f400818100008181000081810000018100000e
:106704000000000000810000818100008181000000
:1067140081810000010000000080000081810000f0
:10672400818100000181000001810000000000005f
:106734008081000081c1000081810000810100008e
:1067440080000000000000000000000000000000c5
:106754000000000000000000000000000000000035
:106764000000000000000000000000000000000025
:106774000000000000000000000000000000000015
:106784000000000000000000000000000000000005
:1067940000000000000000000000000000000000f5
:1067a40000000000000000000000000000000000e5
:1067b40000000000000000000000000000000000d5
:1067c40000000000000000000000000000000000c5
:1067d4000000000000000000ff00000000000000b6
:1067e40000000000ff0000000000000000d00000d6
:1067f400080400000304000008120000021f000047
:106804000000000020260000ea2a00002a2a0000d6
:10681400ea2b00002000000000e00000100f000040
:1068240010e0000008ff000000ff0000000000006e
:10683400cc12000012120000121200000c00000022
:106844003f02000000000000000000000000000003
:106854000000000000000000000000000000000034
:106864000000000000000000000000000000000024
:106874000000000000000000000000000000000014
:106884000000000000000000000000000000000004
:1068940000000000000000000000000000000000f4
:1068a40000000000000000000000000000000000e4
:1068b40000000000000000007e1100001111000023
:1068c4007e00000000000000000000000000000046
:1068d4000000000000000000ff00000000000000b5
:1068e4000000000007080000101000001010000055
:1068f400111100001111000011110000111100000c
:106904001010000010100000111000001010000002
:1069140011100000101000001011000010100000f1
:1069240010110000101100001011000010100000e0
:1069340010110000111100001111000011110000cc
:1069440011100000101000001010000010100000c2
:1069540010100000101000001010000010100000b3
:1069640010100000101000001010000010100000a3
:106974001010000010100000101000001010000093
:106984001010000010100000101000001010000083
:106994001010000010100000101000001010000073
:1069a4001010000010100000101000001010000063
:1069b4001010000010100000101000001010000053
:1069c4001010000010100000101000001010000043
:1069d4001010000010080000070000000000000074
:1069e40000000000c0200000101000000010000093
:1069f40030f00000f0f00000f0e0000000f80000cb
:106a04000ce40000141400009454000094140000da
:106a140014140000141400001414000014140000d2
:106a2400e4040000040400000404000004a40000c2
:106a3400a4a400006474000064a40000a4a40000e2
:106a4400040400002424000024e4000024240000a2
:106a5400a4840000e40400000424000024240000b2
:106a6400e424000024a4000084e4000004040000e2
:106a740004a40000a4a40000a4a40000a4e4000052
:106a8400040400000424000024e400002424000082
:106a940004e4000004e400000404000024a4000052
:106aa400a4b40000a4a4000024040000e4840000b2
:106ab4000404000004040000040400000cf80000b6
:106ac40000e00000f0f00000f0f0000030100000e2
:106ad4000010000010200000c000000000000000b2
:106ae40000000000ff0000000000000000000000a3
:106af40000000000030f00003fff000000ff000043
:106b0400007f000080a0000097980000a7a000006c
:106b14009da00000be840000b8840000b88000007e
:106b24007f00000000000000000000000072000070
:106b34008a8a00008a8e00008a8a00008a72000015
:106b44000000000074820000818000008182000047
:106b5400848000008700000000740000828100002f
:106b64008081000082840000808700000000000013
:106b740008090000fa0a00000a0a0000fa0a0000e4
:106b84000800000000f800000403000004f80000fe
:106b940002ff000000ff00000000000073840000fa
:106ba4008484000084840000838000008f0000003f
:106bb40000000000000000000000000000ff0000d2
:106bc40000ff00003f0f0000030000000000000071
:106bd4000000000000000000ff00000000000000b2
:106be40000000000ff0000000000000000000000a2
:106bf4000000000000000000000000000001000090
:106c0400030200000202000002020000020200006f
:106c14000202000002020000020200000202000060
:106c24000202000002020000020200000202000050
:106c34000202000002020000020200000202000040
:106c44000202000002020000020200000202000030
:106c54000202000002020000020200000202000020
:106c64000202000002020000020200000202000010
:106c74000202000002020000020200000202000000
:106c840002020000020200000202000002020000f0
:106c940002020000020200000202000002020000e0
:106ca40002020000020200000202000002020000d0
:106cb40002020000020200000202000003010000c0
:106cc40000000000000000000000000000000000c0
:106cd4000000000000000000ff00000000000000b1
:106ce40000000000ff000000000000000080000021
:106cf4008080000080c00000808000008080000050
:106d0400000000008080000080800000808000007f
:106d140080000000800000000080000080800000ef
:106d240080800000808000000080000000000000df
:106d340000800000808000008080000080800000cf
:106d4400000000000000000000000000000000003f
:106d5400000000000000000000000000000000002f
:106d6400000000000000000000000000000000001f
:106d7400000000000000000000000000000000000f
:106d840000000000000000000000000000000000ff
:106d940000000000000000000000000000000000ef
:106da40000000000000000000000000000000000df
:106db40000000000000000000000000000000000cf
:106dc40000000000000000000000000000000000bf
:106dd4000000000000000000ff00000000000000b0
:106de40000000000ff0000000000000000ca0000d6
:106df4002a2a000029390000292a00002aca000092
:106e040000000000d0080000040300000408000093
:106e1400120200001f00000000d00000080400005f
:106e24000304000008120000021f0000000000001c
:106e340020260000ea2a00002a2a0000ea2b00008b
:106e4400200000000000000000000000000000001e
:106e5400000000000000000000000000000000002e
:106e6400000000000000000000000000000000001e
:106e7400000000000000000000000000000000000e
:106e840000000000000000000000000000000000fe
:106e940000000000000000000000000000000000ee
:106ea40000000000000000000000000000000000de
:106eb40000000000000000007e110000111100001d
:106ec4007e00000000000000000000000000000040
:106ed4000000000000000000ff00000000000000af
:106ee40000000000ff00000000000000000000009f
:106ef4000101000001010000010100000100000087
:106f04000000000000010000010100000101000078
:106f14000101000001000000000000000101000068
:106f24000101000001010000010100000000000057
:106f3400000000000100000000000000010000004b
:106f4400000000000000000000000000000000003d
:106f5400000000000000000000000000000000002d
:106f6400000000000000000000000000000000001d
:106f7400000000000000000000000000000000000d
:106f840000000000000000000000000000000000fd
:106f940000000000000000000000000000000000ed
:106fa40000000000000000000000000000000000dd
:106fb40000000000000000000000000000000000cd
:106fc40000000000000000000000000000000000bd
:106fd4000000000000000000ff00000000000000ae
:106fe40000000000ff00000000000000000000009e
:106ff400000000000000000000000000000000008d
:10700400000000000000000000000000000000007c
:10701400000000000000000000000000000000006c
:10702400000000000000000000000000000000005c
:10703400000000000000000000000000000000004c
:10704400000000000000000000000000000000003c
:10705400000000000000000000000000000000002c
:10706400000000000000000000000000000000001c
:10707400000000000000000000000000000000000c
:1070840000000000000000000000000000000000fc
:1070940000000000000000000000000000000000ec
:1070a40000000000000000000000000000000000dc
:1070b40000000000000000000000000000000000cc
:1070c40000000000000000000000000000000000bc
:1070d4000000000000000000ff00000000000000ad
:1070e400000000000708000010100000101000004d
:1070f400101000001010000010100000101000000c
:1071040010100000101000001010000010100000fb
:1071140010100000101000001010000010100000eb
:1071240010100000101000001010000010100000db
:1071340010100000101000001010000010100000cb
:1071440010100000101000001010000010100000bb
:1071540010100000101000001010000010100000ab
:10716400101000001010000010100000101000009b
:10717400101000001010000010100000101000008b
:10718400101000001010000010100000101000007b
:10719400101000001010000010100000101000006b
:1071a400101000001010000010100000101000005b
:1071b400101000001010000010100000101000004b
:1071c400101000001010000010100000101000003b
:1071d400101000001008000007000000000000006c
:1071e40000000000c020000010100000001000008b
:1071f40030f00000f0f00000f0e0000000f80000c3
:107204000ce4000014140000141400001414000012
:10721400d4d400001414000014140000141400004a
:10722400e4040000040400000404000004c400009a
:10723400242400002424000024c4000004e40000ea
